{
	"data": {
		"bytecode": {
			"linkReferences": {},
			"object": "608060405234801561001057600080fd5b50604051611fb8380380611fb883398101604081905261002f91610054565b600280546001600160a01b0319166001600160a01b0392909216919091179055610084565b60006020828403121561006657600080fd5b81516001600160a01b038116811461007d57600080fd5b9392505050565b611f25806100936000396000f3fe608060405234801561001057600080fd5b506004361061012c5760003560e01c80639054bdec116100ad578063b199993711610071578063b19999371461028e578063b238ad0e146102a1578063bb1d3029146102b4578063c64e2d8d146102c7578063fa93f8831461037857600080fd5b80639054bdec1461021657806392d6631314610229578063a324ad241461024f578063a6f0e57714610262578063affed0e01461028557600080fd5b806362ba9687116100f457806362ba9687146101b757806365c72840146101ca5780637f791833146101dd5780638aa001fc146101f05780638c8d98a01461020357600080fd5b806302ef0bb9146101315780631aa2f1b614610157578063281d2c371461016c5780633e239e1a1461017f5780634ac1ad78146101a4575b600080fd5b61014461013f36600461189e565b61038b565b6040519081526020015b60405180910390f35b61016a610165366004611919565b610416565b005b61016a61017a3660046119ae565b6106e8565b61019261018d366004611aae565b610c63565b60405160ff909116815260200161014e565b6101926101b2366004611aae565b610c8d565b6101446101c5366004611ad9565b610ca9565b6101926101d8366004611aae565b610cc6565b6101446101eb366004611b3e565b610cdb565b6101926101fe366004611aae565b610cf7565b610144610211366004611b92565b610d04565b610144610224366004611bd5565b610d12565b61023c610237366004611aae565b610ec3565b60405161ffff909116815260200161014e565b61019261025d366004611aae565b610fb3565b610275610270366004611c49565b610fc8565b604051901515815260200161014e565b61014460015481565b61014461029c366004611aae565b611027565b6101926102af366004611c64565b61106c565b61016a6102c2366004611c97565b611133565b61032d6102d5366004611c97565b60006020819052908152604090208054600182015460028301546003909301546001600160a01b0392831693919092169160ff808216916101008104821691620100008204169063ffffffff63010000009091041687565b604080516001600160a01b0398891681529790961660208801529486019390935260ff9182166060860152811660808501521660a083015263ffffffff1660c082015260e00161014e565b610192610386366004611aae565b611188565b60408051601960f81b602080830191909152600060218301526bffffffffffffffffffffffff1930606090811b821660228501529a8b1b81166036840152604a830199909952606a820197909752608a81019590955292871b861660aa850152951b90931660be82015260d2808201949094528251808203909401845260f201909152815191012090565b61041e611196565b836000036104735760405162461bcd60e51b815260206004820152601d60248201527f616d6f756e74206d7573742062652067726561746572207468616e203000000060448201526064015b60405180910390fd5b601d8360ff16106104c65760405162461bcd60e51b815260206004820181905260248201527f7472616e73666572446179206d757374206265206c657373207468616e203239604482015260640161046a565b60008260ff161161052a5760405162461bcd60e51b815260206004820152602860248201527f7472616e73666572486f75725374617274206d75737420626520677265617465604482015267072207468616e20360c41b606482015260840161046a565b60178160ff16106105895760405162461bcd60e51b8152602060048201526024808201527f7472616e73666572486f7572456e64206d757374206265206c657373207468616044820152636e20323360e01b606482015260840161046a565b8060ff168260ff16106105fa5760405162461bcd60e51b815260206004820152603360248201527f7472616e73666572486f75725374617274206d757374206265206c65737320746044820152721a185b881d1c985b9cd9995c921bdd5c915b99606a1b606482015260840161046a565b6040805160e0810182526001600160a01b039788168152958716602080880191825287830196875260ff958616606089019081529486166080890190815293861660a08901908152600060c08a018181529b8b16815291829052929020965187549089166001600160a01b031991821617885590516001880180549190991691161790965592516002850155516003909301805492519451955163ffffffff1663010000000266ffffffff0000001996831662010000029690961666ffffffffff0000199583166101000261ffff199094169490921693909317919091179290921691909117919091179055565b6001600160a01b0387166107535760405162461bcd60e51b815260206004820152602c60248201527f41206e6f6e2d7a65726f2072656369657665722061646472657373206d75737460448201526b081899481c1c9bdd9a59195960a21b606482015260840161046a565b6001600160a01b03878116600090815260208181526040808320815160e081018352815486168152600182015490951692850192909252600282015490840181905260039091015460ff80821660608601526101008204811660808601526201000082041660a08501526301000000900463ffffffff1660c084015290036108435760405162461bcd60e51b815260206004820152603a60248201527f4120726563757272696e67207472616e7366657220686173206e6f742062656560448201527f6e206372656174656420666f7220746869732061646472657373000000000000606482015260840161046a565b6108568160c0015163ffffffff166111cf565b6108b85760405162461bcd60e51b815260206004820152602d60248201527f5472616e736665722068617320616c7265616479206265656e2065786563757460448201526c0cac840e8d0d2e640dadedce8d609b1b606482015260840161046a565b6108cf816060015182608001518360a00151611211565b61092f5760405162461bcd60e51b815260206004820152602b60248201527f5472616e736665722072657175657374206e6f742077697468696e2076616c6960448201526a642074696d656672616d6560a81b606482015260840161046a565b60005a905060006109478a8a8a8a8a8a60015461038b565b90506109588185856000015161125e565b6109a45760405162461bcd60e51b815260206004820152601a60248201527f496e76616c6964207369676e61747572652070726f7669646564000000000000604482015260640161046a565b600180549060006109b483611cc8565b9190505550885a1015610a1c5760405162461bcd60e51b815260206004820152602a60248201527f4e6f7420656e6f7567682067617320746f2065786563757465207361666520746044820152693930b739b0b1ba34b7b760b11b606482015260840161046a565b6001600160a01b038a8116600090815260208181526040909120600301805466ffffffff000000191663010000004263ffffffff160217905584015116610b2a57600254604080850151905163468721a760e01b81526001600160a01b039092169163468721a791610a96918e9190600090600401611d03565b6020604051808303816000875af1158015610ab5573d6000803e3d6000fd5b505050506040513d601f19601f82011682018060405250810190610ad99190611d36565b610b255760405162461bcd60e51b815260206004820181905260248201527f436f756c64206e6f742065786563757465204574686572207472616e73666572604482015260640161046a565b610c44565b60408084015190516001600160a01b038c166024820152604481019190915260009060640160408051601f19818403018152918152602080830180516001600160e01b031663a9059cbb60e01b17905260025490870151915163468721a760e01b81529293506001600160a01b03169163468721a791610bb39160009086908290600401611d58565b6020604051808303816000875af1158015610bd2573d6000803e3d6000fd5b505050506040513d601f19601f82011682018060405250810190610bf69190611d36565b610c425760405162461bcd60e51b815260206004820181905260248201527f436f756c64206e6f74206578656375746520746f6b656e207472616e73666572604482015260640161046a565b505b8615610c5757610c5782898989896112f8565b50505050505050505050565b60006018603c610c738185611dd8565b610c7d9190611dd8565b610c879190611dec565b92915050565b60006007610c9e6201518084611dd8565b610c7d906004611e00565b6000610cba86868686866000610d12565b90505b95945050505050565b6000610cd1826115b6565b6040015192915050565b6000610cec85858585600080610d12565b90505b949350505050565b6000610c87603c83611dec565b6000610cef84848460008060005b60006107b25b8761ffff168161ffff161015610d6e57610d3181610fc8565b15610d4b57610d446301e2850083611e00565b9150610d5c565b610d596301e1338083611e00565b91505b80610d6681611e13565b915050610d18565b610d76611863565b601f8152610d8389610fc8565b15610d9457601d6020820152610d9c565b601c60208201525b601f60408201819052601e606083018190526080830182905260a0830181905260c0830182905260e0830182905261010083018190526101208301829052610140830152610160820152600191505b8760ff168261ffff161015610e4d5780610e06600184611e4a565b61ffff16600c8110610e1a57610e1a611e34565b6020020151610e2f9060ff1662015180611e6c565b610e399084611e00565b925081610e4581611e13565b925050610deb565b610e58600188611e83565b610e689060ff1662015180611e6c565b610e729084611e00565b9250610e8360ff8716610e10611e6c565b610e8d9084611e00565b9250610e9d60ff8616603c611e6c565b610ea79084611e00565b9250610eb660ff851684611e00565b9998505050505050505050565b6000808080610ed66301e1338086611dd8565b610ee2906107b2611e00565b9150610eef6107b2611027565b610efc8361ffff16611027565b610f069190611e9c565b9050610f16816301e28500611e6c565b610f209084611e00565b925080610f2f6107b284611e4a565b61ffff16610f3d9190611e9c565b610f4b906301e13380611e6c565b610f559084611e00565b92505b84831115610fab57610f6e610270600184611e4a565b15610f8857610f816301e2850084611e9c565b9250610f99565b610f966301e1338084611e9c565b92505b610fa4600183611e4a565b9150610f58565b509392505050565b6000610fbe826115b6565b6020015192915050565b6000610fd5600483611eaf565b61ffff1615610fe657506000919050565b610ff1606483611eaf565b61ffff161561100257506001919050565b61100e61019083611eaf565b61ffff161561101f57506000919050565b506001919050565b6000611034600183611e9c565b915061104261019083611dd8565b61104d606484611dd8565b611058600485611dd8565b6110629190611e9c565b610c879190611e00565b60008260ff166001148061108357508260ff166003145b8061109157508260ff166005145b8061109f57508260ff166007145b806110ad57508260ff166008145b806110bb57508260ff16600a145b806110c957508260ff16600c145b156110d65750601f610c87565b8260ff16600414806110eb57508260ff166006145b806110f957508260ff166009145b8061110757508260ff16600b145b156111145750601e610c87565b61111d82610fc8565b1561112a5750601d610c87565b50601c92915050565b61113b611196565b6001600160a01b0316600090815260208190526040812080546001600160a01b0319908116825560018201805490911690556002810191909155600301805466ffffffffffffff19169055565b6000603c610c7d8184611dd8565b3330146111cd5760405162461bcd60e51b8152602060048201526005602482015264475330333160d81b604482015260640161046a565b565b60006111da82610ec3565b61ffff166111e742610ec3565b61ffff161180610c8757506111fb82610fb3565b60ff1661120742610fb3565b60ff161192915050565b60008360ff1661122042610cc6565b60ff1614801561123e57508260ff1661123842610c63565b60ff1610155b8015610cef57508160ff1661125242610c63565b60ff1610949350505050565b60008061126d8585600061179e565b9050826001600160a01b0316816001600160a01b03161480610cbd57506002546040516317aa5fb760e11b81526001600160a01b03838116600483015290911690632f54bf6e90602401602060405180830381865afa1580156112d4573d6000803e3d6000fd5b505050506040513d601f19601f82011682018060405250810190610cbd9190611d36565b6000611319846113138761130d5a8b90611838565b9061184b565b90611857565b905060006001600160a01b038316156113325782611334565b325b90506001600160a01b0384166114915760025460405163468721a760e01b81526001600160a01b039091169063468721a7906113799084908690600090600401611d03565b6020604051808303816000875af1158015611398573d6000803e3d6000fd5b505050506040513d601f19601f820116820180604052508101906113bc9190611d36565b5060025460405163468721a760e01b81526001600160a01b039091169063468721a7906113f29084908690600090600401611d03565b6020604051808303816000875af1158015611411573d6000803e3d6000fd5b505050506040513d601f19601f820116820180604052508101906114359190611d36565b61148c5760405162461bcd60e51b815260206004820152602260248201527f436f756c64206e6f74207061792067617320636f73747320776974682065746860448201526132b960f11b606482015260840161046a565b6115ad565b6040516001600160a01b03821660248201526044810183905260009060640160408051601f198184030181529181526020820180516001600160e01b031663a9059cbb60e01b179052600254905163468721a760e01b81529192506001600160a01b03169063468721a79061151190889060009086908290600401611d58565b6020604051808303816000875af1158015611530573d6000803e3d6000fd5b505050506040513d601f19601f820116820180604052508101906115549190611d36565b6115ab5760405162461bcd60e51b815260206004820152602260248201527f436f756c64206e6f74207061792067617320636f737473207769746820746f6b60448201526132b760f11b606482015260840161046a565b505b50505050505050565b6040805160e081018252600080825260208201819052918101829052606081018290526080810182905260a0810182905260c081018290529080806115fa85610ec3565b61ffff16845261160b6107b2611027565b845161161a9061ffff16611027565b6116249190611e9c565b9150611634826301e28500611e6c565b61163e9084611e00565b9250816107b285600001516116539190611e4a565b61ffff166116619190611e9c565b61166f906301e13380611e6c565b6116799084611e00565b92506000600191505b600c8260ff16116116ea5761169b82866000015161106c565b6116ab9060ff1662015180611e6c565b9050856116b88583611e00565b11156116cc5760ff821660208601526116ea565b6116d68185611e00565b9350816116e281611ed0565b925050611682565b600191505b6117018560200151866000015161106c565b60ff168260ff1611611750578561171b8562015180611e00565b111561172f5760ff82166040860152611750565b61173c6201518085611e00565b93508161174881611ed0565b9250506116ef565b61175986610c63565b60ff16606086015261176a86611188565b60ff16608086015261177b86610cf7565b60ff1660a086015261178c86610c8d565b60ff1660c08601525092949350505050565b6000806000806117c7868660419081029190910160208101516040820151919092015160ff1692565b6040805160008152602081018083528c905260ff8516918101919091526060810183905260808101829052929550909350915060019060a0016020604051602081039080840390855afa158015611822573d6000803e3d6000fd5b5050604051601f19015198975050505050505050565b60006118448284611e9c565b9392505050565b60006118448284611e00565b60006118448284611e6c565b604051806101800160405280600c906020820280368337509192915050565b80356001600160a01b038116811461189957600080fd5b919050565b600080600080600080600060e0888a0312156118b957600080fd5b6118c288611882565b96506020880135955060408801359450606088013593506118e560808901611882565b92506118f360a08901611882565b915060c0880135905092959891949750929550565b803560ff8116811461189957600080fd5b600080600080600080600060e0888a03121561193457600080fd5b61193d88611882565b965061194b60208901611882565b955061195960408901611882565b94506060880135935061196e60808901611908565b925061197c60a08901611908565b915061198a60c08901611908565b905092959891949750929550565b634e487b7160e01b600052604160045260246000fd5b600080600080600080600060e0888a0312156119c957600080fd5b6119d288611882565b96506020880135955060408801359450606088013593506119f560808901611882565b9250611a0360a08901611882565b915060c088013567ffffffffffffffff80821115611a2057600080fd5b818a0191508a601f830112611a3457600080fd5b813581811115611a4657611a46611998565b604051601f8201601f19908116603f01168101908382118183101715611a6e57611a6e611998565b816040528281528d6020848701011115611a8757600080fd5b82602086016020830137600060208483010152809550505050505092959891949750929550565b600060208284031215611ac057600080fd5b5035919050565b803561ffff8116811461189957600080fd5b600080600080600060a08688031215611af157600080fd5b611afa86611ac7565b9450611b0860208701611908565b9350611b1660408701611908565b9250611b2460608701611908565b9150611b3260808701611908565b90509295509295909350565b60008060008060808587031215611b5457600080fd5b611b5d85611ac7565b9350611b6b60208601611908565b9250611b7960408601611908565b9150611b8760608601611908565b905092959194509250565b600080600060608486031215611ba757600080fd5b611bb084611ac7565b9250611bbe60208501611908565b9150611bcc60408501611908565b90509250925092565b60008060008060008060c08789031215611bee57600080fd5b611bf787611ac7565b9550611c0560208801611908565b9450611c1360408801611908565b9350611c2160608801611908565b9250611c2f60808801611908565b9150611c3d60a08801611908565b90509295509295509295565b600060208284031215611c5b57600080fd5b61184482611ac7565b60008060408385031215611c7757600080fd5b611c8083611908565b9150611c8e60208401611ac7565b90509250929050565b600060208284031215611ca957600080fd5b61184482611882565b634e487b7160e01b600052601160045260246000fd5b600060018201611cda57611cda611cb2565b5060010190565b60028110611cff57634e487b7160e01b600052602160045260246000fd5b9052565b6001600160a01b03841681526020810183905260806040820181905260009082015260a08101610cef6060830184611ce1565b600060208284031215611d4857600080fd5b8151801515811461184457600080fd5b60018060a01b038516815260006020858184015260806040840152845180608085015260005b81811015611d9a5786810183015185820160a001528201611d7e565b50600060a0828601015260a0601f19601f83011685010192505050610cbd6060830184611ce1565b634e487b7160e01b600052601260045260246000fd5b600082611de757611de7611dc2565b500490565b600082611dfb57611dfb611dc2565b500690565b80820180821115610c8757610c87611cb2565b600061ffff808316818103611e2a57611e2a611cb2565b6001019392505050565b634e487b7160e01b600052603260045260246000fd5b61ffff828116828216039080821115611e6557611e65611cb2565b5092915050565b8082028115828204841417610c8757610c87611cb2565b60ff8281168282160390811115610c8757610c87611cb2565b81810381811115610c8757610c87611cb2565b600061ffff80841680611ec457611ec4611dc2565b92169190910692915050565b600060ff821660ff8103611ee657611ee6611cb2565b6001019291505056fea2646970667358221220864c4e43185750a2981d5bd9146ce2357ece27967f486f4f7b0a7ed1e60f011a64736f6c63430008110033",
			"opcodes": "PUSH1 0x80 PUSH1 0x40 MSTORE CALLVALUE DUP1 ISZERO PUSH2 0x10 JUMPI PUSH1 0x0 DUP1 REVERT JUMPDEST POP PUSH1 0x40 MLOAD PUSH2 0x1FB8 CODESIZE SUB DUP1 PUSH2 0x1FB8 DUP4 CODECOPY DUP2 ADD PUSH1 0x40 DUP2 SWAP1 MSTORE PUSH2 0x2F SWAP2 PUSH2 0x54 JUMP JUMPDEST PUSH1 0x2 DUP1 SLOAD PUSH1 0x1 PUSH1 0x1 PUSH1 0xA0 SHL SUB NOT AND PUSH1 0x1 PUSH1 0x1 PUSH1 0xA0 SHL SUB SWAP3 SWAP1 SWAP3 AND SWAP2 SWAP1 SWAP2 OR SWAP1 SSTORE PUSH2 0x84 JUMP JUMPDEST PUSH1 0x0 PUSH1 0x20 DUP3 DUP5 SUB SLT ISZERO PUSH2 0x66 JUMPI PUSH1 0x0 DUP1 REVERT JUMPDEST DUP2 MLOAD PUSH1 0x1 PUSH1 0x1 PUSH1 0xA0 SHL SUB DUP2 AND DUP2 EQ PUSH2 0x7D JUMPI PUSH1 0x0 DUP1 REVERT JUMPDEST SWAP4 SWAP3 POP POP POP JUMP JUMPDEST PUSH2 0x1F25 DUP1 PUSH2 0x93 PUSH1 0x0 CODECOPY PUSH1 0x0 RETURN INVALID PUSH1 0x80 PUSH1 0x40 MSTORE CALLVALUE DUP1 ISZERO PUSH2 0x10 JUMPI PUSH1 0x0 DUP1 REVERT JUMPDEST POP PUSH1 0x4 CALLDATASIZE LT PUSH2 0x12C JUMPI PUSH1 0x0 CALLDATALOAD PUSH1 0xE0 SHR DUP1 PUSH4 0x9054BDEC GT PUSH2 0xAD JUMPI DUP1 PUSH4 0xB1999937 GT PUSH2 0x71 JUMPI DUP1 PUSH4 0xB1999937 EQ PUSH2 0x28E JUMPI DUP1 PUSH4 0xB238AD0E EQ PUSH2 0x2A1 JUMPI DUP1 PUSH4 0xBB1D3029 EQ PUSH2 0x2B4 JUMPI DUP1 PUSH4 0xC64E2D8D EQ PUSH2 0x2C7 JUMPI DUP1 PUSH4 0xFA93F883 EQ PUSH2 0x378 JUMPI PUSH1 0x0 DUP1 REVERT JUMPDEST DUP1 PUSH4 0x9054BDEC EQ PUSH2 0x216 JUMPI DUP1 PUSH4 0x92D66313 EQ PUSH2 0x229 JUMPI DUP1 PUSH4 0xA324AD24 EQ PUSH2 0x24F JUMPI DUP1 PUSH4 0xA6F0E577 EQ PUSH2 0x262 JUMPI DUP1 PUSH4 0xAFFED0E0 EQ PUSH2 0x285 JUMPI PUSH1 0x0 DUP1 REVERT JUMPDEST DUP1 PUSH4 0x62BA9687 GT PUSH2 0xF4 JUMPI DUP1 PUSH4 0x62BA9687 EQ PUSH2 0x1B7 JUMPI DUP1 PUSH4 0x65C72840 EQ PUSH2 0x1CA JUMPI DUP1 PUSH4 0x7F791833 EQ PUSH2 0x1DD JUMPI DUP1 PUSH4 0x8AA001FC EQ PUSH2 0x1F0 JUMPI DUP1 PUSH4 0x8C8D98A0 EQ PUSH2 0x203 JUMPI PUSH1 0x0 DUP1 REVERT JUMPDEST DUP1 PUSH4 0x2EF0BB9 EQ PUSH2 0x131 JUMPI DUP1 PUSH4 0x1AA2F1B6 EQ PUSH2 0x157 JUMPI DUP1 PUSH4 0x281D2C37 EQ PUSH2 0x16C JUMPI DUP1 PUSH4 0x3E239E1A EQ PUSH2 0x17F JUMPI DUP1 PUSH4 0x4AC1AD78 EQ PUSH2 0x1A4 JUMPI JUMPDEST PUSH1 0x0 DUP1 REVERT JUMPDEST PUSH2 0x144 PUSH2 0x13F CALLDATASIZE PUSH1 0x4 PUSH2 0x189E JUMP JUMPDEST PUSH2 0x38B JUMP JUMPDEST PUSH1 0x40 MLOAD SWAP1 DUP2 MSTORE PUSH1 0x20 ADD JUMPDEST PUSH1 0x40 MLOAD DUP1 SWAP2 SUB SWAP1 RETURN JUMPDEST PUSH2 0x16A PUSH2 0x165 CALLDATASIZE PUSH1 0x4 PUSH2 0x1919 JUMP JUMPDEST PUSH2 0x416 JUMP JUMPDEST STOP JUMPDEST PUSH2 0x16A PUSH2 0x17A CALLDATASIZE PUSH1 0x4 PUSH2 0x19AE JUMP JUMPDEST PUSH2 0x6E8 JUMP JUMPDEST PUSH2 0x192 PUSH2 0x18D CALLDATASIZE PUSH1 0x4 PUSH2 0x1AAE JUMP JUMPDEST PUSH2 0xC63 JUMP JUMPDEST PUSH1 0x40 MLOAD PUSH1 0xFF SWAP1 SWAP2 AND DUP2 MSTORE PUSH1 0x20 ADD PUSH2 0x14E JUMP JUMPDEST PUSH2 0x192 PUSH2 0x1B2 CALLDATASIZE PUSH1 0x4 PUSH2 0x1AAE JUMP JUMPDEST PUSH2 0xC8D JUMP JUMPDEST PUSH2 0x144 PUSH2 0x1C5 CALLDATASIZE PUSH1 0x4 PUSH2 0x1AD9 JUMP JUMPDEST PUSH2 0xCA9 JUMP JUMPDEST PUSH2 0x192 PUSH2 0x1D8 CALLDATASIZE PUSH1 0x4 PUSH2 0x1AAE JUMP JUMPDEST PUSH2 0xCC6 JUMP JUMPDEST PUSH2 0x144 PUSH2 0x1EB CALLDATASIZE PUSH1 0x4 PUSH2 0x1B3E JUMP JUMPDEST PUSH2 0xCDB JUMP JUMPDEST PUSH2 0x192 PUSH2 0x1FE CALLDATASIZE PUSH1 0x4 PUSH2 0x1AAE JUMP JUMPDEST PUSH2 0xCF7 JUMP JUMPDEST PUSH2 0x144 PUSH2 0x211 CALLDATASIZE PUSH1 0x4 PUSH2 0x1B92 JUMP JUMPDEST PUSH2 0xD04 JUMP JUMPDEST PUSH2 0x144 PUSH2 0x224 CALLDATASIZE PUSH1 0x4 PUSH2 0x1BD5 JUMP JUMPDEST PUSH2 0xD12 JUMP JUMPDEST PUSH2 0x23C PUSH2 0x237 CALLDATASIZE PUSH1 0x4 PUSH2 0x1AAE JUMP JUMPDEST PUSH2 0xEC3 JUMP JUMPDEST PUSH1 0x40 MLOAD PUSH2 0xFFFF SWAP1 SWAP2 AND DUP2 MSTORE PUSH1 0x20 ADD PUSH2 0x14E JUMP JUMPDEST PUSH2 0x192 PUSH2 0x25D CALLDATASIZE PUSH1 0x4 PUSH2 0x1AAE JUMP JUMPDEST PUSH2 0xFB3 JUMP JUMPDEST PUSH2 0x275 PUSH2 0x270 CALLDATASIZE PUSH1 0x4 PUSH2 0x1C49 JUMP JUMPDEST PUSH2 0xFC8 JUMP JUMPDEST PUSH1 0x40 MLOAD SWAP1 ISZERO ISZERO DUP2 MSTORE PUSH1 0x20 ADD PUSH2 0x14E JUMP JUMPDEST PUSH2 0x144 PUSH1 0x1 SLOAD DUP2 JUMP JUMPDEST PUSH2 0x144 PUSH2 0x29C CALLDATASIZE PUSH1 0x4 PUSH2 0x1AAE JUMP JUMPDEST PUSH2 0x1027 JUMP JUMPDEST PUSH2 0x192 PUSH2 0x2AF CALLDATASIZE PUSH1 0x4 PUSH2 0x1C64 JUMP JUMPDEST PUSH2 0x106C JUMP JUMPDEST PUSH2 0x16A PUSH2 0x2C2 CALLDATASIZE PUSH1 0x4 PUSH2 0x1C97 JUMP JUMPDEST PUSH2 0x1133 JUMP JUMPDEST PUSH2 0x32D PUSH2 0x2D5 CALLDATASIZE PUSH1 0x4 PUSH2 0x1C97 JUMP JUMPDEST PUSH1 0x0 PUSH1 0x20 DUP2 SWAP1 MSTORE SWAP1 DUP2 MSTORE PUSH1 0x40 SWAP1 KECCAK256 DUP1 SLOAD PUSH1 0x1 DUP3 ADD SLOAD PUSH1 0x2 DUP4 ADD SLOAD PUSH1 0x3 SWAP1 SWAP4 ADD SLOAD PUSH1 0x1 PUSH1 0x1 PUSH1 0xA0 SHL SUB SWAP3 DUP4 AND SWAP4 SWAP2 SWAP1 SWAP3 AND SWAP2 PUSH1 0xFF DUP1 DUP3 AND SWAP2 PUSH2 0x100 DUP2 DIV DUP3 AND SWAP2 PUSH3 0x10000 DUP3 DIV AND SWAP1 PUSH4 0xFFFFFFFF PUSH4 0x1000000 SWAP1 SWAP2 DIV AND DUP8 JUMP JUMPDEST PUSH1 0x40 DUP1 MLOAD PUSH1 0x1 PUSH1 0x1 PUSH1 0xA0 SHL SUB SWAP9 DUP10 AND DUP2 MSTORE SWAP8 SWAP1 SWAP7 AND PUSH1 0x20 DUP9 ADD MSTORE SWAP5 DUP7 ADD SWAP4 SWAP1 SWAP4 MSTORE PUSH1 0xFF SWAP2 DUP3 AND PUSH1 0x60 DUP7 ADD MSTORE DUP2 AND PUSH1 0x80 DUP6 ADD MSTORE AND PUSH1 0xA0 DUP4 ADD MSTORE PUSH4 0xFFFFFFFF AND PUSH1 0xC0 DUP3 ADD MSTORE PUSH1 0xE0 ADD PUSH2 0x14E JUMP JUMPDEST PUSH2 0x192 PUSH2 0x386 CALLDATASIZE PUSH1 0x4 PUSH2 0x1AAE JUMP JUMPDEST PUSH2 0x1188 JUMP JUMPDEST PUSH1 0x40 DUP1 MLOAD PUSH1 0x19 PUSH1 0xF8 SHL PUSH1 0x20 DUP1 DUP4 ADD SWAP2 SWAP1 SWAP2 MSTORE PUSH1 0x0 PUSH1 0x21 DUP4 ADD MSTORE PUSH12 0xFFFFFFFFFFFFFFFFFFFFFFFF NOT ADDRESS PUSH1 0x60 SWAP1 DUP2 SHL DUP3 AND PUSH1 0x22 DUP6 ADD MSTORE SWAP11 DUP12 SHL DUP2 AND PUSH1 0x36 DUP5 ADD MSTORE PUSH1 0x4A DUP4 ADD SWAP10 SWAP1 SWAP10 MSTORE PUSH1 0x6A DUP3 ADD SWAP8 SWAP1 SWAP8 MSTORE PUSH1 0x8A DUP2 ADD SWAP6 SWAP1 SWAP6 MSTORE SWAP3 DUP8 SHL DUP7 AND PUSH1 0xAA DUP6 ADD MSTORE SWAP6 SHL SWAP1 SWAP4 AND PUSH1 0xBE DUP3 ADD MSTORE PUSH1 0xD2 DUP1 DUP3 ADD SWAP5 SWAP1 SWAP5 MSTORE DUP3 MLOAD DUP1 DUP3 SUB SWAP1 SWAP5 ADD DUP5 MSTORE PUSH1 0xF2 ADD SWAP1 SWAP2 MSTORE DUP2 MLOAD SWAP2 ADD KECCAK256 SWAP1 JUMP JUMPDEST PUSH2 0x41E PUSH2 0x1196 JUMP JUMPDEST DUP4 PUSH1 0x0 SUB PUSH2 0x473 JUMPI PUSH1 0x40 MLOAD PUSH3 0x461BCD PUSH1 0xE5 SHL DUP2 MSTORE PUSH1 0x20 PUSH1 0x4 DUP3 ADD MSTORE PUSH1 0x1D PUSH1 0x24 DUP3 ADD MSTORE PUSH32 0x616D6F756E74206D7573742062652067726561746572207468616E2030000000 PUSH1 0x44 DUP3 ADD MSTORE PUSH1 0x64 ADD JUMPDEST PUSH1 0x40 MLOAD DUP1 SWAP2 SUB SWAP1 REVERT JUMPDEST PUSH1 0x1D DUP4 PUSH1 0xFF AND LT PUSH2 0x4C6 JUMPI PUSH1 0x40 MLOAD PUSH3 0x461BCD PUSH1 0xE5 SHL DUP2 MSTORE PUSH1 0x20 PUSH1 0x4 DUP3 ADD DUP2 SWAP1 MSTORE PUSH1 0x24 DUP3 ADD MSTORE PUSH32 0x7472616E73666572446179206D757374206265206C657373207468616E203239 PUSH1 0x44 DUP3 ADD MSTORE PUSH1 0x64 ADD PUSH2 0x46A JUMP JUMPDEST PUSH1 0x0 DUP3 PUSH1 0xFF AND GT PUSH2 0x52A JUMPI PUSH1 0x40 MLOAD PUSH3 0x461BCD PUSH1 0xE5 SHL DUP2 MSTORE PUSH1 0x20 PUSH1 0x4 DUP3 ADD MSTORE PUSH1 0x28 PUSH1 0x24 DUP3 ADD MSTORE PUSH32 0x7472616E73666572486F75725374617274206D75737420626520677265617465 PUSH1 0x44 DUP3 ADD MSTORE PUSH8 0x72207468616E203 PUSH1 0xC4 SHL PUSH1 0x64 DUP3 ADD MSTORE PUSH1 0x84 ADD PUSH2 0x46A JUMP JUMPDEST PUSH1 0x17 DUP2 PUSH1 0xFF AND LT PUSH2 0x589 JUMPI PUSH1 0x40 MLOAD PUSH3 0x461BCD PUSH1 0xE5 SHL DUP2 MSTORE PUSH1 0x20 PUSH1 0x4 DUP3 ADD MSTORE PUSH1 0x24 DUP1 DUP3 ADD MSTORE PUSH32 0x7472616E73666572486F7572456E64206D757374206265206C65737320746861 PUSH1 0x44 DUP3 ADD MSTORE PUSH4 0x6E203233 PUSH1 0xE0 SHL PUSH1 0x64 DUP3 ADD MSTORE PUSH1 0x84 ADD PUSH2 0x46A JUMP JUMPDEST DUP1 PUSH1 0xFF AND DUP3 PUSH1 0xFF AND LT PUSH2 0x5FA JUMPI PUSH1 0x40 MLOAD PUSH3 0x461BCD PUSH1 0xE5 SHL DUP2 MSTORE PUSH1 0x20 PUSH1 0x4 DUP3 ADD MSTORE PUSH1 0x33 PUSH1 0x24 DUP3 ADD MSTORE PUSH32 0x7472616E73666572486F75725374617274206D757374206265206C6573732074 PUSH1 0x44 DUP3 ADD MSTORE PUSH19 0x1A185B881D1C985B9CD9995C921BDD5C915B99 PUSH1 0x6A SHL PUSH1 0x64 DUP3 ADD MSTORE PUSH1 0x84 ADD PUSH2 0x46A JUMP JUMPDEST PUSH1 0x40 DUP1 MLOAD PUSH1 0xE0 DUP2 ADD DUP3 MSTORE PUSH1 0x1 PUSH1 0x1 PUSH1 0xA0 SHL SUB SWAP8 DUP9 AND DUP2 MSTORE SWAP6 DUP8 AND PUSH1 0x20 DUP1 DUP9 ADD SWAP2 DUP3 MSTORE DUP8 DUP4 ADD SWAP7 DUP8 MSTORE PUSH1 0xFF SWAP6 DUP7 AND PUSH1 0x60 DUP10 ADD SWAP1 DUP2 MSTORE SWAP5 DUP7 AND PUSH1 0x80 DUP10 ADD SWAP1 DUP2 MSTORE SWAP4 DUP7 AND PUSH1 0xA0 DUP10 ADD SWAP1 DUP2 MSTORE PUSH1 0x0 PUSH1 0xC0 DUP11 ADD DUP2 DUP2 MSTORE SWAP12 DUP12 AND DUP2 MSTORE SWAP2 DUP3 SWAP1 MSTORE SWAP3 SWAP1 KECCAK256 SWAP7 MLOAD DUP8 SLOAD SWAP1 DUP10 AND PUSH1 0x1 PUSH1 0x1 PUSH1 0xA0 SHL SUB NOT SWAP2 DUP3 AND OR DUP9 SSTORE SWAP1 MLOAD PUSH1 0x1 DUP9 ADD DUP1 SLOAD SWAP2 SWAP1 SWAP10 AND SWAP2 AND OR SWAP1 SWAP7 SSTORE SWAP3 MLOAD PUSH1 0x2 DUP6 ADD SSTORE MLOAD PUSH1 0x3 SWAP1 SWAP4 ADD DUP1 SLOAD SWAP3 MLOAD SWAP5 MLOAD SWAP6 MLOAD PUSH4 0xFFFFFFFF AND PUSH4 0x1000000 MUL PUSH7 0xFFFFFFFF000000 NOT SWAP7 DUP4 AND PUSH3 0x10000 MUL SWAP7 SWAP1 SWAP7 AND PUSH7 0xFFFFFFFFFF0000 NOT SWAP6 DUP4 AND PUSH2 0x100 MUL PUSH2 0xFFFF NOT SWAP1 SWAP5 AND SWAP5 SWAP1 SWAP3 AND SWAP4 SWAP1 SWAP4 OR SWAP2 SWAP1 SWAP2 OR SWAP3 SWAP1 SWAP3 AND SWAP2 SWAP1 SWAP2 OR SWAP2 SWAP1 SWAP2 OR SWAP1 SSTORE JUMP JUMPDEST PUSH1 0x1 PUSH1 0x1 PUSH1 0xA0 SHL SUB DUP8 AND PUSH2 0x753 JUMPI PUSH1 0x40 MLOAD PUSH3 0x461BCD PUSH1 0xE5 SHL DUP2 MSTORE PUSH1 0x20 PUSH1 0x4 DUP3 ADD MSTORE PUSH1 0x2C PUSH1 0x24 DUP3 ADD MSTORE PUSH32 0x41206E6F6E2D7A65726F2072656369657665722061646472657373206D757374 PUSH1 0x44 DUP3 ADD MSTORE PUSH12 0x81899481C1C9BDD9A591959 PUSH1 0xA2 SHL PUSH1 0x64 DUP3 ADD MSTORE PUSH1 0x84 ADD PUSH2 0x46A JUMP JUMPDEST PUSH1 0x1 PUSH1 0x1 PUSH1 0xA0 SHL SUB DUP8 DUP2 AND PUSH1 0x0 SWAP1 DUP2 MSTORE PUSH1 0x20 DUP2 DUP2 MSTORE PUSH1 0x40 DUP1 DUP4 KECCAK256 DUP2 MLOAD PUSH1 0xE0 DUP2 ADD DUP4 MSTORE DUP2 SLOAD DUP7 AND DUP2 MSTORE PUSH1 0x1 DUP3 ADD SLOAD SWAP1 SWAP6 AND SWAP3 DUP6 ADD SWAP3 SWAP1 SWAP3 MSTORE PUSH1 0x2 DUP3 ADD SLOAD SWAP1 DUP5 ADD DUP2 SWAP1 MSTORE PUSH1 0x3 SWAP1 SWAP2 ADD SLOAD PUSH1 0xFF DUP1 DUP3 AND PUSH1 0x60 DUP7 ADD MSTORE PUSH2 0x100 DUP3 DIV DUP2 AND PUSH1 0x80 DUP7 ADD MSTORE PUSH3 0x10000 DUP3 DIV AND PUSH1 0xA0 DUP6 ADD MSTORE PUSH4 0x1000000 SWAP1 DIV PUSH4 0xFFFFFFFF AND PUSH1 0xC0 DUP5 ADD MSTORE SWAP1 SUB PUSH2 0x843 JUMPI PUSH1 0x40 MLOAD PUSH3 0x461BCD PUSH1 0xE5 SHL DUP2 MSTORE PUSH1 0x20 PUSH1 0x4 DUP3 ADD MSTORE PUSH1 0x3A PUSH1 0x24 DUP3 ADD MSTORE PUSH32 0x4120726563757272696E67207472616E7366657220686173206E6F7420626565 PUSH1 0x44 DUP3 ADD MSTORE PUSH32 0x6E206372656174656420666F7220746869732061646472657373000000000000 PUSH1 0x64 DUP3 ADD MSTORE PUSH1 0x84 ADD PUSH2 0x46A JUMP JUMPDEST PUSH2 0x856 DUP2 PUSH1 0xC0 ADD MLOAD PUSH4 0xFFFFFFFF AND PUSH2 0x11CF JUMP JUMPDEST PUSH2 0x8B8 JUMPI PUSH1 0x40 MLOAD PUSH3 0x461BCD PUSH1 0xE5 SHL DUP2 MSTORE PUSH1 0x20 PUSH1 0x4 DUP3 ADD MSTORE PUSH1 0x2D PUSH1 0x24 DUP3 ADD MSTORE PUSH32 0x5472616E736665722068617320616C7265616479206265656E20657865637574 PUSH1 0x44 DUP3 ADD MSTORE PUSH13 0xCAC840E8D0D2E640DADEDCE8D PUSH1 0x9B SHL PUSH1 0x64 DUP3 ADD MSTORE PUSH1 0x84 ADD PUSH2 0x46A JUMP JUMPDEST PUSH2 0x8CF DUP2 PUSH1 0x60 ADD MLOAD DUP3 PUSH1 0x80 ADD MLOAD DUP4 PUSH1 0xA0 ADD MLOAD PUSH2 0x1211 JUMP JUMPDEST PUSH2 0x92F JUMPI PUSH1 0x40 MLOAD PUSH3 0x461BCD PUSH1 0xE5 SHL DUP2 MSTORE PUSH1 0x20 PUSH1 0x4 DUP3 ADD MSTORE PUSH1 0x2B PUSH1 0x24 DUP3 ADD MSTORE PUSH32 0x5472616E736665722072657175657374206E6F742077697468696E2076616C69 PUSH1 0x44 DUP3 ADD MSTORE PUSH11 0x642074696D656672616D65 PUSH1 0xA8 SHL PUSH1 0x64 DUP3 ADD MSTORE PUSH1 0x84 ADD PUSH2 0x46A JUMP JUMPDEST PUSH1 0x0 GAS SWAP1 POP PUSH1 0x0 PUSH2 0x947 DUP11 DUP11 DUP11 DUP11 DUP11 DUP11 PUSH1 0x1 SLOAD PUSH2 0x38B JUMP JUMPDEST SWAP1 POP PUSH2 0x958 DUP2 DUP6 DUP6 PUSH1 0x0 ADD MLOAD PUSH2 0x125E JUMP JUMPDEST PUSH2 0x9A4 JUMPI PUSH1 0x40 MLOAD PUSH3 0x461BCD PUSH1 0xE5 SHL DUP2 MSTORE PUSH1 0x20 PUSH1 0x4 DUP3 ADD MSTORE PUSH1 0x1A PUSH1 0x24 DUP3 ADD MSTORE PUSH32 0x496E76616C6964207369676E61747572652070726F7669646564000000000000 PUSH1 0x44 DUP3 ADD MSTORE PUSH1 0x64 ADD PUSH2 0x46A JUMP JUMPDEST PUSH1 0x1 DUP1 SLOAD SWAP1 PUSH1 0x0 PUSH2 0x9B4 DUP4 PUSH2 0x1CC8 JUMP JUMPDEST SWAP2 SWAP1 POP SSTORE POP DUP9 GAS LT ISZERO PUSH2 0xA1C JUMPI PUSH1 0x40 MLOAD PUSH3 0x461BCD PUSH1 0xE5 SHL DUP2 MSTORE PUSH1 0x20 PUSH1 0x4 DUP3 ADD MSTORE PUSH1 0x2A PUSH1 0x24 DUP3 ADD MSTORE PUSH32 0x4E6F7420656E6F7567682067617320746F206578656375746520736166652074 PUSH1 0x44 DUP3 ADD MSTORE PUSH10 0x3930B739B0B1BA34B7B7 PUSH1 0xB1 SHL PUSH1 0x64 DUP3 ADD MSTORE PUSH1 0x84 ADD PUSH2 0x46A JUMP JUMPDEST PUSH1 0x1 PUSH1 0x1 PUSH1 0xA0 SHL SUB DUP11 DUP2 AND PUSH1 0x0 SWAP1 DUP2 MSTORE PUSH1 0x20 DUP2 DUP2 MSTORE PUSH1 0x40 SWAP1 SWAP2 KECCAK256 PUSH1 0x3 ADD DUP1 SLOAD PUSH7 0xFFFFFFFF000000 NOT AND PUSH4 0x1000000 TIMESTAMP PUSH4 0xFFFFFFFF AND MUL OR SWAP1 SSTORE DUP5 ADD MLOAD AND PUSH2 0xB2A JUMPI PUSH1 0x2 SLOAD PUSH1 0x40 DUP1 DUP6 ADD MLOAD SWAP1 MLOAD PUSH4 0x468721A7 PUSH1 0xE0 SHL DUP2 MSTORE PUSH1 0x1 PUSH1 0x1 PUSH1 0xA0 SHL SUB SWAP1 SWAP3 AND SWAP2 PUSH4 0x468721A7 SWAP2 PUSH2 0xA96 SWAP2 DUP15 SWAP2 SWAP1 PUSH1 0x0 SWAP1 PUSH1 0x4 ADD PUSH2 0x1D03 JUMP JUMPDEST PUSH1 0x20 PUSH1 0x40 MLOAD DUP1 DUP4 SUB DUP2 PUSH1 0x0 DUP8 GAS CALL ISZERO DUP1 ISZERO PUSH2 0xAB5 JUMPI RETURNDATASIZE PUSH1 0x0 DUP1 RETURNDATACOPY RETURNDATASIZE PUSH1 0x0 REVERT JUMPDEST POP POP POP POP PUSH1 0x40 MLOAD RETURNDATASIZE PUSH1 0x1F NOT PUSH1 0x1F DUP3 ADD AND DUP3 ADD DUP1 PUSH1 0x40 MSTORE POP DUP2 ADD SWAP1 PUSH2 0xAD9 SWAP2 SWAP1 PUSH2 0x1D36 JUMP JUMPDEST PUSH2 0xB25 JUMPI PUSH1 0x40 MLOAD PUSH3 0x461BCD PUSH1 0xE5 SHL DUP2 MSTORE PUSH1 0x20 PUSH1 0x4 DUP3 ADD DUP2 SWAP1 MSTORE PUSH1 0x24 DUP3 ADD MSTORE PUSH32 0x436F756C64206E6F742065786563757465204574686572207472616E73666572 PUSH1 0x44 DUP3 ADD MSTORE PUSH1 0x64 ADD PUSH2 0x46A JUMP JUMPDEST PUSH2 0xC44 JUMP JUMPDEST PUSH1 0x40 DUP1 DUP5 ADD MLOAD SWAP1 MLOAD PUSH1 0x1 PUSH1 0x1 PUSH1 0xA0 SHL SUB DUP13 AND PUSH1 0x24 DUP3 ADD MSTORE PUSH1 0x44 DUP2 ADD SWAP2 SWAP1 SWAP2 MSTORE PUSH1 0x0 SWAP1 PUSH1 0x64 ADD PUSH1 0x40 DUP1 MLOAD PUSH1 0x1F NOT DUP2 DUP5 SUB ADD DUP2 MSTORE SWAP2 DUP2 MSTORE PUSH1 0x20 DUP1 DUP4 ADD DUP1 MLOAD PUSH1 0x1 PUSH1 0x1 PUSH1 0xE0 SHL SUB AND PUSH4 0xA9059CBB PUSH1 0xE0 SHL OR SWAP1 MSTORE PUSH1 0x2 SLOAD SWAP1 DUP8 ADD MLOAD SWAP2 MLOAD PUSH4 0x468721A7 PUSH1 0xE0 SHL DUP2 MSTORE SWAP3 SWAP4 POP PUSH1 0x1 PUSH1 0x1 PUSH1 0xA0 SHL SUB AND SWAP2 PUSH4 0x468721A7 SWAP2 PUSH2 0xBB3 SWAP2 PUSH1 0x0 SWAP1 DUP7 SWAP1 DUP3 SWAP1 PUSH1 0x4 ADD PUSH2 0x1D58 JUMP JUMPDEST PUSH1 0x20 PUSH1 0x40 MLOAD DUP1 DUP4 SUB DUP2 PUSH1 0x0 DUP8 GAS CALL ISZERO DUP1 ISZERO PUSH2 0xBD2 JUMPI RETURNDATASIZE PUSH1 0x0 DUP1 RETURNDATACOPY RETURNDATASIZE PUSH1 0x0 REVERT JUMPDEST POP POP POP POP PUSH1 0x40 MLOAD RETURNDATASIZE PUSH1 0x1F NOT PUSH1 0x1F DUP3 ADD AND DUP3 ADD DUP1 PUSH1 0x40 MSTORE POP DUP2 ADD SWAP1 PUSH2 0xBF6 SWAP2 SWAP1 PUSH2 0x1D36 JUMP JUMPDEST PUSH2 0xC42 JUMPI PUSH1 0x40 MLOAD PUSH3 0x461BCD PUSH1 0xE5 SHL DUP2 MSTORE PUSH1 0x20 PUSH1 0x4 DUP3 ADD DUP2 SWAP1 MSTORE PUSH1 0x24 DUP3 ADD MSTORE PUSH32 0x436F756C64206E6F74206578656375746520746F6B656E207472616E73666572 PUSH1 0x44 DUP3 ADD MSTORE PUSH1 0x64 ADD PUSH2 0x46A JUMP JUMPDEST POP JUMPDEST DUP7 ISZERO PUSH2 0xC57 JUMPI PUSH2 0xC57 DUP3 DUP10 DUP10 DUP10 DUP10 PUSH2 0x12F8 JUMP JUMPDEST POP POP POP POP POP POP POP POP POP POP JUMP JUMPDEST PUSH1 0x0 PUSH1 0x18 PUSH1 0x3C PUSH2 0xC73 DUP2 DUP6 PUSH2 0x1DD8 JUMP JUMPDEST PUSH2 0xC7D SWAP2 SWAP1 PUSH2 0x1DD8 JUMP JUMPDEST PUSH2 0xC87 SWAP2 SWAP1 PUSH2 0x1DEC JUMP JUMPDEST SWAP3 SWAP2 POP POP JUMP JUMPDEST PUSH1 0x0 PUSH1 0x7 PUSH2 0xC9E PUSH3 0x15180 DUP5 PUSH2 0x1DD8 JUMP JUMPDEST PUSH2 0xC7D SWAP1 PUSH1 0x4 PUSH2 0x1E00 JUMP JUMPDEST PUSH1 0x0 PUSH2 0xCBA DUP7 DUP7 DUP7 DUP7 DUP7 PUSH1 0x0 PUSH2 0xD12 JUMP JUMPDEST SWAP1 POP JUMPDEST SWAP6 SWAP5 POP POP POP POP POP JUMP JUMPDEST PUSH1 0x0 PUSH2 0xCD1 DUP3 PUSH2 0x15B6 JUMP JUMPDEST PUSH1 0x40 ADD MLOAD SWAP3 SWAP2 POP POP JUMP JUMPDEST PUSH1 0x0 PUSH2 0xCEC DUP6 DUP6 DUP6 DUP6 PUSH1 0x0 DUP1 PUSH2 0xD12 JUMP JUMPDEST SWAP1 POP JUMPDEST SWAP5 SWAP4 POP POP POP POP JUMP JUMPDEST PUSH1 0x0 PUSH2 0xC87 PUSH1 0x3C DUP4 PUSH2 0x1DEC JUMP JUMPDEST PUSH1 0x0 PUSH2 0xCEF DUP5 DUP5 DUP5 PUSH1 0x0 DUP1 PUSH1 0x0 JUMPDEST PUSH1 0x0 PUSH2 0x7B2 JUMPDEST DUP8 PUSH2 0xFFFF AND DUP2 PUSH2 0xFFFF AND LT ISZERO PUSH2 0xD6E JUMPI PUSH2 0xD31 DUP2 PUSH2 0xFC8 JUMP JUMPDEST ISZERO PUSH2 0xD4B JUMPI PUSH2 0xD44 PUSH4 0x1E28500 DUP4 PUSH2 0x1E00 JUMP JUMPDEST SWAP2 POP PUSH2 0xD5C JUMP JUMPDEST PUSH2 0xD59 PUSH4 0x1E13380 DUP4 PUSH2 0x1E00 JUMP JUMPDEST SWAP2 POP JUMPDEST DUP1 PUSH2 0xD66 DUP2 PUSH2 0x1E13 JUMP JUMPDEST SWAP2 POP POP PUSH2 0xD18 JUMP JUMPDEST PUSH2 0xD76 PUSH2 0x1863 JUMP JUMPDEST PUSH1 0x1F DUP2 MSTORE PUSH2 0xD83 DUP10 PUSH2 0xFC8 JUMP JUMPDEST ISZERO PUSH2 0xD94 JUMPI PUSH1 0x1D PUSH1 0x20 DUP3 ADD MSTORE PUSH2 0xD9C JUMP JUMPDEST PUSH1 0x1C PUSH1 0x20 DUP3 ADD MSTORE JUMPDEST PUSH1 0x1F PUSH1 0x40 DUP3 ADD DUP2 SWAP1 MSTORE PUSH1 0x1E PUSH1 0x60 DUP4 ADD DUP2 SWAP1 MSTORE PUSH1 0x80 DUP4 ADD DUP3 SWAP1 MSTORE PUSH1 0xA0 DUP4 ADD DUP2 SWAP1 MSTORE PUSH1 0xC0 DUP4 ADD DUP3 SWAP1 MSTORE PUSH1 0xE0 DUP4 ADD DUP3 SWAP1 MSTORE PUSH2 0x100 DUP4 ADD DUP2 SWAP1 MSTORE PUSH2 0x120 DUP4 ADD DUP3 SWAP1 MSTORE PUSH2 0x140 DUP4 ADD MSTORE PUSH2 0x160 DUP3 ADD MSTORE PUSH1 0x1 SWAP2 POP JUMPDEST DUP8 PUSH1 0xFF AND DUP3 PUSH2 0xFFFF AND LT ISZERO PUSH2 0xE4D JUMPI DUP1 PUSH2 0xE06 PUSH1 0x1 DUP5 PUSH2 0x1E4A JUMP JUMPDEST PUSH2 0xFFFF AND PUSH1 0xC DUP2 LT PUSH2 0xE1A JUMPI PUSH2 0xE1A PUSH2 0x1E34 JUMP JUMPDEST PUSH1 0x20 MUL ADD MLOAD PUSH2 0xE2F SWAP1 PUSH1 0xFF AND PUSH3 0x15180 PUSH2 0x1E6C JUMP JUMPDEST PUSH2 0xE39 SWAP1 DUP5 PUSH2 0x1E00 JUMP JUMPDEST SWAP3 POP DUP2 PUSH2 0xE45 DUP2 PUSH2 0x1E13 JUMP JUMPDEST SWAP3 POP POP PUSH2 0xDEB JUMP JUMPDEST PUSH2 0xE58 PUSH1 0x1 DUP9 PUSH2 0x1E83 JUMP JUMPDEST PUSH2 0xE68 SWAP1 PUSH1 0xFF AND PUSH3 0x15180 PUSH2 0x1E6C JUMP JUMPDEST PUSH2 0xE72 SWAP1 DUP5 PUSH2 0x1E00 JUMP JUMPDEST SWAP3 POP PUSH2 0xE83 PUSH1 0xFF DUP8 AND PUSH2 0xE10 PUSH2 0x1E6C JUMP JUMPDEST PUSH2 0xE8D SWAP1 DUP5 PUSH2 0x1E00 JUMP JUMPDEST SWAP3 POP PUSH2 0xE9D PUSH1 0xFF DUP7 AND PUSH1 0x3C PUSH2 0x1E6C JUMP JUMPDEST PUSH2 0xEA7 SWAP1 DUP5 PUSH2 0x1E00 JUMP JUMPDEST SWAP3 POP PUSH2 0xEB6 PUSH1 0xFF DUP6 AND DUP5 PUSH2 0x1E00 JUMP JUMPDEST SWAP10 SWAP9 POP POP POP POP POP POP POP POP POP JUMP JUMPDEST PUSH1 0x0 DUP1 DUP1 DUP1 PUSH2 0xED6 PUSH4 0x1E13380 DUP7 PUSH2 0x1DD8 JUMP JUMPDEST PUSH2 0xEE2 SWAP1 PUSH2 0x7B2 PUSH2 0x1E00 JUMP JUMPDEST SWAP2 POP PUSH2 0xEEF PUSH2 0x7B2 PUSH2 0x1027 JUMP JUMPDEST PUSH2 0xEFC DUP4 PUSH2 0xFFFF AND PUSH2 0x1027 JUMP JUMPDEST PUSH2 0xF06 SWAP2 SWAP1 PUSH2 0x1E9C JUMP JUMPDEST SWAP1 POP PUSH2 0xF16 DUP2 PUSH4 0x1E28500 PUSH2 0x1E6C JUMP JUMPDEST PUSH2 0xF20 SWAP1 DUP5 PUSH2 0x1E00 JUMP JUMPDEST SWAP3 POP DUP1 PUSH2 0xF2F PUSH2 0x7B2 DUP5 PUSH2 0x1E4A JUMP JUMPDEST PUSH2 0xFFFF AND PUSH2 0xF3D SWAP2 SWAP1 PUSH2 0x1E9C JUMP JUMPDEST PUSH2 0xF4B SWAP1 PUSH4 0x1E13380 PUSH2 0x1E6C JUMP JUMPDEST PUSH2 0xF55 SWAP1 DUP5 PUSH2 0x1E00 JUMP JUMPDEST SWAP3 POP JUMPDEST DUP5 DUP4 GT ISZERO PUSH2 0xFAB JUMPI PUSH2 0xF6E PUSH2 0x270 PUSH1 0x1 DUP5 PUSH2 0x1E4A JUMP JUMPDEST ISZERO PUSH2 0xF88 JUMPI PUSH2 0xF81 PUSH4 0x1E28500 DUP5 PUSH2 0x1E9C JUMP JUMPDEST SWAP3 POP PUSH2 0xF99 JUMP JUMPDEST PUSH2 0xF96 PUSH4 0x1E13380 DUP5 PUSH2 0x1E9C JUMP JUMPDEST SWAP3 POP JUMPDEST PUSH2 0xFA4 PUSH1 0x1 DUP4 PUSH2 0x1E4A JUMP JUMPDEST SWAP2 POP PUSH2 0xF58 JUMP JUMPDEST POP SWAP4 SWAP3 POP POP POP JUMP JUMPDEST PUSH1 0x0 PUSH2 0xFBE DUP3 PUSH2 0x15B6 JUMP JUMPDEST PUSH1 0x20 ADD MLOAD SWAP3 SWAP2 POP POP JUMP JUMPDEST PUSH1 0x0 PUSH2 0xFD5 PUSH1 0x4 DUP4 PUSH2 0x1EAF JUMP JUMPDEST PUSH2 0xFFFF AND ISZERO PUSH2 0xFE6 JUMPI POP PUSH1 0x0 SWAP2 SWAP1 POP JUMP JUMPDEST PUSH2 0xFF1 PUSH1 0x64 DUP4 PUSH2 0x1EAF JUMP JUMPDEST PUSH2 0xFFFF AND ISZERO PUSH2 0x1002 JUMPI POP PUSH1 0x1 SWAP2 SWAP1 POP JUMP JUMPDEST PUSH2 0x100E PUSH2 0x190 DUP4 PUSH2 0x1EAF JUMP JUMPDEST PUSH2 0xFFFF AND ISZERO PUSH2 0x101F JUMPI POP PUSH1 0x0 SWAP2 SWAP1 POP JUMP JUMPDEST POP PUSH1 0x1 SWAP2 SWAP1 POP JUMP JUMPDEST PUSH1 0x0 PUSH2 0x1034 PUSH1 0x1 DUP4 PUSH2 0x1E9C JUMP JUMPDEST SWAP2 POP PUSH2 0x1042 PUSH2 0x190 DUP4 PUSH2 0x1DD8 JUMP JUMPDEST PUSH2 0x104D PUSH1 0x64 DUP5 PUSH2 0x1DD8 JUMP JUMPDEST PUSH2 0x1058 PUSH1 0x4 DUP6 PUSH2 0x1DD8 JUMP JUMPDEST PUSH2 0x1062 SWAP2 SWAP1 PUSH2 0x1E9C JUMP JUMPDEST PUSH2 0xC87 SWAP2 SWAP1 PUSH2 0x1E00 JUMP JUMPDEST PUSH1 0x0 DUP3 PUSH1 0xFF AND PUSH1 0x1 EQ DUP1 PUSH2 0x1083 JUMPI POP DUP3 PUSH1 0xFF AND PUSH1 0x3 EQ JUMPDEST DUP1 PUSH2 0x1091 JUMPI POP DUP3 PUSH1 0xFF AND PUSH1 0x5 EQ JUMPDEST DUP1 PUSH2 0x109F JUMPI POP DUP3 PUSH1 0xFF AND PUSH1 0x7 EQ JUMPDEST DUP1 PUSH2 0x10AD JUMPI POP DUP3 PUSH1 0xFF AND PUSH1 0x8 EQ JUMPDEST DUP1 PUSH2 0x10BB JUMPI POP DUP3 PUSH1 0xFF AND PUSH1 0xA EQ JUMPDEST DUP1 PUSH2 0x10C9 JUMPI POP DUP3 PUSH1 0xFF AND PUSH1 0xC EQ JUMPDEST ISZERO PUSH2 0x10D6 JUMPI POP PUSH1 0x1F PUSH2 0xC87 JUMP JUMPDEST DUP3 PUSH1 0xFF AND PUSH1 0x4 EQ DUP1 PUSH2 0x10EB JUMPI POP DUP3 PUSH1 0xFF AND PUSH1 0x6 EQ JUMPDEST DUP1 PUSH2 0x10F9 JUMPI POP DUP3 PUSH1 0xFF AND PUSH1 0x9 EQ JUMPDEST DUP1 PUSH2 0x1107 JUMPI POP DUP3 PUSH1 0xFF AND PUSH1 0xB EQ JUMPDEST ISZERO PUSH2 0x1114 JUMPI POP PUSH1 0x1E PUSH2 0xC87 JUMP JUMPDEST PUSH2 0x111D DUP3 PUSH2 0xFC8 JUMP JUMPDEST ISZERO PUSH2 0x112A JUMPI POP PUSH1 0x1D PUSH2 0xC87 JUMP JUMPDEST POP PUSH1 0x1C SWAP3 SWAP2 POP POP JUMP JUMPDEST PUSH2 0x113B PUSH2 0x1196 JUMP JUMPDEST PUSH1 0x1 PUSH1 0x1 PUSH1 0xA0 SHL SUB AND PUSH1 0x0 SWAP1 DUP2 MSTORE PUSH1 0x20 DUP2 SWAP1 MSTORE PUSH1 0x40 DUP2 KECCAK256 DUP1 SLOAD PUSH1 0x1 PUSH1 0x1 PUSH1 0xA0 SHL SUB NOT SWAP1 DUP2 AND DUP3 SSTORE PUSH1 0x1 DUP3 ADD DUP1 SLOAD SWAP1 SWAP2 AND SWAP1 SSTORE PUSH1 0x2 DUP2 ADD SWAP2 SWAP1 SWAP2 SSTORE PUSH1 0x3 ADD DUP1 SLOAD PUSH7 0xFFFFFFFFFFFFFF NOT AND SWAP1 SSTORE JUMP JUMPDEST PUSH1 0x0 PUSH1 0x3C PUSH2 0xC7D DUP2 DUP5 PUSH2 0x1DD8 JUMP JUMPDEST CALLER ADDRESS EQ PUSH2 0x11CD JUMPI PUSH1 0x40 MLOAD PUSH3 0x461BCD PUSH1 0xE5 SHL DUP2 MSTORE PUSH1 0x20 PUSH1 0x4 DUP3 ADD MSTORE PUSH1 0x5 PUSH1 0x24 DUP3 ADD MSTORE PUSH5 0x4753303331 PUSH1 0xD8 SHL PUSH1 0x44 DUP3 ADD MSTORE PUSH1 0x64 ADD PUSH2 0x46A JUMP JUMPDEST JUMP JUMPDEST PUSH1 0x0 PUSH2 0x11DA DUP3 PUSH2 0xEC3 JUMP JUMPDEST PUSH2 0xFFFF AND PUSH2 0x11E7 TIMESTAMP PUSH2 0xEC3 JUMP JUMPDEST PUSH2 0xFFFF AND GT DUP1 PUSH2 0xC87 JUMPI POP PUSH2 0x11FB DUP3 PUSH2 0xFB3 JUMP JUMPDEST PUSH1 0xFF AND PUSH2 0x1207 TIMESTAMP PUSH2 0xFB3 JUMP JUMPDEST PUSH1 0xFF AND GT SWAP3 SWAP2 POP POP JUMP JUMPDEST PUSH1 0x0 DUP4 PUSH1 0xFF AND PUSH2 0x1220 TIMESTAMP PUSH2 0xCC6 JUMP JUMPDEST PUSH1 0xFF AND EQ DUP1 ISZERO PUSH2 0x123E JUMPI POP DUP3 PUSH1 0xFF AND PUSH2 0x1238 TIMESTAMP PUSH2 0xC63 JUMP JUMPDEST PUSH1 0xFF AND LT ISZERO JUMPDEST DUP1 ISZERO PUSH2 0xCEF JUMPI POP DUP2 PUSH1 0xFF AND PUSH2 0x1252 TIMESTAMP PUSH2 0xC63 JUMP JUMPDEST PUSH1 0xFF AND LT SWAP5 SWAP4 POP POP POP POP JUMP JUMPDEST PUSH1 0x0 DUP1 PUSH2 0x126D DUP6 DUP6 PUSH1 0x0 PUSH2 0x179E JUMP JUMPDEST SWAP1 POP DUP3 PUSH1 0x1 PUSH1 0x1 PUSH1 0xA0 SHL SUB AND DUP2 PUSH1 0x1 PUSH1 0x1 PUSH1 0xA0 SHL SUB AND EQ DUP1 PUSH2 0xCBD JUMPI POP PUSH1 0x2 SLOAD PUSH1 0x40 MLOAD PUSH4 0x17AA5FB7 PUSH1 0xE1 SHL DUP2 MSTORE PUSH1 0x1 PUSH1 0x1 PUSH1 0xA0 SHL SUB DUP4 DUP2 AND PUSH1 0x4 DUP4 ADD MSTORE SWAP1 SWAP2 AND SWAP1 PUSH4 0x2F54BF6E SWAP1 PUSH1 0x24 ADD PUSH1 0x20 PUSH1 0x40 MLOAD DUP1 DUP4 SUB DUP2 DUP7 GAS STATICCALL ISZERO DUP1 ISZERO PUSH2 0x12D4 JUMPI RETURNDATASIZE PUSH1 0x0 DUP1 RETURNDATACOPY RETURNDATASIZE PUSH1 0x0 REVERT JUMPDEST POP POP POP POP PUSH1 0x40 MLOAD RETURNDATASIZE PUSH1 0x1F NOT PUSH1 0x1F DUP3 ADD AND DUP3 ADD DUP1 PUSH1 0x40 MSTORE POP DUP2 ADD SWAP1 PUSH2 0xCBD SWAP2 SWAP1 PUSH2 0x1D36 JUMP JUMPDEST PUSH1 0x0 PUSH2 0x1319 DUP5 PUSH2 0x1313 DUP8 PUSH2 0x130D GAS DUP12 SWAP1 PUSH2 0x1838 JUMP JUMPDEST SWAP1 PUSH2 0x184B JUMP JUMPDEST SWAP1 PUSH2 0x1857 JUMP JUMPDEST SWAP1 POP PUSH1 0x0 PUSH1 0x1 PUSH1 0x1 PUSH1 0xA0 SHL SUB DUP4 AND ISZERO PUSH2 0x1332 JUMPI DUP3 PUSH2 0x1334 JUMP JUMPDEST ORIGIN JUMPDEST SWAP1 POP PUSH1 0x1 PUSH1 0x1 PUSH1 0xA0 SHL SUB DUP5 AND PUSH2 0x1491 JUMPI PUSH1 0x2 SLOAD PUSH1 0x40 MLOAD PUSH4 0x468721A7 PUSH1 0xE0 SHL DUP2 MSTORE PUSH1 0x1 PUSH1 0x1 PUSH1 0xA0 SHL SUB SWAP1 SWAP2 AND SWAP1 PUSH4 0x468721A7 SWAP1 PUSH2 0x1379 SWAP1 DUP5 SWAP1 DUP7 SWAP1 PUSH1 0x0 SWAP1 PUSH1 0x4 ADD PUSH2 0x1D03 JUMP JUMPDEST PUSH1 0x20 PUSH1 0x40 MLOAD DUP1 DUP4 SUB DUP2 PUSH1 0x0 DUP8 GAS CALL ISZERO DUP1 ISZERO PUSH2 0x1398 JUMPI RETURNDATASIZE PUSH1 0x0 DUP1 RETURNDATACOPY RETURNDATASIZE PUSH1 0x0 REVERT JUMPDEST POP POP POP POP PUSH1 0x40 MLOAD RETURNDATASIZE PUSH1 0x1F NOT PUSH1 0x1F DUP3 ADD AND DUP3 ADD DUP1 PUSH1 0x40 MSTORE POP DUP2 ADD SWAP1 PUSH2 0x13BC SWAP2 SWAP1 PUSH2 0x1D36 JUMP JUMPDEST POP PUSH1 0x2 SLOAD PUSH1 0x40 MLOAD PUSH4 0x468721A7 PUSH1 0xE0 SHL DUP2 MSTORE PUSH1 0x1 PUSH1 0x1 PUSH1 0xA0 SHL SUB SWAP1 SWAP2 AND SWAP1 PUSH4 0x468721A7 SWAP1 PUSH2 0x13F2 SWAP1 DUP5 SWAP1 DUP7 SWAP1 PUSH1 0x0 SWAP1 PUSH1 0x4 ADD PUSH2 0x1D03 JUMP JUMPDEST PUSH1 0x20 PUSH1 0x40 MLOAD DUP1 DUP4 SUB DUP2 PUSH1 0x0 DUP8 GAS CALL ISZERO DUP1 ISZERO PUSH2 0x1411 JUMPI RETURNDATASIZE PUSH1 0x0 DUP1 RETURNDATACOPY RETURNDATASIZE PUSH1 0x0 REVERT JUMPDEST POP POP POP POP PUSH1 0x40 MLOAD RETURNDATASIZE PUSH1 0x1F NOT PUSH1 0x1F DUP3 ADD AND DUP3 ADD DUP1 PUSH1 0x40 MSTORE POP DUP2 ADD SWAP1 PUSH2 0x1435 SWAP2 SWAP1 PUSH2 0x1D36 JUMP JUMPDEST PUSH2 0x148C JUMPI PUSH1 0x40 MLOAD PUSH3 0x461BCD PUSH1 0xE5 SHL DUP2 MSTORE PUSH1 0x20 PUSH1 0x4 DUP3 ADD MSTORE PUSH1 0x22 PUSH1 0x24 DUP3 ADD MSTORE PUSH32 0x436F756C64206E6F74207061792067617320636F737473207769746820657468 PUSH1 0x44 DUP3 ADD MSTORE PUSH2 0x32B9 PUSH1 0xF1 SHL PUSH1 0x64 DUP3 ADD MSTORE PUSH1 0x84 ADD PUSH2 0x46A JUMP JUMPDEST PUSH2 0x15AD JUMP JUMPDEST PUSH1 0x40 MLOAD PUSH1 0x1 PUSH1 0x1 PUSH1 0xA0 SHL SUB DUP3 AND PUSH1 0x24 DUP3 ADD MSTORE PUSH1 0x44 DUP2 ADD DUP4 SWAP1 MSTORE PUSH1 0x0 SWAP1 PUSH1 0x64 ADD PUSH1 0x40 DUP1 MLOAD PUSH1 0x1F NOT DUP2 DUP5 SUB ADD DUP2 MSTORE SWAP2 DUP2 MSTORE PUSH1 0x20 DUP3 ADD DUP1 MLOAD PUSH1 0x1 PUSH1 0x1 PUSH1 0xE0 SHL SUB AND PUSH4 0xA9059CBB PUSH1 0xE0 SHL OR SWAP1 MSTORE PUSH1 0x2 SLOAD SWAP1 MLOAD PUSH4 0x468721A7 PUSH1 0xE0 SHL DUP2 MSTORE SWAP2 SWAP3 POP PUSH1 0x1 PUSH1 0x1 PUSH1 0xA0 SHL SUB AND SWAP1 PUSH4 0x468721A7 SWAP1 PUSH2 0x1511 SWAP1 DUP9 SWAP1 PUSH1 0x0 SWAP1 DUP7 SWAP1 DUP3 SWAP1 PUSH1 0x4 ADD PUSH2 0x1D58 JUMP JUMPDEST PUSH1 0x20 PUSH1 0x40 MLOAD DUP1 DUP4 SUB DUP2 PUSH1 0x0 DUP8 GAS CALL ISZERO DUP1 ISZERO PUSH2 0x1530 JUMPI RETURNDATASIZE PUSH1 0x0 DUP1 RETURNDATACOPY RETURNDATASIZE PUSH1 0x0 REVERT JUMPDEST POP POP POP POP PUSH1 0x40 MLOAD RETURNDATASIZE PUSH1 0x1F NOT PUSH1 0x1F DUP3 ADD AND DUP3 ADD DUP1 PUSH1 0x40 MSTORE POP DUP2 ADD SWAP1 PUSH2 0x1554 SWAP2 SWAP1 PUSH2 0x1D36 JUMP JUMPDEST PUSH2 0x15AB JUMPI PUSH1 0x40 MLOAD PUSH3 0x461BCD PUSH1 0xE5 SHL DUP2 MSTORE PUSH1 0x20 PUSH1 0x4 DUP3 ADD MSTORE PUSH1 0x22 PUSH1 0x24 DUP3 ADD MSTORE PUSH32 0x436F756C64206E6F74207061792067617320636F737473207769746820746F6B PUSH1 0x44 DUP3 ADD MSTORE PUSH2 0x32B7 PUSH1 0xF1 SHL PUSH1 0x64 DUP3 ADD MSTORE PUSH1 0x84 ADD PUSH2 0x46A JUMP JUMPDEST POP JUMPDEST POP POP POP POP POP POP POP JUMP JUMPDEST PUSH1 0x40 DUP1 MLOAD PUSH1 0xE0 DUP2 ADD DUP3 MSTORE PUSH1 0x0 DUP1 DUP3 MSTORE PUSH1 0x20 DUP3 ADD DUP2 SWAP1 MSTORE SWAP2 DUP2 ADD DUP3 SWAP1 MSTORE PUSH1 0x60 DUP2 ADD DUP3 SWAP1 MSTORE PUSH1 0x80 DUP2 ADD DUP3 SWAP1 MSTORE PUSH1 0xA0 DUP2 ADD DUP3 SWAP1 MSTORE PUSH1 0xC0 DUP2 ADD DUP3 SWAP1 MSTORE SWAP1 DUP1 DUP1 PUSH2 0x15FA DUP6 PUSH2 0xEC3 JUMP JUMPDEST PUSH2 0xFFFF AND DUP5 MSTORE PUSH2 0x160B PUSH2 0x7B2 PUSH2 0x1027 JUMP JUMPDEST DUP5 MLOAD PUSH2 0x161A SWAP1 PUSH2 0xFFFF AND PUSH2 0x1027 JUMP JUMPDEST PUSH2 0x1624 SWAP2 SWAP1 PUSH2 0x1E9C JUMP JUMPDEST SWAP2 POP PUSH2 0x1634 DUP3 PUSH4 0x1E28500 PUSH2 0x1E6C JUMP JUMPDEST PUSH2 0x163E SWAP1 DUP5 PUSH2 0x1E00 JUMP JUMPDEST SWAP3 POP DUP2 PUSH2 0x7B2 DUP6 PUSH1 0x0 ADD MLOAD PUSH2 0x1653 SWAP2 SWAP1 PUSH2 0x1E4A JUMP JUMPDEST PUSH2 0xFFFF AND PUSH2 0x1661 SWAP2 SWAP1 PUSH2 0x1E9C JUMP JUMPDEST PUSH2 0x166F SWAP1 PUSH4 0x1E13380 PUSH2 0x1E6C JUMP JUMPDEST PUSH2 0x1679 SWAP1 DUP5 PUSH2 0x1E00 JUMP JUMPDEST SWAP3 POP PUSH1 0x0 PUSH1 0x1 SWAP2 POP JUMPDEST PUSH1 0xC DUP3 PUSH1 0xFF AND GT PUSH2 0x16EA JUMPI PUSH2 0x169B DUP3 DUP7 PUSH1 0x0 ADD MLOAD PUSH2 0x106C JUMP JUMPDEST PUSH2 0x16AB SWAP1 PUSH1 0xFF AND PUSH3 0x15180 PUSH2 0x1E6C JUMP JUMPDEST SWAP1 POP DUP6 PUSH2 0x16B8 DUP6 DUP4 PUSH2 0x1E00 JUMP JUMPDEST GT ISZERO PUSH2 0x16CC JUMPI PUSH1 0xFF DUP3 AND PUSH1 0x20 DUP7 ADD MSTORE PUSH2 0x16EA JUMP JUMPDEST PUSH2 0x16D6 DUP2 DUP6 PUSH2 0x1E00 JUMP JUMPDEST SWAP4 POP DUP2 PUSH2 0x16E2 DUP2 PUSH2 0x1ED0 JUMP JUMPDEST SWAP3 POP POP PUSH2 0x1682 JUMP JUMPDEST PUSH1 0x1 SWAP2 POP JUMPDEST PUSH2 0x1701 DUP6 PUSH1 0x20 ADD MLOAD DUP7 PUSH1 0x0 ADD MLOAD PUSH2 0x106C JUMP JUMPDEST PUSH1 0xFF AND DUP3 PUSH1 0xFF AND GT PUSH2 0x1750 JUMPI DUP6 PUSH2 0x171B DUP6 PUSH3 0x15180 PUSH2 0x1E00 JUMP JUMPDEST GT ISZERO PUSH2 0x172F JUMPI PUSH1 0xFF DUP3 AND PUSH1 0x40 DUP7 ADD MSTORE PUSH2 0x1750 JUMP JUMPDEST PUSH2 0x173C PUSH3 0x15180 DUP6 PUSH2 0x1E00 JUMP JUMPDEST SWAP4 POP DUP2 PUSH2 0x1748 DUP2 PUSH2 0x1ED0 JUMP JUMPDEST SWAP3 POP POP PUSH2 0x16EF JUMP JUMPDEST PUSH2 0x1759 DUP7 PUSH2 0xC63 JUMP JUMPDEST PUSH1 0xFF AND PUSH1 0x60 DUP7 ADD MSTORE PUSH2 0x176A DUP7 PUSH2 0x1188 JUMP JUMPDEST PUSH1 0xFF AND PUSH1 0x80 DUP7 ADD MSTORE PUSH2 0x177B DUP7 PUSH2 0xCF7 JUMP JUMPDEST PUSH1 0xFF AND PUSH1 0xA0 DUP7 ADD MSTORE PUSH2 0x178C DUP7 PUSH2 0xC8D JUMP JUMPDEST PUSH1 0xFF AND PUSH1 0xC0 DUP7 ADD MSTORE POP SWAP3 SWAP5 SWAP4 POP POP POP POP JUMP JUMPDEST PUSH1 0x0 DUP1 PUSH1 0x0 DUP1 PUSH2 0x17C7 DUP7 DUP7 PUSH1 0x41 SWAP1 DUP2 MUL SWAP2 SWAP1 SWAP2 ADD PUSH1 0x20 DUP2 ADD MLOAD PUSH1 0x40 DUP3 ADD MLOAD SWAP2 SWAP1 SWAP3 ADD MLOAD PUSH1 0xFF AND SWAP3 JUMP JUMPDEST PUSH1 0x40 DUP1 MLOAD PUSH1 0x0 DUP2 MSTORE PUSH1 0x20 DUP2 ADD DUP1 DUP4 MSTORE DUP13 SWAP1 MSTORE PUSH1 0xFF DUP6 AND SWAP2 DUP2 ADD SWAP2 SWAP1 SWAP2 MSTORE PUSH1 0x60 DUP2 ADD DUP4 SWAP1 MSTORE PUSH1 0x80 DUP2 ADD DUP3 SWAP1 MSTORE SWAP3 SWAP6 POP SWAP1 SWAP4 POP SWAP2 POP PUSH1 0x1 SWAP1 PUSH1 0xA0 ADD PUSH1 0x20 PUSH1 0x40 MLOAD PUSH1 0x20 DUP2 SUB SWAP1 DUP1 DUP5 SUB SWAP1 DUP6 GAS STATICCALL ISZERO DUP1 ISZERO PUSH2 0x1822 JUMPI RETURNDATASIZE PUSH1 0x0 DUP1 RETURNDATACOPY RETURNDATASIZE PUSH1 0x0 REVERT JUMPDEST POP POP PUSH1 0x40 MLOAD PUSH1 0x1F NOT ADD MLOAD SWAP9 SWAP8 POP POP POP POP POP POP POP POP JUMP JUMPDEST PUSH1 0x0 PUSH2 0x1844 DUP3 DUP5 PUSH2 0x1E9C JUMP JUMPDEST SWAP4 SWAP3 POP POP POP JUMP JUMPDEST PUSH1 0x0 PUSH2 0x1844 DUP3 DUP5 PUSH2 0x1E00 JUMP JUMPDEST PUSH1 0x0 PUSH2 0x1844 DUP3 DUP5 PUSH2 0x1E6C JUMP JUMPDEST PUSH1 0x40 MLOAD DUP1 PUSH2 0x180 ADD PUSH1 0x40 MSTORE DUP1 PUSH1 0xC SWAP1 PUSH1 0x20 DUP3 MUL DUP1 CALLDATASIZE DUP4 CALLDATACOPY POP SWAP2 SWAP3 SWAP2 POP POP JUMP JUMPDEST DUP1 CALLDATALOAD PUSH1 0x1 PUSH1 0x1 PUSH1 0xA0 SHL SUB DUP2 AND DUP2 EQ PUSH2 0x1899 JUMPI PUSH1 0x0 DUP1 REVERT JUMPDEST SWAP2 SWAP1 POP JUMP JUMPDEST PUSH1 0x0 DUP1 PUSH1 0x0 DUP1 PUSH1 0x0 DUP1 PUSH1 0x0 PUSH1 0xE0 DUP9 DUP11 SUB SLT ISZERO PUSH2 0x18B9 JUMPI PUSH1 0x0 DUP1 REVERT JUMPDEST PUSH2 0x18C2 DUP9 PUSH2 0x1882 JUMP JUMPDEST SWAP7 POP PUSH1 0x20 DUP9 ADD CALLDATALOAD SWAP6 POP PUSH1 0x40 DUP9 ADD CALLDATALOAD SWAP5 POP PUSH1 0x60 DUP9 ADD CALLDATALOAD SWAP4 POP PUSH2 0x18E5 PUSH1 0x80 DUP10 ADD PUSH2 0x1882 JUMP JUMPDEST SWAP3 POP PUSH2 0x18F3 PUSH1 0xA0 DUP10 ADD PUSH2 0x1882 JUMP JUMPDEST SWAP2 POP PUSH1 0xC0 DUP9 ADD CALLDATALOAD SWAP1 POP SWAP3 SWAP6 SWAP9 SWAP2 SWAP5 SWAP8 POP SWAP3 SWAP6 POP JUMP JUMPDEST DUP1 CALLDATALOAD PUSH1 0xFF DUP2 AND DUP2 EQ PUSH2 0x1899 JUMPI PUSH1 0x0 DUP1 REVERT JUMPDEST PUSH1 0x0 DUP1 PUSH1 0x0 DUP1 PUSH1 0x0 DUP1 PUSH1 0x0 PUSH1 0xE0 DUP9 DUP11 SUB SLT ISZERO PUSH2 0x1934 JUMPI PUSH1 0x0 DUP1 REVERT JUMPDEST PUSH2 0x193D DUP9 PUSH2 0x1882 JUMP JUMPDEST SWAP7 POP PUSH2 0x194B PUSH1 0x20 DUP10 ADD PUSH2 0x1882 JUMP JUMPDEST SWAP6 POP PUSH2 0x1959 PUSH1 0x40 DUP10 ADD PUSH2 0x1882 JUMP JUMPDEST SWAP5 POP PUSH1 0x60 DUP9 ADD CALLDATALOAD SWAP4 POP PUSH2 0x196E PUSH1 0x80 DUP10 ADD PUSH2 0x1908 JUMP JUMPDEST SWAP3 POP PUSH2 0x197C PUSH1 0xA0 DUP10 ADD PUSH2 0x1908 JUMP JUMPDEST SWAP2 POP PUSH2 0x198A PUSH1 0xC0 DUP10 ADD PUSH2 0x1908 JUMP JUMPDEST SWAP1 POP SWAP3 SWAP6 SWAP9 SWAP2 SWAP5 SWAP8 POP SWAP3 SWAP6 POP JUMP JUMPDEST PUSH4 0x4E487B71 PUSH1 0xE0 SHL PUSH1 0x0 MSTORE PUSH1 0x41 PUSH1 0x4 MSTORE PUSH1 0x24 PUSH1 0x0 REVERT JUMPDEST PUSH1 0x0 DUP1 PUSH1 0x0 DUP1 PUSH1 0x0 DUP1 PUSH1 0x0 PUSH1 0xE0 DUP9 DUP11 SUB SLT ISZERO PUSH2 0x19C9 JUMPI PUSH1 0x0 DUP1 REVERT JUMPDEST PUSH2 0x19D2 DUP9 PUSH2 0x1882 JUMP JUMPDEST SWAP7 POP PUSH1 0x20 DUP9 ADD CALLDATALOAD SWAP6 POP PUSH1 0x40 DUP9 ADD CALLDATALOAD SWAP5 POP PUSH1 0x60 DUP9 ADD CALLDATALOAD SWAP4 POP PUSH2 0x19F5 PUSH1 0x80 DUP10 ADD PUSH2 0x1882 JUMP JUMPDEST SWAP3 POP PUSH2 0x1A03 PUSH1 0xA0 DUP10 ADD PUSH2 0x1882 JUMP JUMPDEST SWAP2 POP PUSH1 0xC0 DUP9 ADD CALLDATALOAD PUSH8 0xFFFFFFFFFFFFFFFF DUP1 DUP3 GT ISZERO PUSH2 0x1A20 JUMPI PUSH1 0x0 DUP1 REVERT JUMPDEST DUP2 DUP11 ADD SWAP2 POP DUP11 PUSH1 0x1F DUP4 ADD SLT PUSH2 0x1A34 JUMPI PUSH1 0x0 DUP1 REVERT JUMPDEST DUP2 CALLDATALOAD DUP2 DUP2 GT ISZERO PUSH2 0x1A46 JUMPI PUSH2 0x1A46 PUSH2 0x1998 JUMP JUMPDEST PUSH1 0x40 MLOAD PUSH1 0x1F DUP3 ADD PUSH1 0x1F NOT SWAP1 DUP2 AND PUSH1 0x3F ADD AND DUP2 ADD SWAP1 DUP4 DUP3 GT DUP2 DUP4 LT OR ISZERO PUSH2 0x1A6E JUMPI PUSH2 0x1A6E PUSH2 0x1998 JUMP JUMPDEST DUP2 PUSH1 0x40 MSTORE DUP3 DUP2 MSTORE DUP14 PUSH1 0x20 DUP5 DUP8 ADD ADD GT ISZERO PUSH2 0x1A87 JUMPI PUSH1 0x0 DUP1 REVERT JUMPDEST DUP3 PUSH1 0x20 DUP7 ADD PUSH1 0x20 DUP4 ADD CALLDATACOPY PUSH1 0x0 PUSH1 0x20 DUP5 DUP4 ADD ADD MSTORE DUP1 SWAP6 POP POP POP POP POP POP SWAP3 SWAP6 SWAP9 SWAP2 SWAP5 SWAP8 POP SWAP3 SWAP6 POP JUMP JUMPDEST PUSH1 0x0 PUSH1 0x20 DUP3 DUP5 SUB SLT ISZERO PUSH2 0x1AC0 JUMPI PUSH1 0x0 DUP1 REVERT JUMPDEST POP CALLDATALOAD SWAP2 SWAP1 POP JUMP JUMPDEST DUP1 CALLDATALOAD PUSH2 0xFFFF DUP2 AND DUP2 EQ PUSH2 0x1899 JUMPI PUSH1 0x0 DUP1 REVERT JUMPDEST PUSH1 0x0 DUP1 PUSH1 0x0 DUP1 PUSH1 0x0 PUSH1 0xA0 DUP7 DUP9 SUB SLT ISZERO PUSH2 0x1AF1 JUMPI PUSH1 0x0 DUP1 REVERT JUMPDEST PUSH2 0x1AFA DUP7 PUSH2 0x1AC7 JUMP JUMPDEST SWAP5 POP PUSH2 0x1B08 PUSH1 0x20 DUP8 ADD PUSH2 0x1908 JUMP JUMPDEST SWAP4 POP PUSH2 0x1B16 PUSH1 0x40 DUP8 ADD PUSH2 0x1908 JUMP JUMPDEST SWAP3 POP PUSH2 0x1B24 PUSH1 0x60 DUP8 ADD PUSH2 0x1908 JUMP JUMPDEST SWAP2 POP PUSH2 0x1B32 PUSH1 0x80 DUP8 ADD PUSH2 0x1908 JUMP JUMPDEST SWAP1 POP SWAP3 SWAP6 POP SWAP3 SWAP6 SWAP1 SWAP4 POP JUMP JUMPDEST PUSH1 0x0 DUP1 PUSH1 0x0 DUP1 PUSH1 0x80 DUP6 DUP8 SUB SLT ISZERO PUSH2 0x1B54 JUMPI PUSH1 0x0 DUP1 REVERT JUMPDEST PUSH2 0x1B5D DUP6 PUSH2 0x1AC7 JUMP JUMPDEST SWAP4 POP PUSH2 0x1B6B PUSH1 0x20 DUP7 ADD PUSH2 0x1908 JUMP JUMPDEST SWAP3 POP PUSH2 0x1B79 PUSH1 0x40 DUP7 ADD PUSH2 0x1908 JUMP JUMPDEST SWAP2 POP PUSH2 0x1B87 PUSH1 0x60 DUP7 ADD PUSH2 0x1908 JUMP JUMPDEST SWAP1 POP SWAP3 SWAP6 SWAP2 SWAP5 POP SWAP3 POP JUMP JUMPDEST PUSH1 0x0 DUP1 PUSH1 0x0 PUSH1 0x60 DUP5 DUP7 SUB SLT ISZERO PUSH2 0x1BA7 JUMPI PUSH1 0x0 DUP1 REVERT JUMPDEST PUSH2 0x1BB0 DUP5 PUSH2 0x1AC7 JUMP JUMPDEST SWAP3 POP PUSH2 0x1BBE PUSH1 0x20 DUP6 ADD PUSH2 0x1908 JUMP JUMPDEST SWAP2 POP PUSH2 0x1BCC PUSH1 0x40 DUP6 ADD PUSH2 0x1908 JUMP JUMPDEST SWAP1 POP SWAP3 POP SWAP3 POP SWAP3 JUMP JUMPDEST PUSH1 0x0 DUP1 PUSH1 0x0 DUP1 PUSH1 0x0 DUP1 PUSH1 0xC0 DUP8 DUP10 SUB SLT ISZERO PUSH2 0x1BEE JUMPI PUSH1 0x0 DUP1 REVERT JUMPDEST PUSH2 0x1BF7 DUP8 PUSH2 0x1AC7 JUMP JUMPDEST SWAP6 POP PUSH2 0x1C05 PUSH1 0x20 DUP9 ADD PUSH2 0x1908 JUMP JUMPDEST SWAP5 POP PUSH2 0x1C13 PUSH1 0x40 DUP9 ADD PUSH2 0x1908 JUMP JUMPDEST SWAP4 POP PUSH2 0x1C21 PUSH1 0x60 DUP9 ADD PUSH2 0x1908 JUMP JUMPDEST SWAP3 POP PUSH2 0x1C2F PUSH1 0x80 DUP9 ADD PUSH2 0x1908 JUMP JUMPDEST SWAP2 POP PUSH2 0x1C3D PUSH1 0xA0 DUP9 ADD PUSH2 0x1908 JUMP JUMPDEST SWAP1 POP SWAP3 SWAP6 POP SWAP3 SWAP6 POP SWAP3 SWAP6 JUMP JUMPDEST PUSH1 0x0 PUSH1 0x20 DUP3 DUP5 SUB SLT ISZERO PUSH2 0x1C5B JUMPI PUSH1 0x0 DUP1 REVERT JUMPDEST PUSH2 0x1844 DUP3 PUSH2 0x1AC7 JUMP JUMPDEST PUSH1 0x0 DUP1 PUSH1 0x40 DUP4 DUP6 SUB SLT ISZERO PUSH2 0x1C77 JUMPI PUSH1 0x0 DUP1 REVERT JUMPDEST PUSH2 0x1C80 DUP4 PUSH2 0x1908 JUMP JUMPDEST SWAP2 POP PUSH2 0x1C8E PUSH1 0x20 DUP5 ADD PUSH2 0x1AC7 JUMP JUMPDEST SWAP1 POP SWAP3 POP SWAP3 SWAP1 POP JUMP JUMPDEST PUSH1 0x0 PUSH1 0x20 DUP3 DUP5 SUB SLT ISZERO PUSH2 0x1CA9 JUMPI PUSH1 0x0 DUP1 REVERT JUMPDEST PUSH2 0x1844 DUP3 PUSH2 0x1882 JUMP JUMPDEST PUSH4 0x4E487B71 PUSH1 0xE0 SHL PUSH1 0x0 MSTORE PUSH1 0x11 PUSH1 0x4 MSTORE PUSH1 0x24 PUSH1 0x0 REVERT JUMPDEST PUSH1 0x0 PUSH1 0x1 DUP3 ADD PUSH2 0x1CDA JUMPI PUSH2 0x1CDA PUSH2 0x1CB2 JUMP JUMPDEST POP PUSH1 0x1 ADD SWAP1 JUMP JUMPDEST PUSH1 0x2 DUP2 LT PUSH2 0x1CFF JUMPI PUSH4 0x4E487B71 PUSH1 0xE0 SHL PUSH1 0x0 MSTORE PUSH1 0x21 PUSH1 0x4 MSTORE PUSH1 0x24 PUSH1 0x0 REVERT JUMPDEST SWAP1 MSTORE JUMP JUMPDEST PUSH1 0x1 PUSH1 0x1 PUSH1 0xA0 SHL SUB DUP5 AND DUP2 MSTORE PUSH1 0x20 DUP2 ADD DUP4 SWAP1 MSTORE PUSH1 0x80 PUSH1 0x40 DUP3 ADD DUP2 SWAP1 MSTORE PUSH1 0x0 SWAP1 DUP3 ADD MSTORE PUSH1 0xA0 DUP2 ADD PUSH2 0xCEF PUSH1 0x60 DUP4 ADD DUP5 PUSH2 0x1CE1 JUMP JUMPDEST PUSH1 0x0 PUSH1 0x20 DUP3 DUP5 SUB SLT ISZERO PUSH2 0x1D48 JUMPI PUSH1 0x0 DUP1 REVERT JUMPDEST DUP2 MLOAD DUP1 ISZERO ISZERO DUP2 EQ PUSH2 0x1844 JUMPI PUSH1 0x0 DUP1 REVERT JUMPDEST PUSH1 0x1 DUP1 PUSH1 0xA0 SHL SUB DUP6 AND DUP2 MSTORE PUSH1 0x0 PUSH1 0x20 DUP6 DUP2 DUP5 ADD MSTORE PUSH1 0x80 PUSH1 0x40 DUP5 ADD MSTORE DUP5 MLOAD DUP1 PUSH1 0x80 DUP6 ADD MSTORE PUSH1 0x0 JUMPDEST DUP2 DUP2 LT ISZERO PUSH2 0x1D9A JUMPI DUP7 DUP2 ADD DUP4 ADD MLOAD DUP6 DUP3 ADD PUSH1 0xA0 ADD MSTORE DUP3 ADD PUSH2 0x1D7E JUMP JUMPDEST POP PUSH1 0x0 PUSH1 0xA0 DUP3 DUP7 ADD ADD MSTORE PUSH1 0xA0 PUSH1 0x1F NOT PUSH1 0x1F DUP4 ADD AND DUP6 ADD ADD SWAP3 POP POP POP PUSH2 0xCBD PUSH1 0x60 DUP4 ADD DUP5 PUSH2 0x1CE1 JUMP JUMPDEST PUSH4 0x4E487B71 PUSH1 0xE0 SHL PUSH1 0x0 MSTORE PUSH1 0x12 PUSH1 0x4 MSTORE PUSH1 0x24 PUSH1 0x0 REVERT JUMPDEST PUSH1 0x0 DUP3 PUSH2 0x1DE7 JUMPI PUSH2 0x1DE7 PUSH2 0x1DC2 JUMP JUMPDEST POP DIV SWAP1 JUMP JUMPDEST PUSH1 0x0 DUP3 PUSH2 0x1DFB JUMPI PUSH2 0x1DFB PUSH2 0x1DC2 JUMP JUMPDEST POP MOD SWAP1 JUMP JUMPDEST DUP1 DUP3 ADD DUP1 DUP3 GT ISZERO PUSH2 0xC87 JUMPI PUSH2 0xC87 PUSH2 0x1CB2 JUMP JUMPDEST PUSH1 0x0 PUSH2 0xFFFF DUP1 DUP4 AND DUP2 DUP2 SUB PUSH2 0x1E2A JUMPI PUSH2 0x1E2A PUSH2 0x1CB2 JUMP JUMPDEST PUSH1 0x1 ADD SWAP4 SWAP3 POP POP POP JUMP JUMPDEST PUSH4 0x4E487B71 PUSH1 0xE0 SHL PUSH1 0x0 MSTORE PUSH1 0x32 PUSH1 0x4 MSTORE PUSH1 0x24 PUSH1 0x0 REVERT JUMPDEST PUSH2 0xFFFF DUP3 DUP2 AND DUP3 DUP3 AND SUB SWAP1 DUP1 DUP3 GT ISZERO PUSH2 0x1E65 JUMPI PUSH2 0x1E65 PUSH2 0x1CB2 JUMP JUMPDEST POP SWAP3 SWAP2 POP POP JUMP JUMPDEST DUP1 DUP3 MUL DUP2 ISZERO DUP3 DUP3 DIV DUP5 EQ OR PUSH2 0xC87 JUMPI PUSH2 0xC87 PUSH2 0x1CB2 JUMP JUMPDEST PUSH1 0xFF DUP3 DUP2 AND DUP3 DUP3 AND SUB SWAP1 DUP2 GT ISZERO PUSH2 0xC87 JUMPI PUSH2 0xC87 PUSH2 0x1CB2 JUMP JUMPDEST DUP2 DUP2 SUB DUP2 DUP2 GT ISZERO PUSH2 0xC87 JUMPI PUSH2 0xC87 PUSH2 0x1CB2 JUMP JUMPDEST PUSH1 0x0 PUSH2 0xFFFF DUP1 DUP5 AND DUP1 PUSH2 0x1EC4 JUMPI PUSH2 0x1EC4 PUSH2 0x1DC2 JUMP JUMPDEST SWAP3 AND SWAP2 SWAP1 SWAP2 MOD SWAP3 SWAP2 POP POP JUMP JUMPDEST PUSH1 0x0 PUSH1 0xFF DUP3 AND PUSH1 0xFF DUP2 SUB PUSH2 0x1EE6 JUMPI PUSH2 0x1EE6 PUSH2 0x1CB2 JUMP JUMPDEST PUSH1 0x1 ADD SWAP3 SWAP2 POP POP JUMP INVALID LOG2 PUSH5 0x6970667358 0x22 SLT KECCAK256 DUP7 0x4C 0x4E NUMBER XOR JUMPI POP LOG2 SWAP9 SAR JUMPDEST 0xD9 EQ PUSH13 0xE2357ECE27967F486F4F7B0A7E 0xD1 0xE6 0xF ADD BYTE PUSH5 0x736F6C6343 STOP ADDMOD GT STOP CALLER "
		},
		"gasEstimates": {
			"creation": {
				"codeDepositCost": "1594600",
				"executionCost": "infinite",
				"totalCost": "infinite"
			},
			"external": {
				"addRecurringTransfer(address,address,address,uint256,uint8,uint8,uint8)": "infinite",
				"executeRecurringTransfer(address,uint256,uint256,uint256,address,address,bytes)": "infinite",
				"getDay(uint256)": "infinite",
				"getDaysInMonth(uint8,uint16)": "infinite",
				"getHour(uint256)": "infinite",
				"getMinute(uint256)": "533",
				"getMonth(uint256)": "infinite",
				"getSecond(uint256)": "449",
				"getTransactionHash(address,uint256,uint256,uint256,address,address,uint256)": "infinite",
				"getWeekday(uint256)": "infinite",
				"getYear(uint256)": "infinite",
				"isLeapYear(uint16)": "infinite",
				"leapYearsBefore(uint256)": "infinite",
				"nonce()": "2395",
				"recurringTransfers(address)": "9219",
				"removeRecurringTransfer(address)": "78199",
				"toTimestamp(uint16,uint8,uint8)": "infinite",
				"toTimestamp(uint16,uint8,uint8,uint8)": "infinite",
				"toTimestamp(uint16,uint8,uint8,uint8,uint8)": "infinite",
				"toTimestamp(uint16,uint8,uint8,uint8,uint8,uint8)": "infinite"
			},
			"internal": {
				"checkSignature(bytes32,bytes memory,address)": "infinite",
				"handlePayment(uint256,uint256,uint256,address,address)": "infinite",
				"isOnDayAndBetweenHours(uint8,uint8,uint8)": "infinite",
				"isPastMonth(uint256)": "infinite",
				"recoverKey(bytes32,bytes memory,uint256)": "infinite"
			}
		},
		"methodIdentifiers": {
			"addRecurringTransfer(address,address,address,uint256,uint8,uint8,uint8)": "1aa2f1b6",
			"executeRecurringTransfer(address,uint256,uint256,uint256,address,address,bytes)": "281d2c37",
			"getDay(uint256)": "65c72840",
			"getDaysInMonth(uint8,uint16)": "b238ad0e",
			"getHour(uint256)": "3e239e1a",
			"getMinute(uint256)": "fa93f883",
			"getMonth(uint256)": "a324ad24",
			"getSecond(uint256)": "8aa001fc",
			"getTransactionHash(address,uint256,uint256,uint256,address,address,uint256)": "02ef0bb9",
			"getWeekday(uint256)": "4ac1ad78",
			"getYear(uint256)": "92d66313",
			"isLeapYear(uint16)": "a6f0e577",
			"leapYearsBefore(uint256)": "b1999937",
			"nonce()": "affed0e0",
			"recurringTransfers(address)": "c64e2d8d",
			"removeRecurringTransfer(address)": "bb1d3029",
			"toTimestamp(uint16,uint8,uint8)": "8c8d98a0",
			"toTimestamp(uint16,uint8,uint8,uint8)": "7f791833",
			"toTimestamp(uint16,uint8,uint8,uint8,uint8)": "62ba9687",
			"toTimestamp(uint16,uint8,uint8,uint8,uint8,uint8)": "9054bdec"
		}
	},
	"abi": [
		{
			"inputs": [
				{
					"internalType": "contract IModuleManager",
					"name": "_manager",
					"type": "address"
				}
			],
			"stateMutability": "nonpayable",
			"type": "constructor"
		},
		{
			"inputs": [
				{
					"internalType": "address",
					"name": "receiver",
					"type": "address"
				},
				{
					"internalType": "address",
					"name": "delegate",
					"type": "address"
				},
				{
					"internalType": "address",
					"name": "token",
					"type": "address"
				},
				{
					"internalType": "uint256",
					"name": "amount",
					"type": "uint256"
				},
				{
					"internalType": "uint8",
					"name": "transferDay",
					"type": "uint8"
				},
				{
					"internalType": "uint8",
					"name": "transferHourStart",
					"type": "uint8"
				},
				{
					"internalType": "uint8",
					"name": "transferHourEnd",
					"type": "uint8"
				}
			],
			"name": "addRecurringTransfer",
			"outputs": [],
			"stateMutability": "nonpayable",
			"type": "function"
		},
		{
			"inputs": [
				{
					"internalType": "address",
					"name": "receiver",
					"type": "address"
				},
				{
					"internalType": "uint256",
					"name": "safeTxGas",
					"type": "uint256"
				},
				{
					"internalType": "uint256",
					"name": "dataGas",
					"type": "uint256"
				},
				{
					"internalType": "uint256",
					"name": "gasPrice",
					"type": "uint256"
				},
				{
					"internalType": "address",
					"name": "gasToken",
					"type": "address"
				},
				{
					"internalType": "address",
					"name": "refundReceiver",
					"type": "address"
				},
				{
					"internalType": "bytes",
					"name": "signature",
					"type": "bytes"
				}
			],
			"name": "executeRecurringTransfer",
			"outputs": [],
			"stateMutability": "nonpayable",
			"type": "function"
		},
		{
			"inputs": [
				{
					"internalType": "uint256",
					"name": "timestamp",
					"type": "uint256"
				}
			],
			"name": "getDay",
			"outputs": [
				{
					"internalType": "uint8",
					"name": "",
					"type": "uint8"
				}
			],
			"stateMutability": "pure",
			"type": "function"
		},
		{
			"inputs": [
				{
					"internalType": "uint8",
					"name": "month",
					"type": "uint8"
				},
				{
					"internalType": "uint16",
					"name": "year",
					"type": "uint16"
				}
			],
			"name": "getDaysInMonth",
			"outputs": [
				{
					"internalType": "uint8",
					"name": "",
					"type": "uint8"
				}
			],
			"stateMutability": "pure",
			"type": "function"
		},
		{
			"inputs": [
				{
					"internalType": "uint256",
					"name": "timestamp",
					"type": "uint256"
				}
			],
			"name": "getHour",
			"outputs": [
				{
					"internalType": "uint8",
					"name": "",
					"type": "uint8"
				}
			],
			"stateMutability": "pure",
			"type": "function"
		},
		{
			"inputs": [
				{
					"internalType": "uint256",
					"name": "timestamp",
					"type": "uint256"
				}
			],
			"name": "getMinute",
			"outputs": [
				{
					"internalType": "uint8",
					"name": "",
					"type": "uint8"
				}
			],
			"stateMutability": "pure",
			"type": "function"
		},
		{
			"inputs": [
				{
					"internalType": "uint256",
					"name": "timestamp",
					"type": "uint256"
				}
			],
			"name": "getMonth",
			"outputs": [
				{
					"internalType": "uint8",
					"name": "",
					"type": "uint8"
				}
			],
			"stateMutability": "pure",
			"type": "function"
		},
		{
			"inputs": [
				{
					"internalType": "uint256",
					"name": "timestamp",
					"type": "uint256"
				}
			],
			"name": "getSecond",
			"outputs": [
				{
					"internalType": "uint8",
					"name": "",
					"type": "uint8"
				}
			],
			"stateMutability": "pure",
			"type": "function"
		},
		{
			"inputs": [
				{
					"internalType": "address",
					"name": "receiver",
					"type": "address"
				},
				{
					"internalType": "uint256",
					"name": "safeTxGas",
					"type": "uint256"
				},
				{
					"internalType": "uint256",
					"name": "dataGas",
					"type": "uint256"
				},
				{
					"internalType": "uint256",
					"name": "gasPrice",
					"type": "uint256"
				},
				{
					"internalType": "address",
					"name": "gasToken",
					"type": "address"
				},
				{
					"internalType": "address",
					"name": "refundReceiver",
					"type": "address"
				},
				{
					"internalType": "uint256",
					"name": "_nonce",
					"type": "uint256"
				}
			],
			"name": "getTransactionHash",
			"outputs": [
				{
					"internalType": "bytes32",
					"name": "",
					"type": "bytes32"
				}
			],
			"stateMutability": "view",
			"type": "function"
		},
		{
			"inputs": [
				{
					"internalType": "uint256",
					"name": "timestamp",
					"type": "uint256"
				}
			],
			"name": "getWeekday",
			"outputs": [
				{
					"internalType": "uint8",
					"name": "",
					"type": "uint8"
				}
			],
			"stateMutability": "pure",
			"type": "function"
		},
		{
			"inputs": [
				{
					"internalType": "uint256",
					"name": "timestamp",
					"type": "uint256"
				}
			],
			"name": "getYear",
			"outputs": [
				{
					"internalType": "uint16",
					"name": "",
					"type": "uint16"
				}
			],
			"stateMutability": "pure",
			"type": "function"
		},
		{
			"inputs": [
				{
					"internalType": "uint16",
					"name": "year",
					"type": "uint16"
				}
			],
			"name": "isLeapYear",
			"outputs": [
				{
					"internalType": "bool",
					"name": "",
					"type": "bool"
				}
			],
			"stateMutability": "pure",
			"type": "function"
		},
		{
			"inputs": [
				{
					"internalType": "uint256",
					"name": "year",
					"type": "uint256"
				}
			],
			"name": "leapYearsBefore",
			"outputs": [
				{
					"internalType": "uint256",
					"name": "",
					"type": "uint256"
				}
			],
			"stateMutability": "pure",
			"type": "function"
		},
		{
			"inputs": [],
			"name": "nonce",
			"outputs": [
				{
					"internalType": "uint256",
					"name": "",
					"type": "uint256"
				}
			],
			"stateMutability": "view",
			"type": "function"
		},
		{
			"inputs": [
				{
					"internalType": "address",
					"name": "",
					"type": "address"
				}
			],
			"name": "recurringTransfers",
			"outputs": [
				{
					"internalType": "address",
					"name": "delegate",
					"type": "address"
				},
				{
					"internalType": "address",
					"name": "token",
					"type": "address"
				},
				{
					"internalType": "uint256",
					"name": "amount",
					"type": "uint256"
				},
				{
					"internalType": "uint8",
					"name": "transferDay",
					"type": "uint8"
				},
				{
					"internalType": "uint8",
					"name": "transferHourStart",
					"type": "uint8"
				},
				{
					"internalType": "uint8",
					"name": "transferHourEnd",
					"type": "uint8"
				},
				{
					"internalType": "uint32",
					"name": "lastTransferTime",
					"type": "uint32"
				}
			],
			"stateMutability": "view",
			"type": "function"
		},
		{
			"inputs": [
				{
					"internalType": "address",
					"name": "receiver",
					"type": "address"
				}
			],
			"name": "removeRecurringTransfer",
			"outputs": [],
			"stateMutability": "nonpayable",
			"type": "function"
		},
		{
			"inputs": [
				{
					"internalType": "uint16",
					"name": "year",
					"type": "uint16"
				},
				{
					"internalType": "uint8",
					"name": "month",
					"type": "uint8"
				},
				{
					"internalType": "uint8",
					"name": "day",
					"type": "uint8"
				},
				{
					"internalType": "uint8",
					"name": "hour",
					"type": "uint8"
				},
				{
					"internalType": "uint8",
					"name": "minute",
					"type": "uint8"
				}
			],
			"name": "toTimestamp",
			"outputs": [
				{
					"internalType": "uint256",
					"name": "timestamp",
					"type": "uint256"
				}
			],
			"stateMutability": "pure",
			"type": "function"
		},
		{
			"inputs": [
				{
					"internalType": "uint16",
					"name": "year",
					"type": "uint16"
				},
				{
					"internalType": "uint8",
					"name": "month",
					"type": "uint8"
				},
				{
					"internalType": "uint8",
					"name": "day",
					"type": "uint8"
				},
				{
					"internalType": "uint8",
					"name": "hour",
					"type": "uint8"
				}
			],
			"name": "toTimestamp",
			"outputs": [
				{
					"internalType": "uint256",
					"name": "timestamp",
					"type": "uint256"
				}
			],
			"stateMutability": "pure",
			"type": "function"
		},
		{
			"inputs": [
				{
					"internalType": "uint16",
					"name": "year",
					"type": "uint16"
				},
				{
					"internalType": "uint8",
					"name": "month",
					"type": "uint8"
				},
				{
					"internalType": "uint8",
					"name": "day",
					"type": "uint8"
				}
			],
			"name": "toTimestamp",
			"outputs": [
				{
					"internalType": "uint256",
					"name": "timestamp",
					"type": "uint256"
				}
			],
			"stateMutability": "pure",
			"type": "function"
		},
		{
			"inputs": [
				{
					"internalType": "uint16",
					"name": "year",
					"type": "uint16"
				},
				{
					"internalType": "uint8",
					"name": "month",
					"type": "uint8"
				},
				{
					"internalType": "uint8",
					"name": "day",
					"type": "uint8"
				},
				{
					"internalType": "uint8",
					"name": "hour",
					"type": "uint8"
				},
				{
					"internalType": "uint8",
					"name": "minute",
					"type": "uint8"
				},
				{
					"internalType": "uint8",
					"name": "second",
					"type": "uint8"
				}
			],
			"name": "toTimestamp",
			"outputs": [
				{
					"internalType": "uint256",
					"name": "timestamp",
					"type": "uint256"
				}
			],
			"stateMutability": "pure",
			"type": "function"
		}
	]
}