{
  "_format": "hh-sol-artifact-1",
  "contractName": "Retailer",
  "sourceName": "contracts/Retailer.sol",
  "abi": [
    {
      "inputs": [],
      "stateMutability": "nonpayable",
      "type": "constructor"
    },
    {
      "anonymous": false,
      "inputs": [
        {
          "indexed": true,
          "internalType": "bytes32",
          "name": "id",
          "type": "bytes32"
        },
        {
          "indexed": true,
          "internalType": "uint256",
          "name": "amount",
          "type": "uint256"
        }
      ],
      "name": "PaymentSent",
      "type": "event"
    },
    {
      "anonymous": false,
      "inputs": [
        {
          "indexed": true,
          "internalType": "bytes32",
          "name": "id",
          "type": "bytes32"
        },
        {
          "indexed": true,
          "internalType": "uint256",
          "name": "amount",
          "type": "uint256"
        }
      ],
      "name": "RefundSent",
      "type": "event"
    },
    {
      "inputs": [
        {
          "internalType": "address payable",
          "name": "seller",
          "type": "address"
        },
        {
          "internalType": "uint256",
          "name": "amount",
          "type": "uint256"
        },
        {
          "internalType": "contract IERC20",
          "name": "token",
          "type": "address"
        }
      ],
      "name": "pay",
      "outputs": [],
      "stateMutability": "payable",
      "type": "function"
    },
    {
      "inputs": [
        {
          "internalType": "bytes32",
          "name": "id",
          "type": "bytes32"
        }
      ],
      "name": "refund",
      "outputs": [],
      "stateMutability": "payable",
      "type": "function"
    }
  ],
  "bytecode": "0x608060405234801561001057600080fd5b5061105e806100206000396000f3fe6080604052600436106100295760003560e01c80637249fbb61461002e578063f0fcc6bb1461004a575b600080fd5b61004860048036038101906100439190610b74565b610066565b005b610064600480360381019061005f9190610afc565b610709565b005b8060008060008381526020019081526020016000206040518060c0016040529081600082015481526020016001820160009054906101000a900473ffffffffffffffffffffffffffffffffffffffff1673ffffffffffffffffffffffffffffffffffffffff1673ffffffffffffffffffffffffffffffffffffffff1681526020016002820160009054906101000a900473ffffffffffffffffffffffffffffffffffffffff1673ffffffffffffffffffffffffffffffffffffffff1673ffffffffffffffffffffffffffffffffffffffff1681526020016003820160009054906101000a900473ffffffffffffffffffffffffffffffffffffffff1673ffffffffffffffffffffffffffffffffffffffff1673ffffffffffffffffffffffffffffffffffffffff168152602001600482015481526020016005820160009054906101000a900460ff1615151515815250509050806020015173ffffffffffffffffffffffffffffffffffffffff163373ffffffffffffffffffffffffffffffffffffffff161461022b576040517f08c379a000000000000000000000000000000000000000000000000000000000815260040161022290610e80565b60405180910390fd5b60008060008581526020019081526020016000206040518060c0016040529081600082015481526020016001820160009054906101000a900473ffffffffffffffffffffffffffffffffffffffff1673ffffffffffffffffffffffffffffffffffffffff1673ffffffffffffffffffffffffffffffffffffffff1681526020016002820160009054906101000a900473ffffffffffffffffffffffffffffffffffffffff1673ffffffffffffffffffffffffffffffffffffffff1673ffffffffffffffffffffffffffffffffffffffff1681526020016003820160009054906101000a900473ffffffffffffffffffffffffffffffffffffffff1673ffffffffffffffffffffffffffffffffffffffff1673ffffffffffffffffffffffffffffffffffffffff168152602001600482015481526020016005820160009054906101000a900460ff1615151515815250509050600115158160a00151151514156103c9576040517f08c379a00000000000000000000000000000000000000000000000000000000081526004016103c090610e60565b60405180910390fd5b600073ffffffffffffffffffffffffffffffffffffffff16816060015173ffffffffffffffffffffffffffffffffffffffff1614156104bc576000816040015173ffffffffffffffffffffffffffffffffffffffff16826080015160405161043090610d9d565b60006040518083038185875af1925050503d806000811461046d576040519150601f19603f3d011682016040523d82523d6000602084013e610472565b606091505b50509050806104b6576040517f08c379a00000000000000000000000000000000000000000000000000000000081526004016104ad90610e20565b60405180910390fd5b5061059d565b6000816060015173ffffffffffffffffffffffffffffffffffffffff166323b872dd33846040015185608001516040518463ffffffff1660e01b815260040161050793929190610de9565b602060405180830381600087803b15801561052157600080fd5b505af1158015610535573d6000803e3d6000fd5b505050506040513d601f19601f820116820180604052508101906105599190610b4b565b90508061059b576040517f08c379a000000000000000000000000000000000000000000000000000000000815260040161059290610e40565b60405180910390fd5b505b60008160a0019015159081151581525050806000808681526020019081526020016000206000820151816000015560208201518160010160006101000a81548173ffffffffffffffffffffffffffffffffffffffff021916908373ffffffffffffffffffffffffffffffffffffffff16021790555060408201518160020160006101000a81548173ffffffffffffffffffffffffffffffffffffffff021916908373ffffffffffffffffffffffffffffffffffffffff16021790555060608201518160030160006101000a81548173ffffffffffffffffffffffffffffffffffffffff021916908373ffffffffffffffffffffffffffffffffffffffff1602179055506080820151816004015560a08201518160050160006101000a81548160ff021916908315150217905550905050806080015181600001517fa295773e5a17bf06d6f5f4cde6a2ca242f10deca9d6f8b5d36c8c548fc40464a60405160405180910390a350505050565b600034146107c35760008373ffffffffffffffffffffffffffffffffffffffff163460405161073790610d9d565b60006040518083038185875af1925050503d8060008114610774576040519150601f19603f3d011682016040523d82523d6000602084013e610779565b606091505b50509050806107bd576040517f08c379a00000000000000000000000000000000000000000000000000000000081526004016107b490610e20565b60405180910390fd5b50610898565b60008173ffffffffffffffffffffffffffffffffffffffff166323b872dd3386866040518463ffffffff1660e01b815260040161080293929190610db2565b602060405180830381600087803b15801561081c57600080fd5b505af1158015610830573d6000803e3d6000fd5b505050506040513d601f19601f820116820180604052508101906108549190610b4b565b905080610896576040517f08c379a000000000000000000000000000000000000000000000000000000000815260040161088d90610e40565b60405180910390fd5b505b6000833384426040516020016108b19493929190610d4f565b60405160208183030381529060405280519060200120905060006040518060c001604052808381526020018673ffffffffffffffffffffffffffffffffffffffff1681526020013373ffffffffffffffffffffffffffffffffffffffff1681526020018473ffffffffffffffffffffffffffffffffffffffff168152602001858152602001600015158152509050806000808481526020019081526020016000206000820151816000015560208201518160010160006101000a81548173ffffffffffffffffffffffffffffffffffffffff021916908373ffffffffffffffffffffffffffffffffffffffff16021790555060408201518160020160006101000a81548173ffffffffffffffffffffffffffffffffffffffff021916908373ffffffffffffffffffffffffffffffffffffffff16021790555060608201518160030160006101000a81548173ffffffffffffffffffffffffffffffffffffffff021916908373ffffffffffffffffffffffffffffffffffffffff1602179055506080820151816004015560a08201518160050160006101000a81548160ff02191690831515021790555090505083827fe691874b94feebe07c148c95f48874c79b0ca6edf760b45b64e0723ba22112c560405160405180910390a35050505050565b600081359050610aa281610fb5565b92915050565b600081519050610ab781610fcc565b92915050565b600081359050610acc81610fe3565b92915050565b600081359050610ae181610ffa565b92915050565b600081359050610af681611011565b92915050565b600080600060608486031215610b1157600080fd5b6000610b1f86828701610a93565b9350506020610b3086828701610ae7565b9250506040610b4186828701610ad2565b9150509250925092565b600060208284031215610b5d57600080fd5b6000610b6b84828501610aa8565b91505092915050565b600060208284031215610b8657600080fd5b6000610b9484828501610abd565b91505092915050565b610ba681610f32565b82525050565b610bbd610bb882610ece565b610f7a565b82525050565b610bcc81610ebc565b82525050565b610be3610bde82610ebc565b610f68565b82525050565b6000610bf6601483610eab565b91507f4661696c656420746f2073656e642045746865720000000000000000000000006000830152602082019050919050565b6000610c36601b83610eab565b91507f4661696c656420746f2073656e64204552432d323020546f6b656e00000000006000830152602082019050919050565b6000610c76602383610eab565b91507f596f75206861766520616c72656164792072657175657374656420612072656660008301527f756e6400000000000000000000000000000000000000000000000000000000006020830152604082019050919050565b6000610cdc600083610ea0565b9150600082019050919050565b6000610cf6601683610eab565b91507f596f7520617265206e6f74207468652073656c6c6572000000000000000000006000830152602082019050919050565b610d3281610f28565b82525050565b610d49610d4482610f28565b610f9e565b82525050565b6000610d5b8287610bac565b601482019150610d6b8286610bd2565b601482019150610d7b8285610d38565b602082019150610d8b8284610d38565b60208201915081905095945050505050565b6000610da882610ccf565b9150819050919050565b6000606082019050610dc76000830186610bc3565b610dd46020830185610b9d565b610de16040830184610d29565b949350505050565b6000606082019050610dfe6000830186610bc3565b610e0b6020830185610bc3565b610e186040830184610d29565b949350505050565b60006020820190508181036000830152610e3981610be9565b9050919050565b60006020820190508181036000830152610e5981610c29565b9050919050565b60006020820190508181036000830152610e7981610c69565b9050919050565b60006020820190508181036000830152610e9981610ce9565b9050919050565b600081905092915050565b600082825260208201905092915050565b6000610ec782610f08565b9050919050565b6000610ed982610f08565b9050919050565b60008115159050919050565b6000819050919050565b6000610f0182610ebc565b9050919050565b600073ffffffffffffffffffffffffffffffffffffffff82169050919050565b6000819050919050565b6000610f3d82610f44565b9050919050565b6000610f4f82610f56565b9050919050565b6000610f6182610f08565b9050919050565b6000610f7382610f8c565b9050919050565b6000610f8582610f8c565b9050919050565b6000610f9782610fa8565b9050919050565b6000819050919050565b60008160601b9050919050565b610fbe81610ece565b8114610fc957600080fd5b50565b610fd581610ee0565b8114610fe057600080fd5b50565b610fec81610eec565b8114610ff757600080fd5b50565b61100381610ef6565b811461100e57600080fd5b50565b61101a81610f28565b811461102557600080fd5b5056fea264697066735822122048f822044301759c5b69cf6fdd15273c8f845cb7b1eb779a0f6febe32343923564736f6c63430008000033",
  "linkReferences": {},
  "deployedLinkReferences": {}
}