{
	"solidity-contracts/contracts/Retailer.sol": {
		"Retailer": {
			"abi": [
				{
					"inputs": [],
					"stateMutability": "nonpayable",
					"type": "constructor"
				},
				{
					"anonymous": false,
					"inputs": [
						{
							"indexed": true,
							"internalType": "bytes32",
							"name": "id",
							"type": "bytes32"
						},
						{
							"indexed": true,
							"internalType": "uint256",
							"name": "amount",
							"type": "uint256"
						}
					],
					"name": "PaymentSent",
					"type": "event"
				},
				{
					"anonymous": false,
					"inputs": [
						{
							"indexed": true,
							"internalType": "bytes32",
							"name": "id",
							"type": "bytes32"
						},
						{
							"indexed": true,
							"internalType": "uint256",
							"name": "amount",
							"type": "uint256"
						}
					],
					"name": "RefundSent",
					"type": "event"
				},
				{
					"inputs": [
						{
							"internalType": "bytes32",
							"name": "id",
							"type": "bytes32"
						}
					],
					"name": "getPaymentInfo",
					"outputs": [
						{
							"components": [
								{
									"internalType": "bytes32",
									"name": "id",
									"type": "bytes32"
								},
								{
									"internalType": "address",
									"name": "seller",
									"type": "address"
								},
								{
									"internalType": "address",
									"name": "buyer",
									"type": "address"
								},
								{
									"internalType": "contract IERC20",
									"name": "token",
									"type": "address"
								},
								{
									"internalType": "uint256",
									"name": "amount",
									"type": "uint256"
								},
								{
									"internalType": "bool",
									"name": "refunded",
									"type": "bool"
								}
							],
							"internalType": "struct Retailer.Payment",
							"name": "",
							"type": "tuple"
						}
					],
					"stateMutability": "view",
					"type": "function"
				},
				{
					"inputs": [
						{
							"internalType": "address payable",
							"name": "seller",
							"type": "address"
						},
						{
							"internalType": "uint256",
							"name": "amount",
							"type": "uint256"
						},
						{
							"internalType": "contract IERC20",
							"name": "token",
							"type": "address"
						}
					],
					"name": "pay",
					"outputs": [],
					"stateMutability": "payable",
					"type": "function"
				},
				{
					"inputs": [
						{
							"internalType": "bytes32",
							"name": "id",
							"type": "bytes32"
						}
					],
					"name": "refund",
					"outputs": [],
					"stateMutability": "payable",
					"type": "function"
				}
			],
			"devdoc": {
				"kind": "dev",
				"methods": {},
				"version": 1
			},
			"evm": {
				"assembly": "    /* \"solidity-contracts/contracts/Retailer.sol\":119:2338  contract Retailer {... */\n  mstore(0x40, 0x80)\n    /* \"solidity-contracts/contracts/Retailer.sol\":486:501  constructor(){} */\n  callvalue\n  dup1\n  iszero\n  tag_1\n  jumpi\n  0x00\n  dup1\n  revert\ntag_1:\n  pop\n    /* \"solidity-contracts/contracts/Retailer.sol\":119:2338  contract Retailer {... */\n  dataSize(sub_0)\n  dup1\n  dataOffset(sub_0)\n  0x00\n  codecopy\n  0x00\n  return\nstop\n\nsub_0: assembly {\n        /* \"solidity-contracts/contracts/Retailer.sol\":119:2338  contract Retailer {... */\n      mstore(0x40, 0x80)\n      jumpi(tag_1, lt(calldatasize, 0x04))\n      shr(0xe0, calldataload(0x00))\n      dup1\n      0x7249fbb6\n      eq\n      tag_2\n      jumpi\n      dup1\n      0xa75e9b19\n      eq\n      tag_3\n      jumpi\n      dup1\n      0xf0fcc6bb\n      eq\n      tag_4\n      jumpi\n    tag_1:\n      0x00\n      dup1\n      revert\n        /* \"solidity-contracts/contracts/Retailer.sol\":1326:1971  function refund(bytes32 id) external payable onlySeller(id) {... */\n    tag_2:\n      tag_5\n      tag_6\n      calldatasize\n      0x04\n      tag_7\n      jump\t// in\n    tag_6:\n      tag_8\n      jump\t// in\n    tag_5:\n      stop\n        /* \"solidity-contracts/contracts/Retailer.sol\":1977:2088  function getPaymentInfo(bytes32 id) external view returns (Payment memory) {... */\n    tag_3:\n      callvalue\n      dup1\n      iszero\n      tag_9\n      jumpi\n      0x00\n      dup1\n      revert\n    tag_9:\n      pop\n      tag_10\n      tag_11\n      calldatasize\n      0x04\n      tag_7\n      jump\t// in\n    tag_11:\n      0x40\n      dup1\n      mload\n      0xc0\n      dup2\n      add\n      dup3\n      mstore\n      0x00\n      dup1\n      dup3\n      mstore\n      0x20\n      dup3\n      add\n      dup2\n      swap1\n      mstore\n      swap2\n      dup2\n      add\n      dup3\n      swap1\n      mstore\n      0x60\n      dup2\n      add\n      dup3\n      swap1\n      mstore\n      0x80\n      dup2\n      add\n      dup3\n      swap1\n      mstore\n      0xa0\n      dup2\n      add\n      swap2\n      swap1\n      swap2\n      mstore\n      pop\n        /* \"solidity-contracts/contracts/Retailer.sol\":2069:2077  payments */\n      0x00\n        /* \"solidity-contracts/contracts/Retailer.sol\":2069:2081  payments[id] */\n      swap1\n      dup2\n      mstore\n      0x20\n      dup2\n      dup2\n      mstore\n      0x40\n      swap2\n      dup3\n      swap1\n      keccak256\n        /* \"solidity-contracts/contracts/Retailer.sol\":2062:2081  return payments[id] */\n      dup3\n      mload\n      0xc0\n      dup2\n      add\n      dup5\n      mstore\n      dup2\n      sload\n      dup2\n      mstore\n      0x01\n      dup3\n      add\n      sload\n      sub(shl(0xa0, 0x01), 0x01)\n      swap1\n      dup2\n      and\n      swap4\n      dup3\n      add\n      swap4\n      swap1\n      swap4\n      mstore\n      0x02\n      dup3\n      add\n      sload\n      dup4\n      and\n      swap4\n      dup2\n      add\n      swap4\n      swap1\n      swap4\n      mstore\n      0x03\n      dup2\n      add\n      sload\n      swap1\n      swap2\n      and\n      0x60\n      dup4\n      add\n      mstore\n      0x04\n      dup2\n      add\n      sload\n      0x80\n      dup4\n      add\n      mstore\n      0x05\n      add\n      sload\n      0xff\n      and\n      iszero\n      iszero\n      0xa0\n      dup3\n      add\n      mstore\n      swap1\n        /* \"solidity-contracts/contracts/Retailer.sol\":1977:2088  function getPaymentInfo(bytes32 id) external view returns (Payment memory) {... */\n      jump\n    tag_10:\n      mload(0x40)\n      tag_13\n      swap2\n      swap1\n        /* \"#utility.yul\":410:423   */\n      dup2\n      mload\n        /* \"#utility.yul\":392:424   */\n      dup2\n      mstore\n        /* \"#utility.yul\":471:475   */\n      0x20\n        /* \"#utility.yul\":459:476   */\n      dup1\n      dup4\n      add\n        /* \"#utility.yul\":453:477   */\n      mload\n      sub(shl(0xa0, 0x01), 0x01)\n        /* \"#utility.yul\":553:574   */\n      swap1\n      dup2\n      and\n        /* \"#utility.yul\":531:551   */\n      swap2\n      dup4\n      add\n        /* \"#utility.yul\":524:575   */\n      swap2\n      swap1\n      swap2\n      mstore\n        /* \"#utility.yul\":635:639   */\n      0x40\n        /* \"#utility.yul\":623:640   */\n      dup1\n      dup5\n      add\n        /* \"#utility.yul\":617:641   */\n      mload\n        /* \"#utility.yul\":613:646   */\n      dup3\n      and\n        /* \"#utility.yul\":591:611   */\n      swap1\n      dup4\n      add\n        /* \"#utility.yul\":584:647   */\n      mstore\n        /* \"#utility.yul\":707:711   */\n      0x60\n        /* \"#utility.yul\":695:712   */\n      dup1\n      dup5\n      add\n        /* \"#utility.yul\":689:713   */\n      mload\n        /* \"#utility.yul\":685:718   */\n      swap1\n      swap2\n      and\n        /* \"#utility.yul\":663:683   */\n      swap1\n      dup3\n      add\n        /* \"#utility.yul\":656:719   */\n      mstore\n        /* \"#utility.yul\":775:779   */\n      0x80\n        /* \"#utility.yul\":763:780   */\n      dup1\n      dup4\n      add\n        /* \"#utility.yul\":757:781   */\n      mload\n        /* \"#utility.yul\":735:755   */\n      swap1\n      dup3\n      add\n        /* \"#utility.yul\":728:782   */\n      mstore\n        /* \"#utility.yul\":504:507   */\n      0xa0\n        /* \"#utility.yul\":840:857   */\n      swap2\n      dup3\n      add\n        /* \"#utility.yul\":834:858   */\n      mload\n        /* \"#utility.yul\":827:859   */\n      iszero\n        /* \"#utility.yul\":820:860   */\n      iszero\n        /* \"#utility.yul\":798:818   */\n      swap2\n      dup2\n      add\n        /* \"#utility.yul\":791:861   */\n      swap2\n      swap1\n      swap2\n      mstore\n        /* \"#utility.yul\":379:382   */\n      0xc0\n        /* \"#utility.yul\":364:383   */\n      add\n      swap1\n        /* \"#utility.yul\":199:867   */\n      jump\n        /* \"solidity-contracts/contracts/Retailer.sol\":1977:2088  function getPaymentInfo(bytes32 id) external view returns (Payment memory) {... */\n    tag_13:\n      mload(0x40)\n      dup1\n      swap2\n      sub\n      swap1\n      return\n        /* \"solidity-contracts/contracts/Retailer.sol\":507:1320  function pay(address payable seller, uint256 amount, IERC20 token) external payable {... */\n    tag_4:\n      tag_5\n      tag_16\n      calldatasize\n      0x04\n      tag_17\n      jump\t// in\n    tag_16:\n      tag_18\n      jump\t// in\n        /* \"solidity-contracts/contracts/Retailer.sol\":1326:1971  function refund(bytes32 id) external payable onlySeller(id) {... */\n    tag_8:\n        /* \"solidity-contracts/contracts/Retailer.sol\":2220:2236  Payment memory p */\n      0x00\n        /* \"solidity-contracts/contracts/Retailer.sol\":2239:2251  payments[id] */\n      dup2\n      dup2\n      mstore\n      0x20\n      dup2\n      dup2\n      mstore\n      0x40\n      swap2\n      dup3\n      swap1\n      keccak256\n        /* \"solidity-contracts/contracts/Retailer.sol\":2220:2251  Payment memory p = payments[id] */\n      dup3\n      mload\n      0xc0\n      dup2\n      add\n      dup5\n      mstore\n      dup2\n      sload\n      dup2\n      mstore\n      0x01\n      dup3\n      add\n      sload\n      sub(shl(0xa0, 0x01), 0x01)\n      swap1\n      dup2\n      and\n      swap4\n      dup3\n      add\n      dup5\n      swap1\n      mstore\n      0x02\n      dup4\n      add\n      sload\n      dup2\n      and\n      swap5\n      dup3\n      add\n      swap5\n      swap1\n      swap5\n      mstore\n      0x03\n      dup3\n      add\n      sload\n      swap1\n      swap4\n      and\n      0x60\n      dup5\n      add\n      mstore\n      0x04\n      dup2\n      add\n      sload\n      0x80\n      dup5\n      add\n      mstore\n      0x05\n      add\n      sload\n      0xff\n      and\n      iszero\n      iszero\n      0xa0\n      dup4\n      add\n      mstore\n        /* \"solidity-contracts/contracts/Retailer.sol\":1382:1384  id */\n      dup3\n      swap2\n        /* \"solidity-contracts/contracts/Retailer.sol\":2220:2251  Payment memory p = payments[id] */\n      swap1\n        /* \"solidity-contracts/contracts/Retailer.sol\":2269:2279  msg.sender */\n      caller\n        /* \"solidity-contracts/contracts/Retailer.sol\":2269:2291  msg.sender == p.seller */\n      eq\n        /* \"solidity-contracts/contracts/Retailer.sol\":2261:2318  require(msg.sender == p.seller, \"You are not the seller\") */\n      tag_20\n      jumpi\n      mload(0x40)\n      shl(0xe5, 0x461bcd)\n      dup2\n      mstore\n        /* \"#utility.yul\":1716:1718   */\n      0x20\n        /* \"solidity-contracts/contracts/Retailer.sol\":2261:2318  require(msg.sender == p.seller, \"You are not the seller\") */\n      0x04\n      dup3\n      add\n        /* \"#utility.yul\":1698:1719   */\n      mstore\n        /* \"#utility.yul\":1755:1757   */\n      0x16\n        /* \"#utility.yul\":1735:1753   */\n      0x24\n      dup3\n      add\n        /* \"#utility.yul\":1728:1758   */\n      mstore\n      shl(0x51, 0x2cb7ba9030b932903737ba103a34329039b2b63632b9)\n        /* \"#utility.yul\":1774:1792   */\n      0x44\n      dup3\n      add\n        /* \"#utility.yul\":1767:1819   */\n      mstore\n        /* \"#utility.yul\":1836:1854   */\n      0x64\n      add\n        /* \"solidity-contracts/contracts/Retailer.sol\":2261:2318  require(msg.sender == p.seller, \"You are not the seller\") */\n    tag_21:\n      mload(0x40)\n      dup1\n      swap2\n      sub\n      swap1\n      revert\n    tag_20:\n        /* \"solidity-contracts/contracts/Retailer.sol\":1396:1412  Payment memory p */\n      0x00\n        /* \"solidity-contracts/contracts/Retailer.sol\":1415:1427  payments[id] */\n      dup4\n      dup2\n      mstore\n      0x20\n      dup2\n      dup2\n      mstore\n      0x40\n      swap2\n      dup3\n      swap1\n      keccak256\n        /* \"solidity-contracts/contracts/Retailer.sol\":1396:1427  Payment memory p = payments[id] */\n      dup3\n      mload\n      0xc0\n      dup2\n      add\n      dup5\n      mstore\n      dup2\n      sload\n      dup2\n      mstore\n      0x01\n      dup1\n      dup4\n      add\n      sload\n      sub(shl(0xa0, 0x01), 0x01)\n      swap1\n      dup2\n      and\n      swap5\n      dup4\n      add\n      swap5\n      swap1\n      swap5\n      mstore\n      0x02\n      dup4\n      add\n      sload\n      dup5\n      and\n      swap5\n      dup3\n      add\n      swap5\n      swap1\n      swap5\n      mstore\n      0x03\n      dup3\n      add\n      sload\n      swap1\n      swap3\n      and\n      0x60\n      dup4\n      add\n      mstore\n      0x04\n      dup2\n      add\n      sload\n      0x80\n      dup4\n      add\n      mstore\n      0x05\n      add\n      sload\n      0xff\n      and\n      iszero\n      iszero\n      0xa0\n      dup3\n      add\n      dup2\n      swap1\n      mstore\n      swap1\n      swap2\n        /* \"solidity-contracts/contracts/Retailer.sol\":1445:1463  p.refunded != true */\n      sub\n        /* \"solidity-contracts/contracts/Retailer.sol\":1437:1503  require(p.refunded != true, \"You have already requested a refund\") */\n      tag_24\n      jumpi\n      mload(0x40)\n      shl(0xe5, 0x461bcd)\n      dup2\n      mstore\n        /* \"#utility.yul\":2067:2069   */\n      0x20\n        /* \"solidity-contracts/contracts/Retailer.sol\":1437:1503  require(p.refunded != true, \"You have already requested a refund\") */\n      0x04\n      dup3\n      add\n        /* \"#utility.yul\":2049:2070   */\n      mstore\n        /* \"#utility.yul\":2106:2108   */\n      0x23\n        /* \"#utility.yul\":2086:2104   */\n      0x24\n      dup3\n      add\n        /* \"#utility.yul\":2079:2109   */\n      mstore\n        /* \"#utility.yul\":2145:2179   */\n      0x596f75206861766520616c726561647920726571756573746564206120726566\n        /* \"#utility.yul\":2125:2143   */\n      0x44\n      dup3\n      add\n        /* \"#utility.yul\":2118:2180   */\n      mstore\n      shl(0xea, 0x1d5b99)\n        /* \"#utility.yul\":2196:2214   */\n      0x64\n      dup3\n      add\n        /* \"#utility.yul\":2189:2222   */\n      mstore\n        /* \"#utility.yul\":2239:2258   */\n      0x84\n      add\n        /* \"solidity-contracts/contracts/Retailer.sol\":1437:1503  require(p.refunded != true, \"You have already requested a refund\") */\n      tag_21\n        /* \"#utility.yul\":1865:2264   */\n      jump\n        /* \"solidity-contracts/contracts/Retailer.sol\":1437:1503  require(p.refunded != true, \"You have already requested a refund\") */\n    tag_24:\n        /* \"solidity-contracts/contracts/Retailer.sol\":1525:1532  p.token */\n      0x60\n      dup2\n      add\n      mload\n      sub(shl(0xa0, 0x01), 0x01)\n        /* \"solidity-contracts/contracts/Retailer.sol\":1517:1547  address(p.token) == address(0) */\n      and\n        /* \"solidity-contracts/contracts/Retailer.sol\":1513:1839  if (address(p.token) == address(0)) {... */\n      tag_27\n      jumpi\n        /* \"solidity-contracts/contracts/Retailer.sol\":1564:1576  bool success */\n      0x00\n        /* \"solidity-contracts/contracts/Retailer.sol\":1582:1583  p */\n      dup2\n        /* \"solidity-contracts/contracts/Retailer.sol\":1582:1589  p.buyer */\n      0x40\n      add\n      mload\n      sub(shl(0xa0, 0x01), 0x01)\n        /* \"solidity-contracts/contracts/Retailer.sol\":1582:1594  p.buyer.call */\n      and\n        /* \"solidity-contracts/contracts/Retailer.sol\":1602:1603  p */\n      dup3\n        /* \"solidity-contracts/contracts/Retailer.sol\":1602:1610  p.amount */\n      0x80\n      add\n      mload\n        /* \"solidity-contracts/contracts/Retailer.sol\":1582:1615  p.buyer.call{value: p.amount}(\"\") */\n      mload(0x40)\n      0x00\n      mload(0x40)\n      dup1\n      dup4\n      sub\n      dup2\n      dup6\n      dup8\n      gas\n      call\n      swap3\n      pop\n      pop\n      pop\n      returndatasize\n      dup1\n      0x00\n      dup2\n      eq\n      tag_32\n      jumpi\n      mload(0x40)\n      swap2\n      pop\n      and(add(returndatasize, 0x3f), not(0x1f))\n      dup3\n      add\n      0x40\n      mstore\n      returndatasize\n      dup3\n      mstore\n      returndatasize\n      0x00\n      0x20\n      dup5\n      add\n      returndatacopy\n      jump(tag_31)\n    tag_32:\n      0x60\n      swap2\n      pop\n    tag_31:\n      pop\n        /* \"solidity-contracts/contracts/Retailer.sol\":1563:1615  (bool success, ) = p.buyer.call{value: p.amount}(\"\") */\n      pop\n      swap1\n      pop\n        /* \"solidity-contracts/contracts/Retailer.sol\":1637:1644  success */\n      dup1\n        /* \"solidity-contracts/contracts/Retailer.sol\":1629:1669  require(success, \"Failed to send Ether\") */\n      tag_33\n      jumpi\n      mload(0x40)\n      shl(0xe5, 0x461bcd)\n      dup2\n      mstore\n        /* \"#utility.yul\":2681:2683   */\n      0x20\n        /* \"solidity-contracts/contracts/Retailer.sol\":1629:1669  require(success, \"Failed to send Ether\") */\n      0x04\n      dup3\n      add\n        /* \"#utility.yul\":2663:2684   */\n      mstore\n        /* \"#utility.yul\":2720:2722   */\n      0x14\n        /* \"#utility.yul\":2700:2718   */\n      0x24\n      dup3\n      add\n        /* \"#utility.yul\":2693:2723   */\n      mstore\n      shl(0x61, 0x2330b4b632b2103a379039b2b7321022ba3432b9)\n        /* \"#utility.yul\":2739:2757   */\n      0x44\n      dup3\n      add\n        /* \"#utility.yul\":2732:2782   */\n      mstore\n        /* \"#utility.yul\":2799:2817   */\n      0x64\n      add\n        /* \"solidity-contracts/contracts/Retailer.sol\":1629:1669  require(success, \"Failed to send Ether\") */\n      tag_21\n        /* \"#utility.yul\":2479:2823   */\n      jump\n        /* \"solidity-contracts/contracts/Retailer.sol\":1629:1669  require(success, \"Failed to send Ether\") */\n    tag_33:\n        /* \"solidity-contracts/contracts/Retailer.sol\":1549:1680  {... */\n      pop\n        /* \"solidity-contracts/contracts/Retailer.sol\":1513:1839  if (address(p.token) == address(0)) {... */\n      jump(tag_36)\n    tag_27:\n        /* \"solidity-contracts/contracts/Retailer.sol\":1716:1723  p.token */\n      0x60\n      dup2\n      add\n      mload\n        /* \"solidity-contracts/contracts/Retailer.sol\":1749:1756  p.buyer */\n      0x40\n      dup1\n      dup4\n      add\n      mload\n        /* \"solidity-contracts/contracts/Retailer.sol\":1758:1766  p.amount */\n      0x80\n      dup5\n      add\n      mload\n        /* \"solidity-contracts/contracts/Retailer.sol\":1716:1767  p.token.transferFrom(msg.sender, p.buyer, p.amount) */\n      swap2\n      mload\n      shl(0xe0, 0x23b872dd)\n      dup2\n      mstore\n        /* \"solidity-contracts/contracts/Retailer.sol\":1737:1747  msg.sender */\n      caller\n        /* \"solidity-contracts/contracts/Retailer.sol\":1716:1767  p.token.transferFrom(msg.sender, p.buyer, p.amount) */\n      0x04\n      dup3\n      add\n        /* \"#utility.yul\":3068:3102   */\n      mstore\n      sub(shl(0xa0, 0x01), 0x01)\n        /* \"#utility.yul\":3138:3153   */\n      swap2\n      dup3\n      and\n        /* \"#utility.yul\":3118:3136   */\n      0x24\n      dup3\n      add\n        /* \"#utility.yul\":3111:3154   */\n      mstore\n        /* \"#utility.yul\":3170:3188   */\n      0x44\n      dup2\n      add\n        /* \"#utility.yul\":3163:3197   */\n      swap3\n      swap1\n      swap3\n      mstore\n        /* \"solidity-contracts/contracts/Retailer.sol\":1701:1713  bool success */\n      0x00\n      swap3\n        /* \"solidity-contracts/contracts/Retailer.sol\":1716:1736  p.token.transferFrom */\n      and\n      swap1\n      0x23b872dd\n      swap1\n        /* \"#utility.yul\":3003:3021   */\n      0x64\n      add\n        /* \"solidity-contracts/contracts/Retailer.sol\":1716:1767  p.token.transferFrom(msg.sender, p.buyer, p.amount) */\n      0x20\n      mload(0x40)\n      dup1\n      dup4\n      sub\n      dup2\n      0x00\n      dup8\n      gas\n      call\n      iszero\n      dup1\n      iszero\n      tag_40\n      jumpi\n      returndatasize\n      0x00\n      dup1\n      returndatacopy\n      revert(0x00, returndatasize)\n    tag_40:\n      pop\n      pop\n      pop\n      pop\n      mload(0x40)\n      returndatasize\n      not(0x1f)\n      0x1f\n      dup3\n      add\n      and\n      dup3\n      add\n      dup1\n      0x40\n      mstore\n      pop\n      dup2\n      add\n      swap1\n      tag_41\n      swap2\n      swap1\n      tag_42\n      jump\t// in\n    tag_41:\n        /* \"solidity-contracts/contracts/Retailer.sol\":1701:1767  bool success = p.token.transferFrom(msg.sender, p.buyer, p.amount) */\n      swap1\n      pop\n        /* \"solidity-contracts/contracts/Retailer.sol\":1789:1796  success */\n      dup1\n        /* \"solidity-contracts/contracts/Retailer.sol\":1781:1828  require(success, \"Failed to send ERC-20 Token\") */\n      tag_43\n      jumpi\n      mload(0x40)\n      shl(0xe5, 0x461bcd)\n      dup2\n      mstore\n        /* \"#utility.yul\":3692:3694   */\n      0x20\n        /* \"solidity-contracts/contracts/Retailer.sol\":1781:1828  require(success, \"Failed to send ERC-20 Token\") */\n      0x04\n      dup3\n      add\n        /* \"#utility.yul\":3674:3695   */\n      mstore\n        /* \"#utility.yul\":3731:3733   */\n      0x1b\n        /* \"#utility.yul\":3711:3729   */\n      0x24\n      dup3\n      add\n        /* \"#utility.yul\":3704:3734   */\n      mstore\n        /* \"#utility.yul\":3770:3799   */\n      0x4661696c656420746f2073656e64204552432d323020546f6b656e0000000000\n        /* \"#utility.yul\":3750:3768   */\n      0x44\n      dup3\n      add\n        /* \"#utility.yul\":3743:3800   */\n      mstore\n        /* \"#utility.yul\":3817:3835   */\n      0x64\n      add\n        /* \"solidity-contracts/contracts/Retailer.sol\":1781:1828  require(success, \"Failed to send ERC-20 Token\") */\n      tag_21\n        /* \"#utility.yul\":3490:3841   */\n      jump\n        /* \"solidity-contracts/contracts/Retailer.sol\":1781:1828  require(success, \"Failed to send ERC-20 Token\") */\n    tag_43:\n        /* \"solidity-contracts/contracts/Retailer.sol\":1687:1839  {... */\n      pop\n        /* \"solidity-contracts/contracts/Retailer.sol\":1513:1839  if (address(p.token) == address(0)) {... */\n    tag_36:\n        /* \"solidity-contracts/contracts/Retailer.sol\":1862:1867  false */\n      0x00\n        /* \"solidity-contracts/contracts/Retailer.sol\":1849:1859  p.refunded */\n      0xa0\n      dup3\n      add\n        /* \"solidity-contracts/contracts/Retailer.sol\":1849:1867  p.refunded = false */\n      dup2\n      dup2\n      mstore\n        /* \"solidity-contracts/contracts/Retailer.sol\":1877:1889  payments[id] */\n      dup6\n      dup3\n      mstore\n      0x20\n      dup3\n      dup2\n      mstore\n      0x40\n      dup1\n      dup5\n      keccak256\n        /* \"solidity-contracts/contracts/Retailer.sol\":1877:1893  payments[id] = p */\n      dup6\n      mload\n      dup1\n      dup3\n      sstore\n      swap3\n      dup7\n      add\n      mload\n        /* \"solidity-contracts/contracts/Retailer.sol\":1849:1867  p.refunded = false */\n      0x01\n        /* \"solidity-contracts/contracts/Retailer.sol\":1877:1893  payments[id] = p */\n      dup3\n      add\n      dup1\n      sload\n      not(sub(shl(0xa0, 0x01), 0x01))\n      swap1\n      dup2\n      and\n      sub(shl(0xa0, 0x01), 0x01)\n      swap4\n      dup5\n      and\n      or\n      swap1\n      swap2\n      sstore\n      dup4\n      dup9\n      add\n      mload\n      0x02\n      dup5\n      add\n      dup1\n      sload\n      dup4\n      and\n      swap2\n      dup5\n      and\n      swap2\n      swap1\n      swap2\n      or\n      swap1\n      sstore\n      0x60\n      dup9\n      add\n      mload\n      0x03\n      dup5\n      add\n      dup1\n      sload\n      swap1\n      swap3\n      and\n      swap3\n      and\n      swap2\n      swap1\n      swap2\n      or\n      swap1\n      sstore\n      0x80\n      dup7\n      add\n      mload\n      0x04\n      dup3\n      add\n      dup2\n      swap1\n      sstore\n      swap4\n      mload\n      0x05\n      swap1\n      swap2\n      add\n      dup1\n      sload\n      not(0xff)\n      and\n      swap2\n      iszero\n      iszero\n      swap2\n      swap1\n      swap2\n      or\n      swap1\n      sstore\n        /* \"solidity-contracts/contracts/Retailer.sol\":1938:1964  RefundSent(p.id, p.amount) */\n      mload\n        /* \"solidity-contracts/contracts/Retailer.sol\":1877:1893  payments[id] = p */\n      swap2\n      swap3\n      swap1\n      swap2\n        /* \"solidity-contracts/contracts/Retailer.sol\":1938:1964  RefundSent(p.id, p.amount) */\n      0xa295773e5a17bf06d6f5f4cde6a2ca242f10deca9d6f8b5d36c8c548fc40464a\n      swap2\n        /* \"solidity-contracts/contracts/Retailer.sol\":1862:1867  false */\n      swap1\n        /* \"solidity-contracts/contracts/Retailer.sol\":1938:1964  RefundSent(p.id, p.amount) */\n      log3\n        /* \"solidity-contracts/contracts/Retailer.sol\":1386:1971  {... */\n      pop\n        /* \"solidity-contracts/contracts/Retailer.sol\":2126:2336  {... */\n      pop\n        /* \"solidity-contracts/contracts/Retailer.sol\":1326:1971  function refund(bytes32 id) external payable onlySeller(id) {... */\n      pop\n      pop\n      jump\t// out\n        /* \"solidity-contracts/contracts/Retailer.sol\":507:1320  function pay(address payable seller, uint256 amount, IERC20 token) external payable {... */\n    tag_18:\n        /* \"solidity-contracts/contracts/Retailer.sol\":634:643  msg.value */\n      callvalue\n        /* \"solidity-contracts/contracts/Retailer.sol\":634:648  msg.value != 0 */\n      iszero\n        /* \"solidity-contracts/contracts/Retailer.sol\":630:1001  if (msg.value != 0) {... */\n      tag_50\n      jumpi\n        /* \"solidity-contracts/contracts/Retailer.sol\":704:716  bool success */\n      0x00\n        /* \"solidity-contracts/contracts/Retailer.sol\":722:728  seller */\n      dup4\n      sub(shl(0xa0, 0x01), 0x01)\n        /* \"solidity-contracts/contracts/Retailer.sol\":722:733  seller.call */\n      and\n        /* \"solidity-contracts/contracts/Retailer.sol\":741:750  msg.value */\n      callvalue\n        /* \"solidity-contracts/contracts/Retailer.sol\":722:755  seller.call{value: msg.value}(\"\") */\n      mload(0x40)\n      0x00\n      mload(0x40)\n      dup1\n      dup4\n      sub\n      dup2\n      dup6\n      dup8\n      gas\n      call\n      swap3\n      pop\n      pop\n      pop\n      returndatasize\n      dup1\n      0x00\n      dup2\n      eq\n      tag_54\n      jumpi\n      mload(0x40)\n      swap2\n      pop\n      and(add(returndatasize, 0x3f), not(0x1f))\n      dup3\n      add\n      0x40\n      mstore\n      returndatasize\n      dup3\n      mstore\n      returndatasize\n      0x00\n      0x20\n      dup5\n      add\n      returndatacopy\n      jump(tag_53)\n    tag_54:\n      0x60\n      swap2\n      pop\n    tag_53:\n      pop\n        /* \"solidity-contracts/contracts/Retailer.sol\":703:755  (bool success, ) = seller.call{value: msg.value}(\"\") */\n      pop\n      swap1\n      pop\n        /* \"solidity-contracts/contracts/Retailer.sol\":777:784  success */\n      dup1\n        /* \"solidity-contracts/contracts/Retailer.sol\":769:809  require(success, \"Failed to send Ether\") */\n      tag_55\n      jumpi\n      mload(0x40)\n      shl(0xe5, 0x461bcd)\n      dup2\n      mstore\n        /* \"#utility.yul\":2681:2683   */\n      0x20\n        /* \"solidity-contracts/contracts/Retailer.sol\":769:809  require(success, \"Failed to send Ether\") */\n      0x04\n      dup3\n      add\n        /* \"#utility.yul\":2663:2684   */\n      mstore\n        /* \"#utility.yul\":2720:2722   */\n      0x14\n        /* \"#utility.yul\":2700:2718   */\n      0x24\n      dup3\n      add\n        /* \"#utility.yul\":2693:2723   */\n      mstore\n      shl(0x61, 0x2330b4b632b2103a379039b2b7321022ba3432b9)\n        /* \"#utility.yul\":2739:2757   */\n      0x44\n      dup3\n      add\n        /* \"#utility.yul\":2732:2782   */\n      mstore\n        /* \"#utility.yul\":2799:2817   */\n      0x64\n      add\n        /* \"solidity-contracts/contracts/Retailer.sol\":769:809  require(success, \"Failed to send Ether\") */\n      tag_21\n        /* \"#utility.yul\":2479:2823   */\n      jump\n        /* \"solidity-contracts/contracts/Retailer.sol\":769:809  require(success, \"Failed to send Ether\") */\n    tag_55:\n        /* \"solidity-contracts/contracts/Retailer.sol\":650:820  {... */\n      pop\n        /* \"solidity-contracts/contracts/Retailer.sol\":630:1001  if (msg.value != 0) {... */\n      jump(tag_57)\n    tag_50:\n        /* \"solidity-contracts/contracts/Retailer.sol\":883:929  token.transferFrom(msg.sender, seller, amount) */\n      mload(0x40)\n      shl(0xe0, 0x23b872dd)\n      dup2\n      mstore\n        /* \"solidity-contracts/contracts/Retailer.sol\":902:912  msg.sender */\n      caller\n        /* \"solidity-contracts/contracts/Retailer.sol\":883:929  token.transferFrom(msg.sender, seller, amount) */\n      0x04\n      dup3\n      add\n        /* \"#utility.yul\":3068:3102   */\n      mstore\n      sub(shl(0xa0, 0x01), 0x01)\n        /* \"#utility.yul\":3138:3153   */\n      dup5\n      dup2\n      and\n        /* \"#utility.yul\":3118:3136   */\n      0x24\n      dup4\n      add\n        /* \"#utility.yul\":3111:3154   */\n      mstore\n        /* \"#utility.yul\":3170:3188   */\n      0x44\n      dup3\n      add\n        /* \"#utility.yul\":3163:3197   */\n      dup5\n      swap1\n      mstore\n        /* \"solidity-contracts/contracts/Retailer.sol\":868:880  bool success */\n      0x00\n      swap2\n        /* \"solidity-contracts/contracts/Retailer.sol\":883:901  token.transferFrom */\n      swap1\n      dup4\n      and\n      swap1\n      0x23b872dd\n      swap1\n        /* \"#utility.yul\":3003:3021   */\n      0x64\n      add\n        /* \"solidity-contracts/contracts/Retailer.sol\":883:929  token.transferFrom(msg.sender, seller, amount) */\n      0x20\n      mload(0x40)\n      dup1\n      dup4\n      sub\n      dup2\n      0x00\n      dup8\n      gas\n      call\n      iszero\n      dup1\n      iszero\n      tag_61\n      jumpi\n      returndatasize\n      0x00\n      dup1\n      returndatacopy\n      revert(0x00, returndatasize)\n    tag_61:\n      pop\n      pop\n      pop\n      pop\n      mload(0x40)\n      returndatasize\n      not(0x1f)\n      0x1f\n      dup3\n      add\n      and\n      dup3\n      add\n      dup1\n      0x40\n      mstore\n      pop\n      dup2\n      add\n      swap1\n      tag_62\n      swap2\n      swap1\n      tag_42\n      jump\t// in\n    tag_62:\n        /* \"solidity-contracts/contracts/Retailer.sol\":868:929  bool success = token.transferFrom(msg.sender, seller, amount) */\n      swap1\n      pop\n        /* \"solidity-contracts/contracts/Retailer.sol\":951:958  success */\n      dup1\n        /* \"solidity-contracts/contracts/Retailer.sol\":943:990  require(success, \"Failed to send ERC-20 Token\") */\n      tag_63\n      jumpi\n      mload(0x40)\n      shl(0xe5, 0x461bcd)\n      dup2\n      mstore\n        /* \"#utility.yul\":3692:3694   */\n      0x20\n        /* \"solidity-contracts/contracts/Retailer.sol\":943:990  require(success, \"Failed to send ERC-20 Token\") */\n      0x04\n      dup3\n      add\n        /* \"#utility.yul\":3674:3695   */\n      mstore\n        /* \"#utility.yul\":3731:3733   */\n      0x1b\n        /* \"#utility.yul\":3711:3729   */\n      0x24\n      dup3\n      add\n        /* \"#utility.yul\":3704:3734   */\n      mstore\n        /* \"#utility.yul\":3770:3799   */\n      0x4661696c656420746f2073656e64204552432d323020546f6b656e0000000000\n        /* \"#utility.yul\":3750:3768   */\n      0x44\n      dup3\n      add\n        /* \"#utility.yul\":3743:3800   */\n      mstore\n        /* \"#utility.yul\":3817:3835   */\n      0x64\n      add\n        /* \"solidity-contracts/contracts/Retailer.sol\":943:990  require(success, \"Failed to send ERC-20 Token\") */\n      tag_21\n        /* \"#utility.yul\":3490:3841   */\n      jump\n        /* \"solidity-contracts/contracts/Retailer.sol\":943:990  require(success, \"Failed to send ERC-20 Token\") */\n    tag_63:\n        /* \"solidity-contracts/contracts/Retailer.sol\":826:1001  {... */\n      pop\n        /* \"solidity-contracts/contracts/Retailer.sol\":630:1001  if (msg.value != 0) {... */\n    tag_57:\n        /* \"solidity-contracts/contracts/Retailer.sol\":1083:1144  abi.encodePacked(seller, msg.sender, amount, block.timestamp) */\n      mload(0x40)\n      not(0xffffffffffffffffffffffff)\n        /* \"#utility.yul\":4533:4535   */\n      0x60\n        /* \"#utility.yul\":4529:4544   */\n      dup6\n      dup2\n      shl\n        /* \"#utility.yul\":4525:4549   */\n      dup3\n      and\n        /* \"solidity-contracts/contracts/Retailer.sol\":1083:1144  abi.encodePacked(seller, msg.sender, amount, block.timestamp) */\n      0x20\n      dup5\n      add\n        /* \"#utility.yul\":4513:4550   */\n      mstore\n        /* \"solidity-contracts/contracts/Retailer.sol\":1108:1118  msg.sender */\n      caller\n        /* \"#utility.yul\":4584:4599   */\n      swap1\n      shl\n        /* \"#utility.yul\":4580:4604   */\n      and\n        /* \"#utility.yul\":4566:4578   */\n      0x34\n      dup3\n      add\n        /* \"#utility.yul\":4559:4605   */\n      mstore\n        /* \"#utility.yul\":4621:4633   */\n      0x48\n      dup2\n      add\n        /* \"#utility.yul\":4614:4642   */\n      dup4\n      swap1\n      mstore\n        /* \"solidity-contracts/contracts/Retailer.sol\":1128:1143  block.timestamp */\n      timestamp\n        /* \"#utility.yul\":4658:4670   */\n      0x68\n      dup3\n      add\n        /* \"#utility.yul\":4651:4679   */\n      mstore\n        /* \"solidity-contracts/contracts/Retailer.sol\":1060:1070  bytes32 id */\n      0x00\n      swap1\n        /* \"#utility.yul\":4695:4708   */\n      0x88\n      add\n        /* \"solidity-contracts/contracts/Retailer.sol\":1083:1144  abi.encodePacked(seller, msg.sender, amount, block.timestamp) */\n      0x40\n      dup1\n      mload\n      not(0x1f)\n      dup2\n      dup5\n      sub\n      add\n      dup2\n      mstore\n      dup3\n      dup3\n      mstore\n        /* \"solidity-contracts/contracts/Retailer.sol\":1073:1145  keccak256(abi.encodePacked(seller, msg.sender, amount, block.timestamp)) */\n      dup1\n      mload\n        /* \"solidity-contracts/contracts/Retailer.sol\":1083:1144  abi.encodePacked(seller, msg.sender, amount, block.timestamp) */\n      0x20\n        /* \"solidity-contracts/contracts/Retailer.sol\":1073:1145  keccak256(abi.encodePacked(seller, msg.sender, amount, block.timestamp)) */\n      swap2\n      dup3\n      add\n      keccak256\n        /* \"solidity-contracts/contracts/Retailer.sol\":1174:1227  Payment(id, seller, msg.sender, token, amount, false) */\n      0xc0\n      dup5\n      add\n      dup4\n      mstore\n      dup1\n      dup5\n      mstore\n      sub(shl(0xa0, 0x01), 0x01)\n      dup1\n      dup10\n      and\n      dup6\n      dup5\n      add\n      swap1\n      dup2\n      mstore\n        /* \"solidity-contracts/contracts/Retailer.sol\":1194:1204  msg.sender */\n      caller\n        /* \"solidity-contracts/contracts/Retailer.sol\":1174:1227  Payment(id, seller, msg.sender, token, amount, false) */\n      dup7\n      dup7\n      add\n      swap1\n      dup2\n      mstore\n      dup9\n      dup4\n      and\n      0x60\n      dup9\n      add\n      swap1\n      dup2\n      mstore\n      0x80\n      dup9\n      add\n      dup12\n      dup2\n      mstore\n        /* \"solidity-contracts/contracts/Retailer.sol\":1155:1171  Payment memory p */\n      0x00\n        /* \"solidity-contracts/contracts/Retailer.sol\":1174:1227  Payment(id, seller, msg.sender, token, amount, false) */\n      0xa0\n      dup11\n      add\n      dup2\n      dup2\n      mstore\n        /* \"solidity-contracts/contracts/Retailer.sol\":1237:1249  payments[id] */\n      dup8\n      dup3\n      mstore\n      swap8\n      dup2\n      swap1\n      mstore\n      dup9\n      dup2\n      keccak256\n        /* \"solidity-contracts/contracts/Retailer.sol\":1237:1253  payments[id] = p */\n      dup11\n      mload\n      dup2\n      sstore\n      swap5\n      mload\n        /* \"solidity-contracts/contracts/Retailer.sol\":1174:1227  Payment(id, seller, msg.sender, token, amount, false) */\n      0x01\n        /* \"solidity-contracts/contracts/Retailer.sol\":1237:1253  payments[id] = p */\n      dup7\n      add\n      dup1\n      sload\n      swap2\n      dup9\n      and\n      not(sub(shl(0xa0, 0x01), 0x01))\n      swap3\n      dup4\n      and\n      or\n      swap1\n      sstore\n      swap4\n      mload\n      0x02\n      dup7\n      add\n      dup1\n      sload\n      swap2\n      dup9\n      and\n      swap2\n      dup7\n      and\n      swap2\n      swap1\n      swap2\n      or\n      swap1\n      sstore\n      swap2\n      mload\n      0x03\n      dup6\n      add\n      dup1\n      sload\n      swap2\n      swap1\n      swap7\n      and\n      swap4\n      and\n      swap3\n      swap1\n      swap3\n      or\n      swap1\n      swap4\n      sstore\n      mload\n      0x04\n      dup3\n      add\n      sstore\n      swap3\n      mload\n      0x05\n      swap1\n      swap4\n      add\n      dup1\n      sload\n      swap4\n      iszero\n      iszero\n      not(0xff)\n      swap1\n      swap5\n      and\n      swap4\n      swap1\n      swap4\n      or\n      swap1\n      swap3\n      sstore\n        /* \"solidity-contracts/contracts/Retailer.sol\":1290:1313  PaymentSent(id, amount) */\n      swap2\n      mload\n        /* \"solidity-contracts/contracts/Retailer.sol\":1073:1145  keccak256(abi.encodePacked(seller, msg.sender, amount, block.timestamp)) */\n      swap2\n      swap4\n      pop\n        /* \"solidity-contracts/contracts/Retailer.sol\":1213:1219  amount */\n      dup6\n      swap2\n        /* \"solidity-contracts/contracts/Retailer.sol\":1073:1145  keccak256(abi.encodePacked(seller, msg.sender, amount, block.timestamp)) */\n      dup5\n      swap2\n        /* \"solidity-contracts/contracts/Retailer.sol\":1290:1313  PaymentSent(id, amount) */\n      0xe691874b94feebe07c148c95f48874c79b0ca6edf760b45b64e0723ba22112c5\n      swap2\n      log3\n        /* \"solidity-contracts/contracts/Retailer.sol\":591:1320  {... */\n      pop\n      pop\n        /* \"solidity-contracts/contracts/Retailer.sol\":507:1320  function pay(address payable seller, uint256 amount, IERC20 token) external payable {... */\n      pop\n      pop\n      pop\n      jump\t// out\n        /* \"#utility.yul\":14:194   */\n    tag_7:\n        /* \"#utility.yul\":73:79   */\n      0x00\n        /* \"#utility.yul\":126:128   */\n      0x20\n        /* \"#utility.yul\":114:123   */\n      dup3\n        /* \"#utility.yul\":105:112   */\n      dup5\n        /* \"#utility.yul\":101:124   */\n      sub\n        /* \"#utility.yul\":97:129   */\n      slt\n        /* \"#utility.yul\":94:146   */\n      iszero\n      tag_70\n      jumpi\n        /* \"#utility.yul\":142:143   */\n      0x00\n        /* \"#utility.yul\":139:140   */\n      dup1\n        /* \"#utility.yul\":132:144   */\n      revert\n        /* \"#utility.yul\":94:146   */\n    tag_70:\n      pop\n        /* \"#utility.yul\":165:188   */\n      calldataload\n      swap2\n        /* \"#utility.yul\":14:194   */\n      swap1\n      pop\n      jump\t// out\n        /* \"#utility.yul\":872:1011   */\n    tag_67:\n      sub(shl(0xa0, 0x01), 0x01)\n        /* \"#utility.yul\":955:986   */\n      dup2\n      and\n        /* \"#utility.yul\":945:987   */\n      dup2\n      eq\n        /* \"#utility.yul\":935:1005   */\n      tag_73\n      jumpi\n        /* \"#utility.yul\":1001:1002   */\n      0x00\n        /* \"#utility.yul\":998:999   */\n      dup1\n        /* \"#utility.yul\":991:1003   */\n      revert\n        /* \"#utility.yul\":935:1005   */\n    tag_73:\n        /* \"#utility.yul\":872:1011   */\n      pop\n      jump\t// out\n        /* \"#utility.yul\":1016:1509   */\n    tag_17:\n        /* \"#utility.yul\":1114:1120   */\n      0x00\n        /* \"#utility.yul\":1122:1128   */\n      dup1\n        /* \"#utility.yul\":1130:1136   */\n      0x00\n        /* \"#utility.yul\":1183:1185   */\n      0x60\n        /* \"#utility.yul\":1171:1180   */\n      dup5\n        /* \"#utility.yul\":1162:1169   */\n      dup7\n        /* \"#utility.yul\":1158:1181   */\n      sub\n        /* \"#utility.yul\":1154:1186   */\n      slt\n        /* \"#utility.yul\":1151:1203   */\n      iszero\n      tag_75\n      jumpi\n        /* \"#utility.yul\":1199:1200   */\n      0x00\n        /* \"#utility.yul\":1196:1197   */\n      dup1\n        /* \"#utility.yul\":1189:1201   */\n      revert\n        /* \"#utility.yul\":1151:1203   */\n    tag_75:\n        /* \"#utility.yul\":1238:1247   */\n      dup4\n        /* \"#utility.yul\":1225:1248   */\n      calldataload\n        /* \"#utility.yul\":1257:1296   */\n      tag_76\n        /* \"#utility.yul\":1290:1295   */\n      dup2\n        /* \"#utility.yul\":1257:1296   */\n      tag_67\n      jump\t// in\n    tag_76:\n        /* \"#utility.yul\":1315:1320   */\n      swap3\n      pop\n        /* \"#utility.yul\":1367:1369   */\n      0x20\n        /* \"#utility.yul\":1352:1370   */\n      dup5\n      add\n        /* \"#utility.yul\":1339:1371   */\n      calldataload\n      swap2\n      pop\n        /* \"#utility.yul\":1423:1425   */\n      0x40\n        /* \"#utility.yul\":1408:1426   */\n      dup5\n      add\n        /* \"#utility.yul\":1395:1427   */\n      calldataload\n        /* \"#utility.yul\":1436:1477   */\n      tag_77\n        /* \"#utility.yul\":1395:1427   */\n      dup2\n        /* \"#utility.yul\":1436:1477   */\n      tag_67\n      jump\t// in\n    tag_77:\n        /* \"#utility.yul\":1496:1503   */\n      dup1\n        /* \"#utility.yul\":1486:1503   */\n      swap2\n      pop\n      pop\n        /* \"#utility.yul\":1016:1509   */\n      swap3\n      pop\n      swap3\n      pop\n      swap3\n      jump\t// out\n        /* \"#utility.yul\":3208:3485   */\n    tag_42:\n        /* \"#utility.yul\":3275:3281   */\n      0x00\n        /* \"#utility.yul\":3328:3330   */\n      0x20\n        /* \"#utility.yul\":3316:3325   */\n      dup3\n        /* \"#utility.yul\":3307:3314   */\n      dup5\n        /* \"#utility.yul\":3303:3326   */\n      sub\n        /* \"#utility.yul\":3299:3331   */\n      slt\n        /* \"#utility.yul\":3296:3348   */\n      iszero\n      tag_84\n      jumpi\n        /* \"#utility.yul\":3344:3345   */\n      0x00\n        /* \"#utility.yul\":3341:3342   */\n      dup1\n        /* \"#utility.yul\":3334:3346   */\n      revert\n        /* \"#utility.yul\":3296:3348   */\n    tag_84:\n        /* \"#utility.yul\":3376:3385   */\n      dup2\n        /* \"#utility.yul\":3370:3386   */\n      mload\n        /* \"#utility.yul\":3429:3434   */\n      dup1\n        /* \"#utility.yul\":3422:3435   */\n      iszero\n        /* \"#utility.yul\":3415:3436   */\n      iszero\n        /* \"#utility.yul\":3408:3413   */\n      dup2\n        /* \"#utility.yul\":3405:3437   */\n      eq\n        /* \"#utility.yul\":3395:3455   */\n      tag_85\n      jumpi\n        /* \"#utility.yul\":3451:3452   */\n      0x00\n        /* \"#utility.yul\":3448:3449   */\n      dup1\n        /* \"#utility.yul\":3441:3453   */\n      revert\n        /* \"#utility.yul\":3395:3455   */\n    tag_85:\n        /* \"#utility.yul\":3474:3479   */\n      swap4\n        /* \"#utility.yul\":3208:3485   */\n      swap3\n      pop\n      pop\n      pop\n      jump\t// out\n\n    auxdata: 0xa2646970667358221220ab0da7f00c9e33619318f2ade5d9beb7f06cbc73d7a9c94f29f5174e893b734864736f6c63430008110033\n}\n",
				"bytecode": {
					"linkReferences": {},
					"object": "608060405234801561001057600080fd5b506108bc806100206000396000f3fe6080604052600436106100345760003560e01c80637249fbb614610039578063a75e9b191461004e578063f0fcc6bb1461016a575b600080fd5b61004c6100473660046107ea565b61017d565b005b34801561005a57600080fd5b506101056100693660046107ea565b6040805160c081018252600080825260208201819052918101829052606081018290526080810182905260a08101919091525060009081526020818152604091829020825160c0810184528154815260018201546001600160a01b0390811693820193909352600282015483169381019390935260038101549091166060830152600481015460808301526005015460ff16151560a082015290565b6040516101619190815181526020808301516001600160a01b0390811691830191909152604080840151821690830152606080840151909116908201526080808301519082015260a09182015115159181019190915260c00190565b60405180910390f35b61004c61017836600461081b565b610547565b60008181526020818152604091829020825160c0810184528154815260018201546001600160a01b03908116938201849052600283015481169482019490945260038201549093166060840152600481015460808401526005015460ff16151560a083015282919033146102315760405162461bcd60e51b81526020600482015260166024820152752cb7ba9030b932903737ba103a34329039b2b63632b960511b60448201526064015b60405180910390fd5b60008381526020818152604091829020825160c081018452815481526001808301546001600160a01b0390811694830194909452600283015484169482019490945260038201549092166060830152600481015460808301526005015460ff16151560a082018190529091036102f55760405162461bcd60e51b815260206004820152602360248201527f596f75206861766520616c7265616479207265717565737465642061207265666044820152621d5b9960ea1b6064820152608401610228565b60608101516001600160a01b03166103af57600081604001516001600160a01b0316826080015160405160006040518083038185875af1925050503d806000811461035c576040519150601f19603f3d011682016040523d82523d6000602084013e610361565b606091505b50509050806103a95760405162461bcd60e51b81526020600482015260146024820152732330b4b632b2103a379039b2b7321022ba3432b960611b6044820152606401610228565b5061048b565b6060810151604080830151608084015191516323b872dd60e01b81523360048201526001600160a01b039182166024820152604481019290925260009216906323b872dd906064016020604051808303816000875af1158015610416573d6000803e3d6000fd5b505050506040513d601f19601f8201168201806040525081019061043a919061085d565b9050806104895760405162461bcd60e51b815260206004820152601b60248201527f4661696c656420746f2073656e64204552432d323020546f6b656e00000000006044820152606401610228565b505b600060a08201818152858252602082815260408084208551808255928601516001820180546001600160a01b03199081166001600160a01b03938416179091558388015160028401805483169184169190911790556060880151600384018054909216921691909117905560808601516004820181905593516005909101805460ff191691151591909117905551919290917fa295773e5a17bf06d6f5f4cde6a2ca242f10deca9d6f8b5d36c8c548fc40464a9190a350505050565b34156105ed576000836001600160a01b03163460405160006040518083038185875af1925050503d806000811461059a576040519150601f19603f3d011682016040523d82523d6000602084013e61059f565b606091505b50509050806105e75760405162461bcd60e51b81526020600482015260146024820152732330b4b632b2103a379039b2b7321022ba3432b960611b6044820152606401610228565b506106bb565b6040516323b872dd60e01b81523360048201526001600160a01b03848116602483015260448201849052600091908316906323b872dd906064016020604051808303816000875af1158015610646573d6000803e3d6000fd5b505050506040513d601f19601f8201168201806040525081019061066a919061085d565b9050806106b95760405162461bcd60e51b815260206004820152601b60248201527f4661696c656420746f2073656e64204552432d323020546f6b656e00000000006044820152606401610228565b505b6040516bffffffffffffffffffffffff19606085811b8216602084015233901b1660348201526048810183905242606882015260009060880160408051601f19818403018152828252805160209182012060c0840183528084526001600160a01b038089168584019081523386860190815288831660608801908152608088018b8152600060a08a01818152878252978190528881208a51815594516001860180549188166001600160a01b0319928316179055935160028601805491881691861691909117905591516003850180549190961693169290921790935551600482015592516005909301805493151560ff19909416939093179092559151919350859184917fe691874b94feebe07c148c95f48874c79b0ca6edf760b45b64e0723ba22112c591a35050505050565b6000602082840312156107fc57600080fd5b5035919050565b6001600160a01b038116811461081857600080fd5b50565b60008060006060848603121561083057600080fd5b833561083b81610803565b925060208401359150604084013561085281610803565b809150509250925092565b60006020828403121561086f57600080fd5b8151801515811461087f57600080fd5b939250505056fea2646970667358221220ab0da7f00c9e33619318f2ade5d9beb7f06cbc73d7a9c94f29f5174e893b734864736f6c63430008110033",
					"opcodes": "PUSH1 0x80 PUSH1 0x40 MSTORE CALLVALUE DUP1 ISZERO PUSH2 0x10 JUMPI PUSH1 0x0 DUP1 REVERT JUMPDEST POP PUSH2 0x8BC DUP1 PUSH2 0x20 PUSH1 0x0 CODECOPY PUSH1 0x0 RETURN INVALID PUSH1 0x80 PUSH1 0x40 MSTORE PUSH1 0x4 CALLDATASIZE LT PUSH2 0x34 JUMPI PUSH1 0x0 CALLDATALOAD PUSH1 0xE0 SHR DUP1 PUSH4 0x7249FBB6 EQ PUSH2 0x39 JUMPI DUP1 PUSH4 0xA75E9B19 EQ PUSH2 0x4E JUMPI DUP1 PUSH4 0xF0FCC6BB EQ PUSH2 0x16A JUMPI JUMPDEST PUSH1 0x0 DUP1 REVERT JUMPDEST PUSH2 0x4C PUSH2 0x47 CALLDATASIZE PUSH1 0x4 PUSH2 0x7EA JUMP JUMPDEST PUSH2 0x17D JUMP JUMPDEST STOP JUMPDEST CALLVALUE DUP1 ISZERO PUSH2 0x5A JUMPI PUSH1 0x0 DUP1 REVERT JUMPDEST POP PUSH2 0x105 PUSH2 0x69 CALLDATASIZE PUSH1 0x4 PUSH2 0x7EA JUMP JUMPDEST PUSH1 0x40 DUP1 MLOAD PUSH1 0xC0 DUP2 ADD DUP3 MSTORE PUSH1 0x0 DUP1 DUP3 MSTORE PUSH1 0x20 DUP3 ADD DUP2 SWAP1 MSTORE SWAP2 DUP2 ADD DUP3 SWAP1 MSTORE PUSH1 0x60 DUP2 ADD DUP3 SWAP1 MSTORE PUSH1 0x80 DUP2 ADD DUP3 SWAP1 MSTORE PUSH1 0xA0 DUP2 ADD SWAP2 SWAP1 SWAP2 MSTORE POP PUSH1 0x0 SWAP1 DUP2 MSTORE PUSH1 0x20 DUP2 DUP2 MSTORE PUSH1 0x40 SWAP2 DUP3 SWAP1 KECCAK256 DUP3 MLOAD PUSH1 0xC0 DUP2 ADD DUP5 MSTORE DUP2 SLOAD DUP2 MSTORE PUSH1 0x1 DUP3 ADD SLOAD PUSH1 0x1 PUSH1 0x1 PUSH1 0xA0 SHL SUB SWAP1 DUP2 AND SWAP4 DUP3 ADD SWAP4 SWAP1 SWAP4 MSTORE PUSH1 0x2 DUP3 ADD SLOAD DUP4 AND SWAP4 DUP2 ADD SWAP4 SWAP1 SWAP4 MSTORE PUSH1 0x3 DUP2 ADD SLOAD SWAP1 SWAP2 AND PUSH1 0x60 DUP4 ADD MSTORE PUSH1 0x4 DUP2 ADD SLOAD PUSH1 0x80 DUP4 ADD MSTORE PUSH1 0x5 ADD SLOAD PUSH1 0xFF AND ISZERO ISZERO PUSH1 0xA0 DUP3 ADD MSTORE SWAP1 JUMP JUMPDEST PUSH1 0x40 MLOAD PUSH2 0x161 SWAP2 SWAP1 DUP2 MLOAD DUP2 MSTORE PUSH1 0x20 DUP1 DUP4 ADD MLOAD PUSH1 0x1 PUSH1 0x1 PUSH1 0xA0 SHL SUB SWAP1 DUP2 AND SWAP2 DUP4 ADD SWAP2 SWAP1 SWAP2 MSTORE PUSH1 0x40 DUP1 DUP5 ADD MLOAD DUP3 AND SWAP1 DUP4 ADD MSTORE PUSH1 0x60 DUP1 DUP5 ADD MLOAD SWAP1 SWAP2 AND SWAP1 DUP3 ADD MSTORE PUSH1 0x80 DUP1 DUP4 ADD MLOAD SWAP1 DUP3 ADD MSTORE PUSH1 0xA0 SWAP2 DUP3 ADD MLOAD ISZERO ISZERO SWAP2 DUP2 ADD SWAP2 SWAP1 SWAP2 MSTORE PUSH1 0xC0 ADD SWAP1 JUMP JUMPDEST PUSH1 0x40 MLOAD DUP1 SWAP2 SUB SWAP1 RETURN JUMPDEST PUSH2 0x4C PUSH2 0x178 CALLDATASIZE PUSH1 0x4 PUSH2 0x81B JUMP JUMPDEST PUSH2 0x547 JUMP JUMPDEST PUSH1 0x0 DUP2 DUP2 MSTORE PUSH1 0x20 DUP2 DUP2 MSTORE PUSH1 0x40 SWAP2 DUP3 SWAP1 KECCAK256 DUP3 MLOAD PUSH1 0xC0 DUP2 ADD DUP5 MSTORE DUP2 SLOAD DUP2 MSTORE PUSH1 0x1 DUP3 ADD SLOAD PUSH1 0x1 PUSH1 0x1 PUSH1 0xA0 SHL SUB SWAP1 DUP2 AND SWAP4 DUP3 ADD DUP5 SWAP1 MSTORE PUSH1 0x2 DUP4 ADD SLOAD DUP2 AND SWAP5 DUP3 ADD SWAP5 SWAP1 SWAP5 MSTORE PUSH1 0x3 DUP3 ADD SLOAD SWAP1 SWAP4 AND PUSH1 0x60 DUP5 ADD MSTORE PUSH1 0x4 DUP2 ADD SLOAD PUSH1 0x80 DUP5 ADD MSTORE PUSH1 0x5 ADD SLOAD PUSH1 0xFF AND ISZERO ISZERO PUSH1 0xA0 DUP4 ADD MSTORE DUP3 SWAP2 SWAP1 CALLER EQ PUSH2 0x231 JUMPI PUSH1 0x40 MLOAD PUSH3 0x461BCD PUSH1 0xE5 SHL DUP2 MSTORE PUSH1 0x20 PUSH1 0x4 DUP3 ADD MSTORE PUSH1 0x16 PUSH1 0x24 DUP3 ADD MSTORE PUSH22 0x2CB7BA9030B932903737BA103A34329039B2B63632B9 PUSH1 0x51 SHL PUSH1 0x44 DUP3 ADD MSTORE PUSH1 0x64 ADD JUMPDEST PUSH1 0x40 MLOAD DUP1 SWAP2 SUB SWAP1 REVERT JUMPDEST PUSH1 0x0 DUP4 DUP2 MSTORE PUSH1 0x20 DUP2 DUP2 MSTORE PUSH1 0x40 SWAP2 DUP3 SWAP1 KECCAK256 DUP3 MLOAD PUSH1 0xC0 DUP2 ADD DUP5 MSTORE DUP2 SLOAD DUP2 MSTORE PUSH1 0x1 DUP1 DUP4 ADD SLOAD PUSH1 0x1 PUSH1 0x1 PUSH1 0xA0 SHL SUB SWAP1 DUP2 AND SWAP5 DUP4 ADD SWAP5 SWAP1 SWAP5 MSTORE PUSH1 0x2 DUP4 ADD SLOAD DUP5 AND SWAP5 DUP3 ADD SWAP5 SWAP1 SWAP5 MSTORE PUSH1 0x3 DUP3 ADD SLOAD SWAP1 SWAP3 AND PUSH1 0x60 DUP4 ADD MSTORE PUSH1 0x4 DUP2 ADD SLOAD PUSH1 0x80 DUP4 ADD MSTORE PUSH1 0x5 ADD SLOAD PUSH1 0xFF AND ISZERO ISZERO PUSH1 0xA0 DUP3 ADD DUP2 SWAP1 MSTORE SWAP1 SWAP2 SUB PUSH2 0x2F5 JUMPI PUSH1 0x40 MLOAD PUSH3 0x461BCD PUSH1 0xE5 SHL DUP2 MSTORE PUSH1 0x20 PUSH1 0x4 DUP3 ADD MSTORE PUSH1 0x23 PUSH1 0x24 DUP3 ADD MSTORE PUSH32 0x596F75206861766520616C726561647920726571756573746564206120726566 PUSH1 0x44 DUP3 ADD MSTORE PUSH3 0x1D5B99 PUSH1 0xEA SHL PUSH1 0x64 DUP3 ADD MSTORE PUSH1 0x84 ADD PUSH2 0x228 JUMP JUMPDEST PUSH1 0x60 DUP2 ADD MLOAD PUSH1 0x1 PUSH1 0x1 PUSH1 0xA0 SHL SUB AND PUSH2 0x3AF JUMPI PUSH1 0x0 DUP2 PUSH1 0x40 ADD MLOAD PUSH1 0x1 PUSH1 0x1 PUSH1 0xA0 SHL SUB AND DUP3 PUSH1 0x80 ADD MLOAD PUSH1 0x40 MLOAD PUSH1 0x0 PUSH1 0x40 MLOAD DUP1 DUP4 SUB DUP2 DUP6 DUP8 GAS CALL SWAP3 POP POP POP RETURNDATASIZE DUP1 PUSH1 0x0 DUP2 EQ PUSH2 0x35C JUMPI PUSH1 0x40 MLOAD SWAP2 POP PUSH1 0x1F NOT PUSH1 0x3F RETURNDATASIZE ADD AND DUP3 ADD PUSH1 0x40 MSTORE RETURNDATASIZE DUP3 MSTORE RETURNDATASIZE PUSH1 0x0 PUSH1 0x20 DUP5 ADD RETURNDATACOPY PUSH2 0x361 JUMP JUMPDEST PUSH1 0x60 SWAP2 POP JUMPDEST POP POP SWAP1 POP DUP1 PUSH2 0x3A9 JUMPI PUSH1 0x40 MLOAD PUSH3 0x461BCD PUSH1 0xE5 SHL DUP2 MSTORE PUSH1 0x20 PUSH1 0x4 DUP3 ADD MSTORE PUSH1 0x14 PUSH1 0x24 DUP3 ADD MSTORE PUSH20 0x2330B4B632B2103A379039B2B7321022BA3432B9 PUSH1 0x61 SHL PUSH1 0x44 DUP3 ADD MSTORE PUSH1 0x64 ADD PUSH2 0x228 JUMP JUMPDEST POP PUSH2 0x48B JUMP JUMPDEST PUSH1 0x60 DUP2 ADD MLOAD PUSH1 0x40 DUP1 DUP4 ADD MLOAD PUSH1 0x80 DUP5 ADD MLOAD SWAP2 MLOAD PUSH4 0x23B872DD PUSH1 0xE0 SHL DUP2 MSTORE CALLER PUSH1 0x4 DUP3 ADD MSTORE PUSH1 0x1 PUSH1 0x1 PUSH1 0xA0 SHL SUB SWAP2 DUP3 AND PUSH1 0x24 DUP3 ADD MSTORE PUSH1 0x44 DUP2 ADD SWAP3 SWAP1 SWAP3 MSTORE PUSH1 0x0 SWAP3 AND SWAP1 PUSH4 0x23B872DD SWAP1 PUSH1 0x64 ADD PUSH1 0x20 PUSH1 0x40 MLOAD DUP1 DUP4 SUB DUP2 PUSH1 0x0 DUP8 GAS CALL ISZERO DUP1 ISZERO PUSH2 0x416 JUMPI RETURNDATASIZE PUSH1 0x0 DUP1 RETURNDATACOPY RETURNDATASIZE PUSH1 0x0 REVERT JUMPDEST POP POP POP POP PUSH1 0x40 MLOAD RETURNDATASIZE PUSH1 0x1F NOT PUSH1 0x1F DUP3 ADD AND DUP3 ADD DUP1 PUSH1 0x40 MSTORE POP DUP2 ADD SWAP1 PUSH2 0x43A SWAP2 SWAP1 PUSH2 0x85D JUMP JUMPDEST SWAP1 POP DUP1 PUSH2 0x489 JUMPI PUSH1 0x40 MLOAD PUSH3 0x461BCD PUSH1 0xE5 SHL DUP2 MSTORE PUSH1 0x20 PUSH1 0x4 DUP3 ADD MSTORE PUSH1 0x1B PUSH1 0x24 DUP3 ADD MSTORE PUSH32 0x4661696C656420746F2073656E64204552432D323020546F6B656E0000000000 PUSH1 0x44 DUP3 ADD MSTORE PUSH1 0x64 ADD PUSH2 0x228 JUMP JUMPDEST POP JUMPDEST PUSH1 0x0 PUSH1 0xA0 DUP3 ADD DUP2 DUP2 MSTORE DUP6 DUP3 MSTORE PUSH1 0x20 DUP3 DUP2 MSTORE PUSH1 0x40 DUP1 DUP5 KECCAK256 DUP6 MLOAD DUP1 DUP3 SSTORE SWAP3 DUP7 ADD MLOAD PUSH1 0x1 DUP3 ADD DUP1 SLOAD PUSH1 0x1 PUSH1 0x1 PUSH1 0xA0 SHL SUB NOT SWAP1 DUP2 AND PUSH1 0x1 PUSH1 0x1 PUSH1 0xA0 SHL SUB SWAP4 DUP5 AND OR SWAP1 SWAP2 SSTORE DUP4 DUP9 ADD MLOAD PUSH1 0x2 DUP5 ADD DUP1 SLOAD DUP4 AND SWAP2 DUP5 AND SWAP2 SWAP1 SWAP2 OR SWAP1 SSTORE PUSH1 0x60 DUP9 ADD MLOAD PUSH1 0x3 DUP5 ADD DUP1 SLOAD SWAP1 SWAP3 AND SWAP3 AND SWAP2 SWAP1 SWAP2 OR SWAP1 SSTORE PUSH1 0x80 DUP7 ADD MLOAD PUSH1 0x4 DUP3 ADD DUP2 SWAP1 SSTORE SWAP4 MLOAD PUSH1 0x5 SWAP1 SWAP2 ADD DUP1 SLOAD PUSH1 0xFF NOT AND SWAP2 ISZERO ISZERO SWAP2 SWAP1 SWAP2 OR SWAP1 SSTORE MLOAD SWAP2 SWAP3 SWAP1 SWAP2 PUSH32 0xA295773E5A17BF06D6F5F4CDE6A2CA242F10DECA9D6F8B5D36C8C548FC40464A SWAP2 SWAP1 LOG3 POP POP POP POP JUMP JUMPDEST CALLVALUE ISZERO PUSH2 0x5ED JUMPI PUSH1 0x0 DUP4 PUSH1 0x1 PUSH1 0x1 PUSH1 0xA0 SHL SUB AND CALLVALUE PUSH1 0x40 MLOAD PUSH1 0x0 PUSH1 0x40 MLOAD DUP1 DUP4 SUB DUP2 DUP6 DUP8 GAS CALL SWAP3 POP POP POP RETURNDATASIZE DUP1 PUSH1 0x0 DUP2 EQ PUSH2 0x59A JUMPI PUSH1 0x40 MLOAD SWAP2 POP PUSH1 0x1F NOT PUSH1 0x3F RETURNDATASIZE ADD AND DUP3 ADD PUSH1 0x40 MSTORE RETURNDATASIZE DUP3 MSTORE RETURNDATASIZE PUSH1 0x0 PUSH1 0x20 DUP5 ADD RETURNDATACOPY PUSH2 0x59F JUMP JUMPDEST PUSH1 0x60 SWAP2 POP JUMPDEST POP POP SWAP1 POP DUP1 PUSH2 0x5E7 JUMPI PUSH1 0x40 MLOAD PUSH3 0x461BCD PUSH1 0xE5 SHL DUP2 MSTORE PUSH1 0x20 PUSH1 0x4 DUP3 ADD MSTORE PUSH1 0x14 PUSH1 0x24 DUP3 ADD MSTORE PUSH20 0x2330B4B632B2103A379039B2B7321022BA3432B9 PUSH1 0x61 SHL PUSH1 0x44 DUP3 ADD MSTORE PUSH1 0x64 ADD PUSH2 0x228 JUMP JUMPDEST POP PUSH2 0x6BB JUMP JUMPDEST PUSH1 0x40 MLOAD PUSH4 0x23B872DD PUSH1 0xE0 SHL DUP2 MSTORE CALLER PUSH1 0x4 DUP3 ADD MSTORE PUSH1 0x1 PUSH1 0x1 PUSH1 0xA0 SHL SUB DUP5 DUP2 AND PUSH1 0x24 DUP4 ADD MSTORE PUSH1 0x44 DUP3 ADD DUP5 SWAP1 MSTORE PUSH1 0x0 SWAP2 SWAP1 DUP4 AND SWAP1 PUSH4 0x23B872DD SWAP1 PUSH1 0x64 ADD PUSH1 0x20 PUSH1 0x40 MLOAD DUP1 DUP4 SUB DUP2 PUSH1 0x0 DUP8 GAS CALL ISZERO DUP1 ISZERO PUSH2 0x646 JUMPI RETURNDATASIZE PUSH1 0x0 DUP1 RETURNDATACOPY RETURNDATASIZE PUSH1 0x0 REVERT JUMPDEST POP POP POP POP PUSH1 0x40 MLOAD RETURNDATASIZE PUSH1 0x1F NOT PUSH1 0x1F DUP3 ADD AND DUP3 ADD DUP1 PUSH1 0x40 MSTORE POP DUP2 ADD SWAP1 PUSH2 0x66A SWAP2 SWAP1 PUSH2 0x85D JUMP JUMPDEST SWAP1 POP DUP1 PUSH2 0x6B9 JUMPI PUSH1 0x40 MLOAD PUSH3 0x461BCD PUSH1 0xE5 SHL DUP2 MSTORE PUSH1 0x20 PUSH1 0x4 DUP3 ADD MSTORE PUSH1 0x1B PUSH1 0x24 DUP3 ADD MSTORE PUSH32 0x4661696C656420746F2073656E64204552432D323020546F6B656E0000000000 PUSH1 0x44 DUP3 ADD MSTORE PUSH1 0x64 ADD PUSH2 0x228 JUMP JUMPDEST POP JUMPDEST PUSH1 0x40 MLOAD PUSH12 0xFFFFFFFFFFFFFFFFFFFFFFFF NOT PUSH1 0x60 DUP6 DUP2 SHL DUP3 AND PUSH1 0x20 DUP5 ADD MSTORE CALLER SWAP1 SHL AND PUSH1 0x34 DUP3 ADD MSTORE PUSH1 0x48 DUP2 ADD DUP4 SWAP1 MSTORE TIMESTAMP PUSH1 0x68 DUP3 ADD MSTORE PUSH1 0x0 SWAP1 PUSH1 0x88 ADD PUSH1 0x40 DUP1 MLOAD PUSH1 0x1F NOT DUP2 DUP5 SUB ADD DUP2 MSTORE DUP3 DUP3 MSTORE DUP1 MLOAD PUSH1 0x20 SWAP2 DUP3 ADD KECCAK256 PUSH1 0xC0 DUP5 ADD DUP4 MSTORE DUP1 DUP5 MSTORE PUSH1 0x1 PUSH1 0x1 PUSH1 0xA0 SHL SUB DUP1 DUP10 AND DUP6 DUP5 ADD SWAP1 DUP2 MSTORE CALLER DUP7 DUP7 ADD SWAP1 DUP2 MSTORE DUP9 DUP4 AND PUSH1 0x60 DUP9 ADD SWAP1 DUP2 MSTORE PUSH1 0x80 DUP9 ADD DUP12 DUP2 MSTORE PUSH1 0x0 PUSH1 0xA0 DUP11 ADD DUP2 DUP2 MSTORE DUP8 DUP3 MSTORE SWAP8 DUP2 SWAP1 MSTORE DUP9 DUP2 KECCAK256 DUP11 MLOAD DUP2 SSTORE SWAP5 MLOAD PUSH1 0x1 DUP7 ADD DUP1 SLOAD SWAP2 DUP9 AND PUSH1 0x1 PUSH1 0x1 PUSH1 0xA0 SHL SUB NOT SWAP3 DUP4 AND OR SWAP1 SSTORE SWAP4 MLOAD PUSH1 0x2 DUP7 ADD DUP1 SLOAD SWAP2 DUP9 AND SWAP2 DUP7 AND SWAP2 SWAP1 SWAP2 OR SWAP1 SSTORE SWAP2 MLOAD PUSH1 0x3 DUP6 ADD DUP1 SLOAD SWAP2 SWAP1 SWAP7 AND SWAP4 AND SWAP3 SWAP1 SWAP3 OR SWAP1 SWAP4 SSTORE MLOAD PUSH1 0x4 DUP3 ADD SSTORE SWAP3 MLOAD PUSH1 0x5 SWAP1 SWAP4 ADD DUP1 SLOAD SWAP4 ISZERO ISZERO PUSH1 0xFF NOT SWAP1 SWAP5 AND SWAP4 SWAP1 SWAP4 OR SWAP1 SWAP3 SSTORE SWAP2 MLOAD SWAP2 SWAP4 POP DUP6 SWAP2 DUP5 SWAP2 PUSH32 0xE691874B94FEEBE07C148C95F48874C79B0CA6EDF760B45B64E0723BA22112C5 SWAP2 LOG3 POP POP POP POP POP JUMP JUMPDEST PUSH1 0x0 PUSH1 0x20 DUP3 DUP5 SUB SLT ISZERO PUSH2 0x7FC JUMPI PUSH1 0x0 DUP1 REVERT JUMPDEST POP CALLDATALOAD SWAP2 SWAP1 POP JUMP JUMPDEST PUSH1 0x1 PUSH1 0x1 PUSH1 0xA0 SHL SUB DUP2 AND DUP2 EQ PUSH2 0x818 JUMPI PUSH1 0x0 DUP1 REVERT JUMPDEST POP JUMP JUMPDEST PUSH1 0x0 DUP1 PUSH1 0x0 PUSH1 0x60 DUP5 DUP7 SUB SLT ISZERO PUSH2 0x830 JUMPI PUSH1 0x0 DUP1 REVERT JUMPDEST DUP4 CALLDATALOAD PUSH2 0x83B DUP2 PUSH2 0x803 JUMP JUMPDEST SWAP3 POP PUSH1 0x20 DUP5 ADD CALLDATALOAD SWAP2 POP PUSH1 0x40 DUP5 ADD CALLDATALOAD PUSH2 0x852 DUP2 PUSH2 0x803 JUMP JUMPDEST DUP1 SWAP2 POP POP SWAP3 POP SWAP3 POP SWAP3 JUMP JUMPDEST PUSH1 0x0 PUSH1 0x20 DUP3 DUP5 SUB SLT ISZERO PUSH2 0x86F JUMPI PUSH1 0x0 DUP1 REVERT JUMPDEST DUP2 MLOAD DUP1 ISZERO ISZERO DUP2 EQ PUSH2 0x87F JUMPI PUSH1 0x0 DUP1 REVERT JUMPDEST SWAP4 SWAP3 POP POP POP JUMP INVALID LOG2 PUSH5 0x6970667358 0x22 SLT KECCAK256 0xAB 0xD 0xA7 CREATE 0xC SWAP15 CALLER PUSH2 0x9318 CALLCODE 0xAD 0xE5 0xD9 0xBE 0xB7 CREATE PUSH13 0xBC73D7A9C94F29F5174E893B73 BASEFEE PUSH5 0x736F6C6343 STOP ADDMOD GT STOP CALLER "
				},
				"gasEstimates": {
					"creation": {
						"codeDepositCost": "447200",
						"executionCost": "480",
						"totalCost": "447680"
					},
					"external": {
						"getPaymentInfo(bytes32)": "13540",
						"pay(address,uint256,address)": "infinite",
						"refund(bytes32)": "infinite"
					}
				},
				"methodIdentifiers": {
					"getPaymentInfo(bytes32)": "a75e9b19",
					"pay(address,uint256,address)": "f0fcc6bb",
					"refund(bytes32)": "7249fbb6"
				}
			},
			"storageLayout": {
				"storage": [
					{
						"astId": 99,
						"contract": "solidity-contracts/contracts/Retailer.sol:Retailer",
						"label": "payments",
						"offset": 0,
						"slot": "0",
						"type": "t_mapping(t_bytes32,t_struct(Payment)94_storage)"
					}
				],
				"types": {
					"t_address": {
						"encoding": "inplace",
						"label": "address",
						"numberOfBytes": "20"
					},
					"t_bool": {
						"encoding": "inplace",
						"label": "bool",
						"numberOfBytes": "1"
					},
					"t_bytes32": {
						"encoding": "inplace",
						"label": "bytes32",
						"numberOfBytes": "32"
					},
					"t_contract(IERC20)77": {
						"encoding": "inplace",
						"label": "contract IERC20",
						"numberOfBytes": "20"
					},
					"t_mapping(t_bytes32,t_struct(Payment)94_storage)": {
						"encoding": "mapping",
						"key": "t_bytes32",
						"label": "mapping(bytes32 => struct Retailer.Payment)",
						"numberOfBytes": "32",
						"value": "t_struct(Payment)94_storage"
					},
					"t_struct(Payment)94_storage": {
						"encoding": "inplace",
						"label": "struct Retailer.Payment",
						"members": [
							{
								"astId": 82,
								"contract": "solidity-contracts/contracts/Retailer.sol:Retailer",
								"label": "id",
								"offset": 0,
								"slot": "0",
								"type": "t_bytes32"
							},
							{
								"astId": 84,
								"contract": "solidity-contracts/contracts/Retailer.sol:Retailer",
								"label": "seller",
								"offset": 0,
								"slot": "1",
								"type": "t_address"
							},
							{
								"astId": 86,
								"contract": "solidity-contracts/contracts/Retailer.sol:Retailer",
								"label": "buyer",
								"offset": 0,
								"slot": "2",
								"type": "t_address"
							},
							{
								"astId": 89,
								"contract": "solidity-contracts/contracts/Retailer.sol:Retailer",
								"label": "token",
								"offset": 0,
								"slot": "3",
								"type": "t_contract(IERC20)77"
							},
							{
								"astId": 91,
								"contract": "solidity-contracts/contracts/Retailer.sol:Retailer",
								"label": "amount",
								"offset": 0,
								"slot": "4",
								"type": "t_uint256"
							},
							{
								"astId": 93,
								"contract": "solidity-contracts/contracts/Retailer.sol:Retailer",
								"label": "refunded",
								"offset": 0,
								"slot": "5",
								"type": "t_bool"
							}
						],
						"numberOfBytes": "192"
					},
					"t_uint256": {
						"encoding": "inplace",
						"label": "uint256",
						"numberOfBytes": "32"
					}
				}
			},
			"userdoc": {
				"kind": "user",
				"methods": {},
				"version": 1
			}
		}
	}
}