{
  "_format": "hh-sol-artifact-1",
  "contractName": "MyToken",
  "sourceName": "contracts/MyToken.sol",
  "abi": [
    {
      "inputs": [],
      "stateMutability": "nonpayable",
      "type": "constructor"
    },
    {
      "anonymous": false,
      "inputs": [
        {
          "indexed": true,
          "internalType": "address",
          "name": "owner",
          "type": "address"
        },
        {
          "indexed": true,
          "internalType": "address",
          "name": "spender",
          "type": "address"
        },
        {
          "indexed": false,
          "internalType": "uint256",
          "name": "value",
          "type": "uint256"
        }
      ],
      "name": "Approval",
      "type": "event"
    },
    {
      "anonymous": false,
      "inputs": [
        {
          "indexed": true,
          "internalType": "address",
          "name": "previousOwner",
          "type": "address"
        },
        {
          "indexed": true,
          "internalType": "address",
          "name": "newOwner",
          "type": "address"
        }
      ],
      "name": "OwnershipTransferred",
      "type": "event"
    },
    {
      "anonymous": false,
      "inputs": [
        {
          "indexed": true,
          "internalType": "address",
          "name": "from",
          "type": "address"
        },
        {
          "indexed": true,
          "internalType": "address",
          "name": "to",
          "type": "address"
        },
        {
          "indexed": false,
          "internalType": "uint256",
          "name": "value",
          "type": "uint256"
        }
      ],
      "name": "Transfer",
      "type": "event"
    },
    {
      "inputs": [
        {
          "internalType": "address",
          "name": "owner",
          "type": "address"
        },
        {
          "internalType": "address",
          "name": "spender",
          "type": "address"
        }
      ],
      "name": "allowance",
      "outputs": [
        {
          "internalType": "uint256",
          "name": "",
          "type": "uint256"
        }
      ],
      "stateMutability": "view",
      "type": "function"
    },
    {
      "inputs": [
        {
          "internalType": "address",
          "name": "spender",
          "type": "address"
        },
        {
          "internalType": "uint256",
          "name": "amount",
          "type": "uint256"
        }
      ],
      "name": "approve",
      "outputs": [
        {
          "internalType": "bool",
          "name": "",
          "type": "bool"
        }
      ],
      "stateMutability": "nonpayable",
      "type": "function"
    },
    {
      "inputs": [
        {
          "internalType": "address",
          "name": "account",
          "type": "address"
        }
      ],
      "name": "balanceOf",
      "outputs": [
        {
          "internalType": "uint256",
          "name": "",
          "type": "uint256"
        }
      ],
      "stateMutability": "view",
      "type": "function"
    },
    {
      "inputs": [],
      "name": "decimals",
      "outputs": [
        {
          "internalType": "uint8",
          "name": "",
          "type": "uint8"
        }
      ],
      "stateMutability": "view",
      "type": "function"
    },
    {
      "inputs": [
        {
          "internalType": "address",
          "name": "spender",
          "type": "address"
        },
        {
          "internalType": "uint256",
          "name": "subtractedValue",
          "type": "uint256"
        }
      ],
      "name": "decreaseAllowance",
      "outputs": [
        {
          "internalType": "bool",
          "name": "",
          "type": "bool"
        }
      ],
      "stateMutability": "nonpayable",
      "type": "function"
    },
    {
      "inputs": [
        {
          "internalType": "address",
          "name": "spender",
          "type": "address"
        },
        {
          "internalType": "uint256",
          "name": "addedValue",
          "type": "uint256"
        }
      ],
      "name": "increaseAllowance",
      "outputs": [
        {
          "internalType": "bool",
          "name": "",
          "type": "bool"
        }
      ],
      "stateMutability": "nonpayable",
      "type": "function"
    },
    {
      "inputs": [],
      "name": "name",
      "outputs": [
        {
          "internalType": "string",
          "name": "",
          "type": "string"
        }
      ],
      "stateMutability": "view",
      "type": "function"
    },
    {
      "inputs": [],
      "name": "owner",
      "outputs": [
        {
          "internalType": "address",
          "name": "",
          "type": "address"
        }
      ],
      "stateMutability": "view",
      "type": "function"
    },
    {
      "inputs": [],
      "name": "renounceOwnership",
      "outputs": [],
      "stateMutability": "nonpayable",
      "type": "function"
    },
    {
      "inputs": [],
      "name": "symbol",
      "outputs": [
        {
          "internalType": "string",
          "name": "",
          "type": "string"
        }
      ],
      "stateMutability": "view",
      "type": "function"
    },
    {
      "inputs": [],
      "name": "totalSupply",
      "outputs": [
        {
          "internalType": "uint256",
          "name": "",
          "type": "uint256"
        }
      ],
      "stateMutability": "view",
      "type": "function"
    },
    {
      "inputs": [
        {
          "internalType": "address",
          "name": "to",
          "type": "address"
        },
        {
          "internalType": "uint256",
          "name": "amount",
          "type": "uint256"
        }
      ],
      "name": "transfer",
      "outputs": [
        {
          "internalType": "bool",
          "name": "",
          "type": "bool"
        }
      ],
      "stateMutability": "nonpayable",
      "type": "function"
    },
    {
      "inputs": [
        {
          "internalType": "address",
          "name": "from",
          "type": "address"
        },
        {
          "internalType": "address",
          "name": "to",
          "type": "address"
        },
        {
          "internalType": "uint256",
          "name": "amount",
          "type": "uint256"
        }
      ],
      "name": "transferFrom",
      "outputs": [
        {
          "internalType": "bool",
          "name": "",
          "type": "bool"
        }
      ],
      "stateMutability": "nonpayable",
      "type": "function"
    },
    {
      "inputs": [
        {
          "internalType": "address",
          "name": "newOwner",
          "type": "address"
        }
      ],
      "name": "transferOwnership",
      "outputs": [],
      "stateMutability": "nonpayable",
      "type": "function"
    }
  ],
  "bytecode": "0x60806040523480156200001157600080fd5b506040518060400160405280600781526020017f4d79546f6b656e000000000000000000000000000000000000000000000000008152506040518060400160405280600381526020017f4d544b000000000000000000000000000000000000000000000000000000000081525081600390805190602001906200009692919062000359565b508060049080519060200190620000af92919062000359565b505050620000d2620000c66200010860201b60201c565b6200011060201b60201c565b62000102337d90e40fbeea1d3a4abc8955e946fe31cdcf66f634e1000000000000000000620001d660201b60201c565b620005a7565b600033905090565b6000600560009054906101000a900473ffffffffffffffffffffffffffffffffffffffff16905081600560006101000a81548173ffffffffffffffffffffffffffffffffffffffff021916908373ffffffffffffffffffffffffffffffffffffffff1602179055508173ffffffffffffffffffffffffffffffffffffffff168173ffffffffffffffffffffffffffffffffffffffff167f8be0079c531659141344cd1fd0a4f28419497f9722a3daafe3b4186f6b6457e060405160405180910390a35050565b600073ffffffffffffffffffffffffffffffffffffffff168273ffffffffffffffffffffffffffffffffffffffff16141562000249576040517f08c379a000000000000000000000000000000000000000000000000000000000815260040162000240906200045c565b60405180910390fd5b6200025d600083836200034f60201b60201c565b8060026000828254620002719190620004ac565b92505081905550806000808473ffffffffffffffffffffffffffffffffffffffff1673ffffffffffffffffffffffffffffffffffffffff1681526020019081526020016000206000828254620002c89190620004ac565b925050819055508173ffffffffffffffffffffffffffffffffffffffff16600073ffffffffffffffffffffffffffffffffffffffff167fddf252ad1be2c89b69c2b068fc378daa952ba7f163c4a11628f55a4df523b3ef836040516200032f91906200047e565b60405180910390a36200034b600083836200035460201b60201c565b5050565b505050565b505050565b828054620003679062000513565b90600052602060002090601f0160209004810192826200038b5760008555620003d7565b82601f10620003a657805160ff1916838001178555620003d7565b82800160010185558215620003d7579182015b82811115620003d6578251825591602001919060010190620003b9565b5b509050620003e69190620003ea565b5090565b5b8082111562000405576000816000905550600101620003eb565b5090565b600062000418601f836200049b565b91507f45524332303a206d696e7420746f20746865207a65726f2061646472657373006000830152602082019050919050565b620004568162000509565b82525050565b60006020820190508181036000830152620004778162000409565b9050919050565b60006020820190506200049560008301846200044b565b92915050565b600082825260208201905092915050565b6000620004b98262000509565b9150620004c68362000509565b9250827fffffffffffffffffffffffffffffffffffffffffffffffffffffffffffffffff03821115620004fe57620004fd62000549565b5b828201905092915050565b6000819050919050565b600060028204905060018216806200052c57607f821691505b6020821081141562000543576200054262000578565b5b50919050565b7f4e487b7100000000000000000000000000000000000000000000000000000000600052601160045260246000fd5b7f4e487b7100000000000000000000000000000000000000000000000000000000600052602260045260246000fd5b61159a80620005b76000396000f3fe608060405234801561001057600080fd5b50600436106100ea5760003560e01c8063715018a61161008c578063a457c2d711610066578063a457c2d71461024f578063a9059cbb1461027f578063dd62ed3e146102af578063f2fde38b146102df576100ea565b8063715018a6146102095780638da5cb5b1461021357806395d89b4114610231576100ea565b806323b872dd116100c857806323b872dd1461015b578063313ce5671461018b57806339509351146101a957806370a08231146101d9576100ea565b806306fdde03146100ef578063095ea7b31461010d57806318160ddd1461013d575b600080fd5b6100f76102fb565b6040516101049190611223565b60405180910390f35b61012760048036038101906101229190610df2565b61038d565b6040516101349190611208565b60405180910390f35b6101456103b0565b6040516101529190611365565b60405180910390f35b61017560048036038101906101709190610da3565b6103ba565b6040516101829190611208565b60405180910390f35b6101936103e9565b6040516101a09190611380565b60405180910390f35b6101c360048036038101906101be9190610df2565b6103f2565b6040516101d09190611208565b60405180910390f35b6101f360048036038101906101ee9190610d3e565b610429565b6040516102009190611365565b60405180910390f35b610211610471565b005b61021b610485565b60405161022891906111ed565b60405180910390f35b6102396104af565b6040516102469190611223565b60405180910390f35b61026960048036038101906102649190610df2565b610541565b6040516102769190611208565b60405180910390f35b61029960048036038101906102949190610df2565b6105b8565b6040516102a69190611208565b60405180910390f35b6102c960048036038101906102c49190610d67565b6105db565b6040516102d69190611365565b60405180910390f35b6102f960048036038101906102f49190610d3e565b610662565b005b60606003805461030a90611495565b80601f016020809104026020016040519081016040528092919081815260200182805461033690611495565b80156103835780601f1061035857610100808354040283529160200191610383565b820191906000526020600020905b81548152906001019060200180831161036657829003601f168201915b5050505050905090565b6000806103986106e6565b90506103a58185856106ee565b600191505092915050565b6000600254905090565b6000806103c56106e6565b90506103d28582856108b9565b6103dd858585610945565b60019150509392505050565b60006012905090565b6000806103fd6106e6565b905061041e81858561040f85896105db565b61041991906113b7565b6106ee565b600191505092915050565b60008060008373ffffffffffffffffffffffffffffffffffffffff1673ffffffffffffffffffffffffffffffffffffffff168152602001908152602001600020549050919050565b610479610bc6565b6104836000610c44565b565b6000600560009054906101000a900473ffffffffffffffffffffffffffffffffffffffff16905090565b6060600480546104be90611495565b80601f01602080910402602001604051908101604052809291908181526020018280546104ea90611495565b80156105375780601f1061050c57610100808354040283529160200191610537565b820191906000526020600020905b81548152906001019060200180831161051a57829003601f168201915b5050505050905090565b60008061054c6106e6565b9050600061055a82866105db565b90508381101561059f576040517f08c379a000000000000000000000000000000000000000000000000000000000815260040161059690611345565b60405180910390fd5b6105ac82868684036106ee565b60019250505092915050565b6000806105c36106e6565b90506105d0818585610945565b600191505092915050565b6000600160008473ffffffffffffffffffffffffffffffffffffffff1673ffffffffffffffffffffffffffffffffffffffff16815260200190815260200160002060008373ffffffffffffffffffffffffffffffffffffffff1673ffffffffffffffffffffffffffffffffffffffff16815260200190815260200160002054905092915050565b61066a610bc6565b600073ffffffffffffffffffffffffffffffffffffffff168173ffffffffffffffffffffffffffffffffffffffff1614156106da576040517f08c379a00000000000000000000000000000000000000000000000000000000081526004016106d190611265565b60405180910390fd5b6106e381610c44565b50565b600033905090565b600073ffffffffffffffffffffffffffffffffffffffff168373ffffffffffffffffffffffffffffffffffffffff16141561075e576040517f08c379a000000000000000000000000000000000000000000000000000000000815260040161075590611325565b60405180910390fd5b600073ffffffffffffffffffffffffffffffffffffffff168273ffffffffffffffffffffffffffffffffffffffff1614156107ce576040517f08c379a00000000000000000000000000000000000000000000000000000000081526004016107c590611285565b60405180910390fd5b80600160008573ffffffffffffffffffffffffffffffffffffffff1673ffffffffffffffffffffffffffffffffffffffff16815260200190815260200160002060008473ffffffffffffffffffffffffffffffffffffffff1673ffffffffffffffffffffffffffffffffffffffff168152602001908152602001600020819055508173ffffffffffffffffffffffffffffffffffffffff168373ffffffffffffffffffffffffffffffffffffffff167f8c5be1e5ebec7d5bd14f71427d1e84f3dd0314c0f7b2291e5b200ac8c7c3b925836040516108ac9190611365565b60405180910390a3505050565b60006108c584846105db565b90507fffffffffffffffffffffffffffffffffffffffffffffffffffffffffffffffff811461093f5781811015610931576040517f08c379a0000000000000000000000000000000000000000000000000000000008152600401610928906112a5565b60405180910390fd5b61093e84848484036106ee565b5b50505050565b600073ffffffffffffffffffffffffffffffffffffffff168373ffffffffffffffffffffffffffffffffffffffff1614156109b5576040517f08c379a00000000000000000000000000000000000000000000000000000000081526004016109ac90611305565b60405180910390fd5b600073ffffffffffffffffffffffffffffffffffffffff168273ffffffffffffffffffffffffffffffffffffffff161415610a25576040517f08c379a0000000000000000000000000000000000000000000000000000000008152600401610a1c90611245565b60405180910390fd5b610a30838383610d0a565b60008060008573ffffffffffffffffffffffffffffffffffffffff1673ffffffffffffffffffffffffffffffffffffffff16815260200190815260200160002054905081811015610ab6576040517f08c379a0000000000000000000000000000000000000000000000000000000008152600401610aad906112c5565b60405180910390fd5b8181036000808673ffffffffffffffffffffffffffffffffffffffff1673ffffffffffffffffffffffffffffffffffffffff16815260200190815260200160002081905550816000808573ffffffffffffffffffffffffffffffffffffffff1673ffffffffffffffffffffffffffffffffffffffff1681526020019081526020016000206000828254610b4991906113b7565b925050819055508273ffffffffffffffffffffffffffffffffffffffff168473ffffffffffffffffffffffffffffffffffffffff167fddf252ad1be2c89b69c2b068fc378daa952ba7f163c4a11628f55a4df523b3ef84604051610bad9190611365565b60405180910390a3610bc0848484610d0f565b50505050565b610bce6106e6565b73ffffffffffffffffffffffffffffffffffffffff16610bec610485565b73ffffffffffffffffffffffffffffffffffffffff1614610c42576040517f08c379a0000000000000000000000000000000000000000000000000000000008152600401610c39906112e5565b60405180910390fd5b565b6000600560009054906101000a900473ffffffffffffffffffffffffffffffffffffffff16905081600560006101000a81548173ffffffffffffffffffffffffffffffffffffffff021916908373ffffffffffffffffffffffffffffffffffffffff1602179055508173ffffffffffffffffffffffffffffffffffffffff168173ffffffffffffffffffffffffffffffffffffffff167f8be0079c531659141344cd1fd0a4f28419497f9722a3daafe3b4186f6b6457e060405160405180910390a35050565b505050565b505050565b600081359050610d2381611536565b92915050565b600081359050610d388161154d565b92915050565b600060208284031215610d5057600080fd5b6000610d5e84828501610d14565b91505092915050565b60008060408385031215610d7a57600080fd5b6000610d8885828601610d14565b9250506020610d9985828601610d14565b9150509250929050565b600080600060608486031215610db857600080fd5b6000610dc686828701610d14565b9350506020610dd786828701610d14565b9250506040610de886828701610d29565b9150509250925092565b60008060408385031215610e0557600080fd5b6000610e1385828601610d14565b9250506020610e2485828601610d29565b9150509250929050565b610e378161140d565b82525050565b610e468161141f565b82525050565b6000610e578261139b565b610e6181856113a6565b9350610e71818560208601611462565b610e7a81611525565b840191505092915050565b6000610e926023836113a6565b91507f45524332303a207472616e7366657220746f20746865207a65726f206164647260008301527f65737300000000000000000000000000000000000000000000000000000000006020830152604082019050919050565b6000610ef86026836113a6565b91507f4f776e61626c653a206e6577206f776e657220697320746865207a65726f206160008301527f64647265737300000000000000000000000000000000000000000000000000006020830152604082019050919050565b6000610f5e6022836113a6565b91507f45524332303a20617070726f766520746f20746865207a65726f20616464726560008301527f73730000000000000000000000000000000000000000000000000000000000006020830152604082019050919050565b6000610fc4601d836113a6565b91507f45524332303a20696e73756666696369656e7420616c6c6f77616e63650000006000830152602082019050919050565b60006110046026836113a6565b91507f45524332303a207472616e7366657220616d6f756e742065786365656473206260008301527f616c616e636500000000000000000000000000000000000000000000000000006020830152604082019050919050565b600061106a6020836113a6565b91507f4f776e61626c653a2063616c6c6572206973206e6f7420746865206f776e65726000830152602082019050919050565b60006110aa6025836113a6565b91507f45524332303a207472616e736665722066726f6d20746865207a65726f20616460008301527f64726573730000000000000000000000000000000000000000000000000000006020830152604082019050919050565b60006111106024836113a6565b91507f45524332303a20617070726f76652066726f6d20746865207a65726f2061646460008301527f72657373000000000000000000000000000000000000000000000000000000006020830152604082019050919050565b60006111766025836113a6565b91507f45524332303a2064656372656173656420616c6c6f77616e63652062656c6f7760008301527f207a65726f0000000000000000000000000000000000000000000000000000006020830152604082019050919050565b6111d88161144b565b82525050565b6111e781611455565b82525050565b60006020820190506112026000830184610e2e565b92915050565b600060208201905061121d6000830184610e3d565b92915050565b6000602082019050818103600083015261123d8184610e4c565b905092915050565b6000602082019050818103600083015261125e81610e85565b9050919050565b6000602082019050818103600083015261127e81610eeb565b9050919050565b6000602082019050818103600083015261129e81610f51565b9050919050565b600060208201905081810360008301526112be81610fb7565b9050919050565b600060208201905081810360008301526112de81610ff7565b9050919050565b600060208201905081810360008301526112fe8161105d565b9050919050565b6000602082019050818103600083015261131e8161109d565b9050919050565b6000602082019050818103600083015261133e81611103565b9050919050565b6000602082019050818103600083015261135e81611169565b9050919050565b600060208201905061137a60008301846111cf565b92915050565b600060208201905061139560008301846111de565b92915050565b600081519050919050565b600082825260208201905092915050565b60006113c28261144b565b91506113cd8361144b565b9250827fffffffffffffffffffffffffffffffffffffffffffffffffffffffffffffffff03821115611402576114016114c7565b5b828201905092915050565b60006114188261142b565b9050919050565b60008115159050919050565b600073ffffffffffffffffffffffffffffffffffffffff82169050919050565b6000819050919050565b600060ff82169050919050565b60005b83811015611480578082015181840152602081019050611465565b8381111561148f576000848401525b50505050565b600060028204905060018216806114ad57607f821691505b602082108114156114c1576114c06114f6565b5b50919050565b7f4e487b7100000000000000000000000000000000000000000000000000000000600052601160045260246000fd5b7f4e487b7100000000000000000000000000000000000000000000000000000000600052602260045260246000fd5b6000601f19601f8301169050919050565b61153f8161140d565b811461154a57600080fd5b50565b6115568161144b565b811461156157600080fd5b5056fea26469706673582212202a9f79249cd306a7ccbbaa9baf84db782eed39739d2c724660fd6c42ace7e6d264736f6c63430008000033",
  "linkReferences": {},
  "deployedLinkReferences": {}
}